{
	"contracts/BlogRegistry.sol": {
		"BlogRegistry": {
			"abi": [
				{
					"anonymous": false,
					"inputs": [
						{
							"indexed": true,
							"internalType": "address",
							"name": "author",
							"type": "address"
						},
						{
							"indexed": false,
							"internalType": "string",
							"name": "cid",
							"type": "string"
						},
						{
							"indexed": false,
							"internalType": "uint256",
							"name": "timestamp",
							"type": "uint256"
						}
					],
					"name": "PostDeleted",
					"type": "event"
				},
				{
					"anonymous": false,
					"inputs": [
						{
							"indexed": true,
							"internalType": "address",
							"name": "author",
							"type": "address"
						},
						{
							"indexed": false,
							"internalType": "string",
							"name": "cid",
							"type": "string"
						},
						{
							"indexed": false,
							"internalType": "uint256",
							"name": "timestamp",
							"type": "uint256"
						}
					],
					"name": "PostRegistered",
					"type": "event"
				},
				{
					"anonymous": false,
					"inputs": [
						{
							"indexed": true,
							"internalType": "address",
							"name": "author",
							"type": "address"
						},
						{
							"indexed": false,
							"internalType": "string",
							"name": "oldCid",
							"type": "string"
						},
						{
							"indexed": false,
							"internalType": "string",
							"name": "newCid",
							"type": "string"
						},
						{
							"indexed": false,
							"internalType": "uint256",
							"name": "timestamp",
							"type": "uint256"
						}
					],
					"name": "PostUpdated",
					"type": "event"
				},
				{
					"inputs": [
						{
							"internalType": "uint256",
							"name": "",
							"type": "uint256"
						}
					],
					"name": "allPosts",
					"outputs": [
						{
							"internalType": "string",
							"name": "",
							"type": "string"
						}
					],
					"stateMutability": "view",
					"type": "function"
				},
				{
					"inputs": [
						{
							"internalType": "string",
							"name": "cid",
							"type": "string"
						}
					],
					"name": "deletePost",
					"outputs": [],
					"stateMutability": "nonpayable",
					"type": "function"
				},
				{
					"inputs": [],
					"name": "getAllPosts",
					"outputs": [
						{
							"internalType": "string[]",
							"name": "",
							"type": "string[]"
						}
					],
					"stateMutability": "view",
					"type": "function"
				},
				{
					"inputs": [],
					"name": "getPostCount",
					"outputs": [
						{
							"internalType": "uint256",
							"name": "",
							"type": "uint256"
						}
					],
					"stateMutability": "view",
					"type": "function"
				},
				{
					"inputs": [
						{
							"internalType": "string",
							"name": "cid",
							"type": "string"
						}
					],
					"name": "getPostInfo",
					"outputs": [
						{
							"components": [
								{
									"internalType": "string",
									"name": "cid",
									"type": "string"
								},
								{
									"internalType": "address",
									"name": "author",
									"type": "address"
								},
								{
									"internalType": "uint256",
									"name": "timestamp",
									"type": "uint256"
								},
								{
									"internalType": "bool",
									"name": "exists",
									"type": "bool"
								}
							],
							"internalType": "struct BlogRegistry.PostInfo",
							"name": "",
							"type": "tuple"
						}
					],
					"stateMutability": "view",
					"type": "function"
				},
				{
					"inputs": [
						{
							"internalType": "address",
							"name": "user",
							"type": "address"
						}
					],
					"name": "getUserPostCount",
					"outputs": [
						{
							"internalType": "uint256",
							"name": "",
							"type": "uint256"
						}
					],
					"stateMutability": "view",
					"type": "function"
				},
				{
					"inputs": [
						{
							"internalType": "address",
							"name": "user",
							"type": "address"
						}
					],
					"name": "getUserPosts",
					"outputs": [
						{
							"internalType": "string[]",
							"name": "",
							"type": "string[]"
						}
					],
					"stateMutability": "view",
					"type": "function"
				},
				{
					"inputs": [
						{
							"internalType": "string",
							"name": "",
							"type": "string"
						}
					],
					"name": "postDetails",
					"outputs": [
						{
							"internalType": "string",
							"name": "cid",
							"type": "string"
						},
						{
							"internalType": "address",
							"name": "author",
							"type": "address"
						},
						{
							"internalType": "uint256",
							"name": "timestamp",
							"type": "uint256"
						},
						{
							"internalType": "bool",
							"name": "exists",
							"type": "bool"
						}
					],
					"stateMutability": "view",
					"type": "function"
				},
				{
					"inputs": [
						{
							"internalType": "string",
							"name": "cid",
							"type": "string"
						}
					],
					"name": "postExists",
					"outputs": [
						{
							"internalType": "bool",
							"name": "",
							"type": "bool"
						}
					],
					"stateMutability": "view",
					"type": "function"
				},
				{
					"inputs": [
						{
							"internalType": "string",
							"name": "cid",
							"type": "string"
						}
					],
					"name": "registerPost",
					"outputs": [],
					"stateMutability": "nonpayable",
					"type": "function"
				},
				{
					"inputs": [
						{
							"internalType": "string",
							"name": "oldCid",
							"type": "string"
						},
						{
							"internalType": "string",
							"name": "newCid",
							"type": "string"
						}
					],
					"name": "updatePost",
					"outputs": [],
					"stateMutability": "nonpayable",
					"type": "function"
				},
				{
					"inputs": [
						{
							"internalType": "address",
							"name": "",
							"type": "address"
						},
						{
							"internalType": "uint256",
							"name": "",
							"type": "uint256"
						}
					],
					"name": "userPosts",
					"outputs": [
						{
							"internalType": "string",
							"name": "",
							"type": "string"
						}
					],
					"stateMutability": "view",
					"type": "function"
				}
			],
			"devdoc": {
				"kind": "dev",
				"methods": {},
				"version": 1
			},
			"evm": {
				"assembly": "    /* \"contracts/BlogRegistry.sol\":57:4199  contract BlogRegistry {... */\n  mstore(0x40, 0x80)\n  callvalue\n  dup1\n  iszero\n  tag_1\n  jumpi\n  revert(0x00, 0x00)\ntag_1:\n  pop\n  dataSize(sub_0)\n  dup1\n  dataOffset(sub_0)\n  0x00\n  codecopy\n  0x00\n  return\nstop\n\nsub_0: assembly {\n        /* \"contracts/BlogRegistry.sol\":57:4199  contract BlogRegistry {... */\n      mstore(0x40, 0x80)\n      callvalue\n      dup1\n      iszero\n      tag_1\n      jumpi\n      revert(0x00, 0x00)\n    tag_1:\n      pop\n      jumpi(tag_2, lt(calldatasize, 0x04))\n      shr(0xe0, calldataload(0x00))\n      dup1\n      0x8064d149\n      gt\n      tag_15\n      jumpi\n      dup1\n      0x8064d149\n      eq\n      tag_9\n      jumpi\n      dup1\n      0x8afec4c0\n      eq\n      tag_10\n      jumpi\n      dup1\n      0x9a2194a9\n      eq\n      tag_11\n      jumpi\n      dup1\n      0xbcc95407\n      eq\n      tag_12\n      jumpi\n      dup1\n      0xd74a14bd\n      eq\n      tag_13\n      jumpi\n      dup1\n      0xf0321b71\n      eq\n      tag_14\n      jumpi\n      jump(tag_2)\n    tag_15:\n      dup1\n      0xa09832\n      eq\n      tag_3\n      jumpi\n      dup1\n      0x084d5372\n      eq\n      tag_4\n      jumpi\n      dup1\n      0x30561100\n      eq\n      tag_5\n      jumpi\n      dup1\n      0x30fdab50\n      eq\n      tag_6\n      jumpi\n      dup1\n      0x41ce7617\n      eq\n      tag_7\n      jumpi\n      dup1\n      0x718ce2bc\n      eq\n      tag_8\n      jumpi\n    tag_2:\n      revert(0x00, 0x00)\n        /* \"contracts/BlogRegistry.sol\":3958:4074  function getUserPostCount(address user) public view returns (uint256) {... */\n    tag_3:\n      tag_16\n      0x04\n      dup1\n      calldatasize\n      sub\n      dup2\n      add\n      swap1\n      tag_17\n      swap2\n      swap1\n      tag_18\n      jump\t// in\n    tag_17:\n      tag_19\n      jump\t// in\n    tag_16:\n      mload(0x40)\n      tag_20\n      swap2\n      swap1\n      tag_21\n      jump\t// in\n    tag_20:\n      mload(0x40)\n      dup1\n      swap2\n      sub\n      swap1\n      return\n        /* \"contracts/BlogRegistry.sol\":2674:3948  function updatePost(string memory oldCid, string memory newCid) public {... */\n    tag_4:\n      tag_22\n      0x04\n      dup1\n      calldatasize\n      sub\n      dup2\n      add\n      swap1\n      tag_23\n      swap2\n      swap1\n      tag_24\n      jump\t// in\n    tag_23:\n      tag_25\n      jump\t// in\n    tag_22:\n      stop\n        /* \"contracts/BlogRegistry.sol\":1310:1403  function getAllPosts() public view returns (string[] memory) {... */\n    tag_5:\n      tag_26\n      tag_27\n      jump\t// in\n    tag_26:\n      mload(0x40)\n      tag_28\n      swap2\n      swap1\n      tag_29\n      jump\t// in\n    tag_28:\n      mload(0x40)\n      dup1\n      swap2\n      sub\n      swap1\n      return\n        /* \"contracts/BlogRegistry.sol\":1709:2664  function deletePost(string memory cid) public {... */\n    tag_6:\n      tag_30\n      0x04\n      dup1\n      calldatasize\n      sub\n      dup2\n      add\n      swap1\n      tag_31\n      swap2\n      swap1\n      tag_32\n      jump\t// in\n    tag_31:\n      tag_33\n      jump\t// in\n    tag_30:\n      stop\n        /* \"contracts/BlogRegistry.sol\":1516:1699  function getPostInfo(string memory cid) public view returns (PostInfo memory) {... */\n    tag_7:\n      tag_34\n      0x04\n      dup1\n      calldatasize\n      sub\n      dup2\n      add\n      swap1\n      tag_35\n      swap2\n      swap1\n      tag_32\n      jump\t// in\n    tag_35:\n      tag_36\n      jump\t// in\n    tag_34:\n      mload(0x40)\n      tag_37\n      swap2\n      swap1\n      tag_38\n      jump\t// in\n    tag_37:\n      mload(0x40)\n      dup1\n      swap2\n      sub\n      swap1\n      return\n        /* \"contracts/BlogRegistry.sol\":136:160  string[] public allPosts */\n    tag_8:\n      tag_39\n      0x04\n      dup1\n      calldatasize\n      sub\n      dup2\n      add\n      swap1\n      tag_40\n      swap2\n      swap1\n      tag_41\n      jump\t// in\n    tag_40:\n      tag_42\n      jump\t// in\n    tag_39:\n      mload(0x40)\n      tag_43\n      swap2\n      swap1\n      tag_44\n      jump\t// in\n    tag_43:\n      mload(0x40)\n      dup1\n      swap2\n      sub\n      swap1\n      return\n        /* \"contracts/BlogRegistry.sol\":85:130  mapping(address => string[]) public userPosts */\n    tag_9:\n      tag_45\n      0x04\n      dup1\n      calldatasize\n      sub\n      dup2\n      add\n      swap1\n      tag_46\n      swap2\n      swap1\n      tag_47\n      jump\t// in\n    tag_46:\n      tag_48\n      jump\t// in\n    tag_45:\n      mload(0x40)\n      tag_49\n      swap2\n      swap1\n      tag_44\n      jump\t// in\n    tag_49:\n      mload(0x40)\n      dup1\n      swap2\n      sub\n      swap1\n      return\n        /* \"contracts/BlogRegistry.sol\":613:1177  function registerPost(string memory cid) public {... */\n    tag_10:\n      tag_50\n      0x04\n      dup1\n      calldatasize\n      sub\n      dup2\n      add\n      swap1\n      tag_51\n      swap2\n      swap1\n      tag_32\n      jump\t// in\n    tag_51:\n      tag_52\n      jump\t// in\n    tag_50:\n      stop\n        /* \"contracts/BlogRegistry.sol\":1187:1300  function getUserPosts(address user) public view returns (string[] memory) {... */\n    tag_11:\n      tag_53\n      0x04\n      dup1\n      calldatasize\n      sub\n      dup2\n      add\n      swap1\n      tag_54\n      swap2\n      swap1\n      tag_18\n      jump\t// in\n    tag_54:\n      tag_55\n      jump\t// in\n    tag_53:\n      mload(0x40)\n      tag_56\n      swap2\n      swap1\n      tag_29\n      jump\t// in\n    tag_56:\n      mload(0x40)\n      dup1\n      swap2\n      sub\n      swap1\n      return\n        /* \"contracts/BlogRegistry.sol\":1413:1506  function getPostCount() public view returns (uint256) {... */\n    tag_12:\n      tag_57\n      tag_58\n      jump\t// in\n    tag_57:\n      mload(0x40)\n      tag_59\n      swap2\n      swap1\n      tag_21\n      jump\t// in\n    tag_59:\n      mload(0x40)\n      dup1\n      swap2\n      sub\n      swap1\n      return\n        /* \"contracts/BlogRegistry.sol\":4084:4197  function postExists(string memory cid) public view returns (bool) {... */\n    tag_13:\n      tag_60\n      0x04\n      dup1\n      calldatasize\n      sub\n      dup2\n      add\n      swap1\n      tag_61\n      swap2\n      swap1\n      tag_32\n      jump\t// in\n    tag_61:\n      tag_62\n      jump\t// in\n    tag_60:\n      mload(0x40)\n      tag_63\n      swap2\n      swap1\n      tag_64\n      jump\t// in\n    tag_63:\n      mload(0x40)\n      dup1\n      swap2\n      sub\n      swap1\n      return\n        /* \"contracts/BlogRegistry.sol\":296:342  mapping(string => PostInfo) public postDetails */\n    tag_14:\n      tag_65\n      0x04\n      dup1\n      calldatasize\n      sub\n      dup2\n      add\n      swap1\n      tag_66\n      swap2\n      swap1\n      tag_32\n      jump\t// in\n    tag_66:\n      tag_67\n      jump\t// in\n    tag_65:\n      mload(0x40)\n      tag_68\n      swap5\n      swap4\n      swap3\n      swap2\n      swap1\n      tag_69\n      jump\t// in\n    tag_68:\n      mload(0x40)\n      dup1\n      swap2\n      sub\n      swap1\n      return\n        /* \"contracts/BlogRegistry.sol\":3958:4074  function getUserPostCount(address user) public view returns (uint256) {... */\n    tag_19:\n        /* \"contracts/BlogRegistry.sol\":4019:4026  uint256 */\n      0x00\n        /* \"contracts/BlogRegistry.sol\":4045:4054  userPosts */\n      0x00\n        /* \"contracts/BlogRegistry.sol\":4045:4060  userPosts[user] */\n      0x00\n        /* \"contracts/BlogRegistry.sol\":4055:4059  user */\n      dup4\n        /* \"contracts/BlogRegistry.sol\":4045:4060  userPosts[user] */\n      0xffffffffffffffffffffffffffffffffffffffff\n      and\n      0xffffffffffffffffffffffffffffffffffffffff\n      and\n      dup2\n      mstore\n      0x20\n      add\n      swap1\n      dup2\n      mstore\n      0x20\n      add\n      0x00\n      keccak256\n        /* \"contracts/BlogRegistry.sol\":4045:4067  userPosts[user].length */\n      dup1\n      sload\n      swap1\n      pop\n        /* \"contracts/BlogRegistry.sol\":4038:4067  return userPosts[user].length */\n      swap1\n      pop\n        /* \"contracts/BlogRegistry.sol\":3958:4074  function getUserPostCount(address user) public view returns (uint256) {... */\n      swap2\n      swap1\n      pop\n      jump\t// out\n        /* \"contracts/BlogRegistry.sol\":2674:3948  function updatePost(string memory oldCid, string memory newCid) public {... */\n    tag_25:\n        /* \"contracts/BlogRegistry.sol\":2763:2774  postDetails */\n      0x02\n        /* \"contracts/BlogRegistry.sol\":2775:2781  oldCid */\n      dup3\n        /* \"contracts/BlogRegistry.sol\":2763:2782  postDetails[oldCid] */\n      mload(0x40)\n      tag_72\n      swap2\n      swap1\n      tag_73\n      jump\t// in\n    tag_72:\n      swap1\n      dup2\n      mstore\n      0x20\n      add\n      mload(0x40)\n      dup1\n      swap2\n      sub\n      swap1\n      keccak256\n        /* \"contracts/BlogRegistry.sol\":2763:2789  postDetails[oldCid].exists */\n      0x03\n      add\n      0x00\n      swap1\n      sload\n      swap1\n      0x0100\n      exp\n      swap1\n      div\n      0xff\n      and\n        /* \"contracts/BlogRegistry.sol\":2755:2817  require(postDetails[oldCid].exists, \"Old post does not exist\") */\n      tag_74\n      jumpi\n      mload(0x40)\n      0x08c379a000000000000000000000000000000000000000000000000000000000\n      dup2\n      mstore\n      0x04\n      add\n      tag_75\n      swap1\n      tag_76\n      jump\t// in\n    tag_75:\n      mload(0x40)\n      dup1\n      swap2\n      sub\n      swap1\n      revert\n    tag_74:\n        /* \"contracts/BlogRegistry.sol\":2865:2875  msg.sender */\n      caller\n        /* \"contracts/BlogRegistry.sol\":2835:2875  postDetails[oldCid].author == msg.sender */\n      0xffffffffffffffffffffffffffffffffffffffff\n      and\n        /* \"contracts/BlogRegistry.sol\":2835:2846  postDetails */\n      0x02\n        /* \"contracts/BlogRegistry.sol\":2847:2853  oldCid */\n      dup4\n        /* \"contracts/BlogRegistry.sol\":2835:2854  postDetails[oldCid] */\n      mload(0x40)\n      tag_77\n      swap2\n      swap1\n      tag_73\n      jump\t// in\n    tag_77:\n      swap1\n      dup2\n      mstore\n      0x20\n      add\n      mload(0x40)\n      dup1\n      swap2\n      sub\n      swap1\n      keccak256\n        /* \"contracts/BlogRegistry.sol\":2835:2861  postDetails[oldCid].author */\n      0x01\n      add\n      0x00\n      swap1\n      sload\n      swap1\n      0x0100\n      exp\n      swap1\n      div\n      0xffffffffffffffffffffffffffffffffffffffff\n      and\n        /* \"contracts/BlogRegistry.sol\":2835:2875  postDetails[oldCid].author == msg.sender */\n      0xffffffffffffffffffffffffffffffffffffffff\n      and\n      eq\n        /* \"contracts/BlogRegistry.sol\":2827:2907  require(postDetails[oldCid].author == msg.sender, \"Only author can update post\") */\n      tag_78\n      jumpi\n      mload(0x40)\n      0x08c379a000000000000000000000000000000000000000000000000000000000\n      dup2\n      mstore\n      0x04\n      add\n      tag_79\n      swap1\n      tag_80\n      jump\t// in\n    tag_79:\n      mload(0x40)\n      dup1\n      swap2\n      sub\n      swap1\n      revert\n    tag_78:\n        /* \"contracts/BlogRegistry.sol\":2948:2949  0 */\n      0x00\n        /* \"contracts/BlogRegistry.sol\":2931:2937  newCid */\n      dup2\n        /* \"contracts/BlogRegistry.sol\":2925:2945  bytes(newCid).length */\n      mload\n        /* \"contracts/BlogRegistry.sol\":2925:2949  bytes(newCid).length > 0 */\n      gt\n        /* \"contracts/BlogRegistry.sol\":2917:2977  require(bytes(newCid).length > 0, \"New CID cannot be empty\") */\n      tag_81\n      jumpi\n      mload(0x40)\n      0x08c379a000000000000000000000000000000000000000000000000000000000\n      dup2\n      mstore\n      0x04\n      add\n      tag_82\n      swap1\n      tag_83\n      jump\t// in\n    tag_82:\n      mload(0x40)\n      dup1\n      swap2\n      sub\n      swap1\n      revert\n    tag_81:\n        /* \"contracts/BlogRegistry.sol\":2996:3007  postDetails */\n      0x02\n        /* \"contracts/BlogRegistry.sol\":3008:3014  newCid */\n      dup2\n        /* \"contracts/BlogRegistry.sol\":2996:3015  postDetails[newCid] */\n      mload(0x40)\n      tag_84\n      swap2\n      swap1\n      tag_73\n      jump\t// in\n    tag_84:\n      swap1\n      dup2\n      mstore\n      0x20\n      add\n      mload(0x40)\n      dup1\n      swap2\n      sub\n      swap1\n      keccak256\n        /* \"contracts/BlogRegistry.sol\":2996:3022  postDetails[newCid].exists */\n      0x03\n      add\n      0x00\n      swap1\n      sload\n      swap1\n      0x0100\n      exp\n      swap1\n      div\n      0xff\n      and\n        /* \"contracts/BlogRegistry.sol\":2995:3022  !postDetails[newCid].exists */\n      iszero\n        /* \"contracts/BlogRegistry.sol\":2987:3049  require(!postDetails[newCid].exists, \"New CID already exists\") */\n      tag_85\n      jumpi\n      mload(0x40)\n      0x08c379a000000000000000000000000000000000000000000000000000000000\n      dup2\n      mstore\n      0x04\n      add\n      tag_86\n      swap1\n      tag_87\n      jump\t// in\n    tag_86:\n      mload(0x40)\n      dup1\n      swap2\n      sub\n      swap1\n      revert\n    tag_85:\n        /* \"contracts/BlogRegistry.sol\":3068:3095  PostInfo memory updatedPost */\n      0x00\n        /* \"contracts/BlogRegistry.sol\":3098:3241  PostInfo({... */\n      mload(0x40)\n      dup1\n      0x80\n      add\n      0x40\n      mstore\n      dup1\n        /* \"contracts/BlogRegistry.sol\":3126:3132  newCid */\n      dup4\n        /* \"contracts/BlogRegistry.sol\":3098:3241  PostInfo({... */\n      dup2\n      mstore\n      0x20\n      add\n        /* \"contracts/BlogRegistry.sol\":3154:3164  msg.sender */\n      caller\n        /* \"contracts/BlogRegistry.sol\":3098:3241  PostInfo({... */\n      0xffffffffffffffffffffffffffffffffffffffff\n      and\n      dup2\n      mstore\n      0x20\n      add\n        /* \"contracts/BlogRegistry.sol\":3189:3204  block.timestamp */\n      timestamp\n        /* \"contracts/BlogRegistry.sol\":3098:3241  PostInfo({... */\n      dup2\n      mstore\n      0x20\n      add\n        /* \"contracts/BlogRegistry.sol\":3226:3230  true */\n      0x01\n        /* \"contracts/BlogRegistry.sol\":3098:3241  PostInfo({... */\n      iszero\n      iszero\n      dup2\n      mstore\n      pop\n        /* \"contracts/BlogRegistry.sol\":3068:3241  PostInfo memory updatedPost = PostInfo({... */\n      swap1\n      pop\n        /* \"contracts/BlogRegistry.sol\":3282:3293  updatedPost */\n      dup1\n        /* \"contracts/BlogRegistry.sol\":3260:3271  postDetails */\n      0x02\n        /* \"contracts/BlogRegistry.sol\":3272:3278  newCid */\n      dup4\n        /* \"contracts/BlogRegistry.sol\":3260:3279  postDetails[newCid] */\n      mload(0x40)\n      tag_88\n      swap2\n      swap1\n      tag_73\n      jump\t// in\n    tag_88:\n      swap1\n      dup2\n      mstore\n      0x20\n      add\n      mload(0x40)\n      dup1\n      swap2\n      sub\n      swap1\n      keccak256\n        /* \"contracts/BlogRegistry.sol\":3260:3293  postDetails[newCid] = updatedPost */\n      0x00\n      dup3\n      add\n      mload\n      dup2\n      0x00\n      add\n      swap1\n      dup2\n      tag_89\n      swap2\n      swap1\n      tag_90\n      jump\t// in\n    tag_89:\n      pop\n      0x20\n      dup3\n      add\n      mload\n      dup2\n      0x01\n      add\n      exp(0x0100, 0x00)\n      dup2\n      sload\n      dup2\n      0xffffffffffffffffffffffffffffffffffffffff\n      mul\n      not\n      and\n      swap1\n      dup4\n      0xffffffffffffffffffffffffffffffffffffffff\n      and\n      mul\n      or\n      swap1\n      sstore\n      pop\n      0x40\n      dup3\n      add\n      mload\n      dup2\n      0x02\n      add\n      sstore\n      0x60\n      dup3\n      add\n      mload\n      dup2\n      0x03\n      add\n      exp(0x0100, 0x00)\n      dup2\n      sload\n      dup2\n      0xff\n      mul\n      not\n      and\n      swap1\n      dup4\n      iszero\n      iszero\n      mul\n      or\n      swap1\n      sstore\n      pop\n      swap1\n      pop\n      pop\n        /* \"contracts/BlogRegistry.sol\":3312:3341  string[] storage userPostList */\n      0x00\n        /* \"contracts/BlogRegistry.sol\":3344:3353  userPosts */\n      0x00\n        /* \"contracts/BlogRegistry.sol\":3344:3365  userPosts[msg.sender] */\n      0x00\n        /* \"contracts/BlogRegistry.sol\":3354:3364  msg.sender */\n      caller\n        /* \"contracts/BlogRegistry.sol\":3344:3365  userPosts[msg.sender] */\n      0xffffffffffffffffffffffffffffffffffffffff\n      and\n      0xffffffffffffffffffffffffffffffffffffffff\n      and\n      dup2\n      mstore\n      0x20\n      add\n      swap1\n      dup2\n      mstore\n      0x20\n      add\n      0x00\n      keccak256\n        /* \"contracts/BlogRegistry.sol\":3312:3365  string[] storage userPostList = userPosts[msg.sender] */\n      swap1\n      pop\n        /* \"contracts/BlogRegistry.sol\":3380:3386  uint i */\n      0x00\n        /* \"contracts/BlogRegistry.sol\":3389:3390  0 */\n      0x00\n        /* \"contracts/BlogRegistry.sol\":3380:3390  uint i = 0 */\n      swap1\n      pop\n        /* \"contracts/BlogRegistry.sol\":3375:3593  for (uint i = 0; i < userPostList.length; i++) {... */\n    tag_91:\n        /* \"contracts/BlogRegistry.sol\":3396:3408  userPostList */\n      dup2\n        /* \"contracts/BlogRegistry.sol\":3396:3415  userPostList.length */\n      dup1\n      sload\n      swap1\n      pop\n        /* \"contracts/BlogRegistry.sol\":3392:3393  i */\n      dup2\n        /* \"contracts/BlogRegistry.sol\":3392:3415  i < userPostList.length */\n      lt\n        /* \"contracts/BlogRegistry.sol\":3375:3593  for (uint i = 0; i < userPostList.length; i++) {... */\n      iszero\n      tag_92\n      jumpi\n        /* \"contracts/BlogRegistry.sol\":3493:3499  oldCid */\n      dup5\n        /* \"contracts/BlogRegistry.sol\":3477:3501  keccak256(bytes(oldCid)) */\n      dup1\n      mload\n      swap1\n      0x20\n      add\n      keccak256\n        /* \"contracts/BlogRegistry.sol\":3456:3468  userPostList */\n      dup3\n        /* \"contracts/BlogRegistry.sol\":3469:3470  i */\n      dup3\n        /* \"contracts/BlogRegistry.sol\":3456:3471  userPostList[i] */\n      dup2\n      sload\n      dup2\n      lt\n      tag_94\n      jumpi\n      tag_95\n      tag_96\n      jump\t// in\n    tag_95:\n    tag_94:\n      swap1\n      0x00\n      mstore\n      keccak256(0x00, 0x20)\n      add\n        /* \"contracts/BlogRegistry.sol\":3440:3473  keccak256(bytes(userPostList[i])) */\n      mload(0x40)\n      tag_98\n      swap2\n      swap1\n      tag_99\n      jump\t// in\n    tag_98:\n      mload(0x40)\n      dup1\n      swap2\n      sub\n      swap1\n      keccak256\n        /* \"contracts/BlogRegistry.sol\":3440:3501  keccak256(bytes(userPostList[i])) == keccak256(bytes(oldCid)) */\n      sub\n        /* \"contracts/BlogRegistry.sol\":3436:3583  if (keccak256(bytes(userPostList[i])) == keccak256(bytes(oldCid))) {... */\n      tag_100\n      jumpi\n        /* \"contracts/BlogRegistry.sol\":3539:3545  newCid */\n      dup4\n        /* \"contracts/BlogRegistry.sol\":3521:3533  userPostList */\n      dup3\n        /* \"contracts/BlogRegistry.sol\":3534:3535  i */\n      dup3\n        /* \"contracts/BlogRegistry.sol\":3521:3536  userPostList[i] */\n      dup2\n      sload\n      dup2\n      lt\n      tag_101\n      jumpi\n      tag_102\n      tag_96\n      jump\t// in\n    tag_102:\n    tag_101:\n      swap1\n      0x00\n      mstore\n      keccak256(0x00, 0x20)\n      add\n        /* \"contracts/BlogRegistry.sol\":3521:3545  userPostList[i] = newCid */\n      swap1\n      dup2\n      tag_104\n      swap2\n      swap1\n      tag_90\n      jump\t// in\n    tag_104:\n      pop\n        /* \"contracts/BlogRegistry.sol\":3563:3568  break */\n      jump(tag_92)\n        /* \"contracts/BlogRegistry.sol\":3436:3583  if (keccak256(bytes(userPostList[i])) == keccak256(bytes(oldCid))) {... */\n    tag_100:\n        /* \"contracts/BlogRegistry.sol\":3417:3420  i++ */\n      dup1\n      dup1\n      0x01\n      add\n      swap2\n      pop\n      pop\n        /* \"contracts/BlogRegistry.sol\":3375:3593  for (uint i = 0; i < userPostList.length; i++) {... */\n      jump(tag_91)\n    tag_92:\n      pop\n        /* \"contracts/BlogRegistry.sol\":3616:3622  uint i */\n      0x00\n        /* \"contracts/BlogRegistry.sol\":3625:3626  0 */\n      0x00\n        /* \"contracts/BlogRegistry.sol\":3616:3626  uint i = 0 */\n      swap1\n      pop\n        /* \"contracts/BlogRegistry.sol\":3611:3817  for (uint i = 0; i < allPosts.length; i++) {... */\n    tag_105:\n        /* \"contracts/BlogRegistry.sol\":3632:3640  allPosts */\n      0x01\n        /* \"contracts/BlogRegistry.sol\":3632:3647  allPosts.length */\n      dup1\n      sload\n      swap1\n      pop\n        /* \"contracts/BlogRegistry.sol\":3628:3629  i */\n      dup2\n        /* \"contracts/BlogRegistry.sol\":3628:3647  i < allPosts.length */\n      lt\n        /* \"contracts/BlogRegistry.sol\":3611:3817  for (uint i = 0; i < allPosts.length; i++) {... */\n      iszero\n      tag_106\n      jumpi\n        /* \"contracts/BlogRegistry.sol\":3721:3727  oldCid */\n      dup5\n        /* \"contracts/BlogRegistry.sol\":3705:3729  keccak256(bytes(oldCid)) */\n      dup1\n      mload\n      swap1\n      0x20\n      add\n      keccak256\n        /* \"contracts/BlogRegistry.sol\":3688:3696  allPosts */\n      0x01\n        /* \"contracts/BlogRegistry.sol\":3697:3698  i */\n      dup3\n        /* \"contracts/BlogRegistry.sol\":3688:3699  allPosts[i] */\n      dup2\n      sload\n      dup2\n      lt\n      tag_108\n      jumpi\n      tag_109\n      tag_96\n      jump\t// in\n    tag_109:\n    tag_108:\n      swap1\n      0x00\n      mstore\n      keccak256(0x00, 0x20)\n      add\n        /* \"contracts/BlogRegistry.sol\":3672:3701  keccak256(bytes(allPosts[i])) */\n      mload(0x40)\n      tag_111\n      swap2\n      swap1\n      tag_99\n      jump\t// in\n    tag_111:\n      mload(0x40)\n      dup1\n      swap2\n      sub\n      swap1\n      keccak256\n        /* \"contracts/BlogRegistry.sol\":3672:3729  keccak256(bytes(allPosts[i])) == keccak256(bytes(oldCid)) */\n      sub\n        /* \"contracts/BlogRegistry.sol\":3668:3807  if (keccak256(bytes(allPosts[i])) == keccak256(bytes(oldCid))) {... */\n      tag_112\n      jumpi\n        /* \"contracts/BlogRegistry.sol\":3763:3769  newCid */\n      dup4\n        /* \"contracts/BlogRegistry.sol\":3749:3757  allPosts */\n      0x01\n        /* \"contracts/BlogRegistry.sol\":3758:3759  i */\n      dup3\n        /* \"contracts/BlogRegistry.sol\":3749:3760  allPosts[i] */\n      dup2\n      sload\n      dup2\n      lt\n      tag_113\n      jumpi\n      tag_114\n      tag_96\n      jump\t// in\n    tag_114:\n    tag_113:\n      swap1\n      0x00\n      mstore\n      keccak256(0x00, 0x20)\n      add\n        /* \"contracts/BlogRegistry.sol\":3749:3769  allPosts[i] = newCid */\n      swap1\n      dup2\n      tag_116\n      swap2\n      swap1\n      tag_90\n      jump\t// in\n    tag_116:\n      pop\n        /* \"contracts/BlogRegistry.sol\":3787:3792  break */\n      jump(tag_106)\n        /* \"contracts/BlogRegistry.sol\":3668:3807  if (keccak256(bytes(allPosts[i])) == keccak256(bytes(oldCid))) {... */\n    tag_112:\n        /* \"contracts/BlogRegistry.sol\":3649:3652  i++ */\n      dup1\n      dup1\n      0x01\n      add\n      swap2\n      pop\n      pop\n        /* \"contracts/BlogRegistry.sol\":3611:3817  for (uint i = 0; i < allPosts.length; i++) {... */\n      jump(tag_105)\n    tag_106:\n      pop\n        /* \"contracts/BlogRegistry.sol\":3842:3853  postDetails */\n      0x02\n        /* \"contracts/BlogRegistry.sol\":3854:3860  oldCid */\n      dup5\n        /* \"contracts/BlogRegistry.sol\":3842:3861  postDetails[oldCid] */\n      mload(0x40)\n      tag_117\n      swap2\n      swap1\n      tag_73\n      jump\t// in\n    tag_117:\n      swap1\n      dup2\n      mstore\n      0x20\n      add\n      mload(0x40)\n      dup1\n      swap2\n      sub\n      swap1\n      keccak256\n      0x00\n        /* \"contracts/BlogRegistry.sol\":3835:3861  delete postDetails[oldCid] */\n      0x00\n      dup3\n      add\n      0x00\n      tag_118\n      swap2\n      swap1\n      tag_119\n      jump\t// in\n    tag_118:\n      0x01\n      dup3\n      add\n      exp(0x0100, 0x00)\n      dup2\n      sload\n      swap1\n      0xffffffffffffffffffffffffffffffffffffffff\n      mul\n      not\n      and\n      swap1\n      sstore\n      0x02\n      dup3\n      add\n      0x00\n      swap1\n      sstore\n      0x03\n      dup3\n      add\n      exp(0x0100, 0x00)\n      dup2\n      sload\n      swap1\n      0xff\n      mul\n      not\n      and\n      swap1\n      sstore\n      pop\n      pop\n        /* \"contracts/BlogRegistry.sol\":3897:3907  msg.sender */\n      caller\n        /* \"contracts/BlogRegistry.sol\":3885:3941  PostUpdated(msg.sender, oldCid, newCid, block.timestamp) */\n      0xffffffffffffffffffffffffffffffffffffffff\n      and\n      0xef00928980186f4bb721a4ad1f430bc929dca3546eda363fec3e083f81ad88f7\n        /* \"contracts/BlogRegistry.sol\":3909:3915  oldCid */\n      dup6\n        /* \"contracts/BlogRegistry.sol\":3917:3923  newCid */\n      dup6\n        /* \"contracts/BlogRegistry.sol\":3925:3940  block.timestamp */\n      timestamp\n        /* \"contracts/BlogRegistry.sol\":3885:3941  PostUpdated(msg.sender, oldCid, newCid, block.timestamp) */\n      mload(0x40)\n      tag_120\n      swap4\n      swap3\n      swap2\n      swap1\n      tag_121\n      jump\t// in\n    tag_120:\n      mload(0x40)\n      dup1\n      swap2\n      sub\n      swap1\n      log2\n        /* \"contracts/BlogRegistry.sol\":2745:3948  {... */\n      pop\n      pop\n        /* \"contracts/BlogRegistry.sol\":2674:3948  function updatePost(string memory oldCid, string memory newCid) public {... */\n      pop\n      pop\n      jump\t// out\n        /* \"contracts/BlogRegistry.sol\":1310:1403  function getAllPosts() public view returns (string[] memory) {... */\n    tag_27:\n        /* \"contracts/BlogRegistry.sol\":1354:1369  string[] memory */\n      0x60\n        /* \"contracts/BlogRegistry.sol\":1388:1396  allPosts */\n      0x01\n        /* \"contracts/BlogRegistry.sol\":1381:1396  return allPosts */\n      dup1\n      sload\n      dup1\n      0x20\n      mul\n      0x20\n      add\n      mload(0x40)\n      swap1\n      dup2\n      add\n      0x40\n      mstore\n      dup1\n      swap3\n      swap2\n      swap1\n      dup2\n      dup2\n      mstore\n      0x20\n      add\n      0x00\n      swap1\n    tag_123:\n      dup3\n      dup3\n      lt\n      iszero\n      tag_124\n      jumpi\n      dup4\n      dup3\n      swap1\n      0x00\n      mstore\n      keccak256(0x00, 0x20)\n      add\n      dup1\n      sload\n      tag_126\n      swap1\n      tag_127\n      jump\t// in\n    tag_126:\n      dup1\n      0x1f\n      add\n      0x20\n      dup1\n      swap2\n      div\n      mul\n      0x20\n      add\n      mload(0x40)\n      swap1\n      dup2\n      add\n      0x40\n      mstore\n      dup1\n      swap3\n      swap2\n      swap1\n      dup2\n      dup2\n      mstore\n      0x20\n      add\n      dup3\n      dup1\n      sload\n      tag_128\n      swap1\n      tag_127\n      jump\t// in\n    tag_128:\n      dup1\n      iszero\n      tag_129\n      jumpi\n      dup1\n      0x1f\n      lt\n      tag_130\n      jumpi\n      0x0100\n      dup1\n      dup4\n      sload\n      div\n      mul\n      dup4\n      mstore\n      swap2\n      0x20\n      add\n      swap2\n      jump(tag_129)\n    tag_130:\n      dup3\n      add\n      swap2\n      swap1\n      0x00\n      mstore\n      keccak256(0x00, 0x20)\n      swap1\n    tag_131:\n      dup2\n      sload\n      dup2\n      mstore\n      swap1\n      0x01\n      add\n      swap1\n      0x20\n      add\n      dup1\n      dup4\n      gt\n      tag_131\n      jumpi\n      dup3\n      swap1\n      sub\n      0x1f\n      and\n      dup3\n      add\n      swap2\n    tag_129:\n      pop\n      pop\n      pop\n      pop\n      pop\n      dup2\n      mstore\n      0x20\n      add\n      swap1\n      0x01\n      add\n      swap1\n      jump(tag_123)\n    tag_124:\n      pop\n      pop\n      pop\n      pop\n      swap1\n      pop\n        /* \"contracts/BlogRegistry.sol\":1310:1403  function getAllPosts() public view returns (string[] memory) {... */\n      swap1\n      jump\t// out\n        /* \"contracts/BlogRegistry.sol\":1709:2664  function deletePost(string memory cid) public {... */\n    tag_33:\n        /* \"contracts/BlogRegistry.sol\":1773:1784  postDetails */\n      0x02\n        /* \"contracts/BlogRegistry.sol\":1785:1788  cid */\n      dup2\n        /* \"contracts/BlogRegistry.sol\":1773:1789  postDetails[cid] */\n      mload(0x40)\n      tag_133\n      swap2\n      swap1\n      tag_73\n      jump\t// in\n    tag_133:\n      swap1\n      dup2\n      mstore\n      0x20\n      add\n      mload(0x40)\n      dup1\n      swap2\n      sub\n      swap1\n      keccak256\n        /* \"contracts/BlogRegistry.sol\":1773:1796  postDetails[cid].exists */\n      0x03\n      add\n      0x00\n      swap1\n      sload\n      swap1\n      0x0100\n      exp\n      swap1\n      div\n      0xff\n      and\n        /* \"contracts/BlogRegistry.sol\":1765:1820  require(postDetails[cid].exists, \"Post does not exist\") */\n      tag_134\n      jumpi\n      mload(0x40)\n      0x08c379a000000000000000000000000000000000000000000000000000000000\n      dup2\n      mstore\n      0x04\n      add\n      tag_135\n      swap1\n      tag_136\n      jump\t// in\n    tag_135:\n      mload(0x40)\n      dup1\n      swap2\n      sub\n      swap1\n      revert\n    tag_134:\n        /* \"contracts/BlogRegistry.sol\":1865:1875  msg.sender */\n      caller\n        /* \"contracts/BlogRegistry.sol\":1838:1875  postDetails[cid].author == msg.sender */\n      0xffffffffffffffffffffffffffffffffffffffff\n      and\n        /* \"contracts/BlogRegistry.sol\":1838:1849  postDetails */\n      0x02\n        /* \"contracts/BlogRegistry.sol\":1850:1853  cid */\n      dup3\n        /* \"contracts/BlogRegistry.sol\":1838:1854  postDetails[cid] */\n      mload(0x40)\n      tag_137\n      swap2\n      swap1\n      tag_73\n      jump\t// in\n    tag_137:\n      swap1\n      dup2\n      mstore\n      0x20\n      add\n      mload(0x40)\n      dup1\n      swap2\n      sub\n      swap1\n      keccak256\n        /* \"contracts/BlogRegistry.sol\":1838:1861  postDetails[cid].author */\n      0x01\n      add\n      0x00\n      swap1\n      sload\n      swap1\n      0x0100\n      exp\n      swap1\n      div\n      0xffffffffffffffffffffffffffffffffffffffff\n      and\n        /* \"contracts/BlogRegistry.sol\":1838:1875  postDetails[cid].author == msg.sender */\n      0xffffffffffffffffffffffffffffffffffffffff\n      and\n      eq\n        /* \"contracts/BlogRegistry.sol\":1830:1907  require(postDetails[cid].author == msg.sender, \"Only author can delete post\") */\n      tag_138\n      jumpi\n      mload(0x40)\n      0x08c379a000000000000000000000000000000000000000000000000000000000\n      dup2\n      mstore\n      0x04\n      add\n      tag_139\n      swap1\n      tag_140\n      jump\t// in\n    tag_139:\n      mload(0x40)\n      dup1\n      swap2\n      sub\n      swap1\n      revert\n    tag_138:\n        /* \"contracts/BlogRegistry.sol\":1933:1944  postDetails */\n      0x02\n        /* \"contracts/BlogRegistry.sol\":1945:1948  cid */\n      dup2\n        /* \"contracts/BlogRegistry.sol\":1933:1949  postDetails[cid] */\n      mload(0x40)\n      tag_141\n      swap2\n      swap1\n      tag_73\n      jump\t// in\n    tag_141:\n      swap1\n      dup2\n      mstore\n      0x20\n      add\n      mload(0x40)\n      dup1\n      swap2\n      sub\n      swap1\n      keccak256\n      0x00\n        /* \"contracts/BlogRegistry.sol\":1926:1949  delete postDetails[cid] */\n      0x00\n      dup3\n      add\n      0x00\n      tag_142\n      swap2\n      swap1\n      tag_119\n      jump\t// in\n    tag_142:\n      0x01\n      dup3\n      add\n      exp(0x0100, 0x00)\n      dup2\n      sload\n      swap1\n      0xffffffffffffffffffffffffffffffffffffffff\n      mul\n      not\n      and\n      swap1\n      sstore\n      0x02\n      dup3\n      add\n      0x00\n      swap1\n      sstore\n      0x03\n      dup3\n      add\n      exp(0x0100, 0x00)\n      dup2\n      sload\n      swap1\n      0xff\n      mul\n      not\n      and\n      swap1\n      sstore\n      pop\n      pop\n        /* \"contracts/BlogRegistry.sol\":1968:1997  string[] storage userPostList */\n      0x00\n        /* \"contracts/BlogRegistry.sol\":2000:2009  userPosts */\n      0x00\n        /* \"contracts/BlogRegistry.sol\":2000:2021  userPosts[msg.sender] */\n      0x00\n        /* \"contracts/BlogRegistry.sol\":2010:2020  msg.sender */\n      caller\n        /* \"contracts/BlogRegistry.sol\":2000:2021  userPosts[msg.sender] */\n      0xffffffffffffffffffffffffffffffffffffffff\n      and\n      0xffffffffffffffffffffffffffffffffffffffff\n      and\n      dup2\n      mstore\n      0x20\n      add\n      swap1\n      dup2\n      mstore\n      0x20\n      add\n      0x00\n      keccak256\n        /* \"contracts/BlogRegistry.sol\":1968:2021  string[] storage userPostList = userPosts[msg.sender] */\n      swap1\n      pop\n        /* \"contracts/BlogRegistry.sol\":2036:2042  uint i */\n      0x00\n        /* \"contracts/BlogRegistry.sol\":2045:2046  0 */\n      0x00\n        /* \"contracts/BlogRegistry.sol\":2036:2046  uint i = 0 */\n      swap1\n      pop\n        /* \"contracts/BlogRegistry.sol\":2031:2313  for (uint i = 0; i < userPostList.length; i++) {... */\n    tag_143:\n        /* \"contracts/BlogRegistry.sol\":2052:2064  userPostList */\n      dup2\n        /* \"contracts/BlogRegistry.sol\":2052:2071  userPostList.length */\n      dup1\n      sload\n      swap1\n      pop\n        /* \"contracts/BlogRegistry.sol\":2048:2049  i */\n      dup2\n        /* \"contracts/BlogRegistry.sol\":2048:2071  i < userPostList.length */\n      lt\n        /* \"contracts/BlogRegistry.sol\":2031:2313  for (uint i = 0; i < userPostList.length; i++) {... */\n      iszero\n      tag_144\n      jumpi\n        /* \"contracts/BlogRegistry.sol\":2149:2152  cid */\n      dup3\n        /* \"contracts/BlogRegistry.sol\":2133:2154  keccak256(bytes(cid)) */\n      dup1\n      mload\n      swap1\n      0x20\n      add\n      keccak256\n        /* \"contracts/BlogRegistry.sol\":2112:2124  userPostList */\n      dup3\n        /* \"contracts/BlogRegistry.sol\":2125:2126  i */\n      dup3\n        /* \"contracts/BlogRegistry.sol\":2112:2127  userPostList[i] */\n      dup2\n      sload\n      dup2\n      lt\n      tag_146\n      jumpi\n      tag_147\n      tag_96\n      jump\t// in\n    tag_147:\n    tag_146:\n      swap1\n      0x00\n      mstore\n      keccak256(0x00, 0x20)\n      add\n        /* \"contracts/BlogRegistry.sol\":2096:2129  keccak256(bytes(userPostList[i])) */\n      mload(0x40)\n      tag_149\n      swap2\n      swap1\n      tag_99\n      jump\t// in\n    tag_149:\n      mload(0x40)\n      dup1\n      swap2\n      sub\n      swap1\n      keccak256\n        /* \"contracts/BlogRegistry.sol\":2096:2154  keccak256(bytes(userPostList[i])) == keccak256(bytes(cid)) */\n      sub\n        /* \"contracts/BlogRegistry.sol\":2092:2303  if (keccak256(bytes(userPostList[i])) == keccak256(bytes(cid))) {... */\n      tag_150\n      jumpi\n        /* \"contracts/BlogRegistry.sol\":2192:2204  userPostList */\n      dup2\n        /* \"contracts/BlogRegistry.sol\":2227:2228  1 */\n      0x01\n        /* \"contracts/BlogRegistry.sol\":2205:2217  userPostList */\n      dup4\n        /* \"contracts/BlogRegistry.sol\":2205:2224  userPostList.length */\n      dup1\n      sload\n      swap1\n      pop\n        /* \"contracts/BlogRegistry.sol\":2205:2228  userPostList.length - 1 */\n      tag_151\n      swap2\n      swap1\n      tag_152\n      jump\t// in\n    tag_151:\n        /* \"contracts/BlogRegistry.sol\":2192:2229  userPostList[userPostList.length - 1] */\n      dup2\n      sload\n      dup2\n      lt\n      tag_153\n      jumpi\n      tag_154\n      tag_96\n      jump\t// in\n    tag_154:\n    tag_153:\n      swap1\n      0x00\n      mstore\n      keccak256(0x00, 0x20)\n      add\n        /* \"contracts/BlogRegistry.sol\":2174:2186  userPostList */\n      dup3\n        /* \"contracts/BlogRegistry.sol\":2187:2188  i */\n      dup3\n        /* \"contracts/BlogRegistry.sol\":2174:2189  userPostList[i] */\n      dup2\n      sload\n      dup2\n      lt\n      tag_156\n      jumpi\n      tag_157\n      tag_96\n      jump\t// in\n    tag_157:\n    tag_156:\n      swap1\n      0x00\n      mstore\n      keccak256(0x00, 0x20)\n      add\n        /* \"contracts/BlogRegistry.sol\":2174:2229  userPostList[i] = userPostList[userPostList.length - 1] */\n      swap1\n      dup2\n      tag_159\n      swap2\n      swap1\n      tag_160\n      jump\t// in\n    tag_159:\n      pop\n        /* \"contracts/BlogRegistry.sol\":2247:2259  userPostList */\n      dup2\n        /* \"contracts/BlogRegistry.sol\":2247:2265  userPostList.pop() */\n      dup1\n      sload\n      dup1\n      tag_161\n      jumpi\n      tag_162\n      tag_163\n      jump\t// in\n    tag_162:\n    tag_161:\n      0x01\n      swap1\n      sub\n      dup2\n      dup2\n      swap1\n      0x00\n      mstore\n      keccak256(0x00, 0x20)\n      add\n      0x00\n      tag_165\n      swap2\n      swap1\n      tag_119\n      jump\t// in\n    tag_165:\n      swap1\n      sstore\n        /* \"contracts/BlogRegistry.sol\":2283:2288  break */\n      jump(tag_144)\n        /* \"contracts/BlogRegistry.sol\":2092:2303  if (keccak256(bytes(userPostList[i])) == keccak256(bytes(cid))) {... */\n    tag_150:\n        /* \"contracts/BlogRegistry.sol\":2073:2076  i++ */\n      dup1\n      dup1\n      0x01\n      add\n      swap2\n      pop\n      pop\n        /* \"contracts/BlogRegistry.sol\":2031:2313  for (uint i = 0; i < userPostList.length; i++) {... */\n      jump(tag_143)\n    tag_144:\n      pop\n        /* \"contracts/BlogRegistry.sol\":2336:2342  uint i */\n      0x00\n        /* \"contracts/BlogRegistry.sol\":2345:2346  0 */\n      0x00\n        /* \"contracts/BlogRegistry.sol\":2336:2346  uint i = 0 */\n      swap1\n      pop\n        /* \"contracts/BlogRegistry.sol\":2331:2589  for (uint i = 0; i < allPosts.length; i++) {... */\n    tag_166:\n        /* \"contracts/BlogRegistry.sol\":2352:2360  allPosts */\n      0x01\n        /* \"contracts/BlogRegistry.sol\":2352:2367  allPosts.length */\n      dup1\n      sload\n      swap1\n      pop\n        /* \"contracts/BlogRegistry.sol\":2348:2349  i */\n      dup2\n        /* \"contracts/BlogRegistry.sol\":2348:2367  i < allPosts.length */\n      lt\n        /* \"contracts/BlogRegistry.sol\":2331:2589  for (uint i = 0; i < allPosts.length; i++) {... */\n      iszero\n      tag_167\n      jumpi\n        /* \"contracts/BlogRegistry.sol\":2441:2444  cid */\n      dup3\n        /* \"contracts/BlogRegistry.sol\":2425:2446  keccak256(bytes(cid)) */\n      dup1\n      mload\n      swap1\n      0x20\n      add\n      keccak256\n        /* \"contracts/BlogRegistry.sol\":2408:2416  allPosts */\n      0x01\n        /* \"contracts/BlogRegistry.sol\":2417:2418  i */\n      dup3\n        /* \"contracts/BlogRegistry.sol\":2408:2419  allPosts[i] */\n      dup2\n      sload\n      dup2\n      lt\n      tag_169\n      jumpi\n      tag_170\n      tag_96\n      jump\t// in\n    tag_170:\n    tag_169:\n      swap1\n      0x00\n      mstore\n      keccak256(0x00, 0x20)\n      add\n        /* \"contracts/BlogRegistry.sol\":2392:2421  keccak256(bytes(allPosts[i])) */\n      mload(0x40)\n      tag_172\n      swap2\n      swap1\n      tag_99\n      jump\t// in\n    tag_172:\n      mload(0x40)\n      dup1\n      swap2\n      sub\n      swap1\n      keccak256\n        /* \"contracts/BlogRegistry.sol\":2392:2446  keccak256(bytes(allPosts[i])) == keccak256(bytes(cid)) */\n      sub\n        /* \"contracts/BlogRegistry.sol\":2388:2579  if (keccak256(bytes(allPosts[i])) == keccak256(bytes(cid))) {... */\n      tag_173\n      jumpi\n        /* \"contracts/BlogRegistry.sol\":2480:2488  allPosts */\n      0x01\n        /* \"contracts/BlogRegistry.sol\":2507:2508  1 */\n      dup1\n        /* \"contracts/BlogRegistry.sol\":2489:2497  allPosts */\n      dup1\n        /* \"contracts/BlogRegistry.sol\":2489:2504  allPosts.length */\n      dup1\n      sload\n      swap1\n      pop\n        /* \"contracts/BlogRegistry.sol\":2489:2508  allPosts.length - 1 */\n      tag_174\n      swap2\n      swap1\n      tag_152\n      jump\t// in\n    tag_174:\n        /* \"contracts/BlogRegistry.sol\":2480:2509  allPosts[allPosts.length - 1] */\n      dup2\n      sload\n      dup2\n      lt\n      tag_175\n      jumpi\n      tag_176\n      tag_96\n      jump\t// in\n    tag_176:\n    tag_175:\n      swap1\n      0x00\n      mstore\n      keccak256(0x00, 0x20)\n      add\n        /* \"contracts/BlogRegistry.sol\":2466:2474  allPosts */\n      0x01\n        /* \"contracts/BlogRegistry.sol\":2475:2476  i */\n      dup3\n        /* \"contracts/BlogRegistry.sol\":2466:2477  allPosts[i] */\n      dup2\n      sload\n      dup2\n      lt\n      tag_178\n      jumpi\n      tag_179\n      tag_96\n      jump\t// in\n    tag_179:\n    tag_178:\n      swap1\n      0x00\n      mstore\n      keccak256(0x00, 0x20)\n      add\n        /* \"contracts/BlogRegistry.sol\":2466:2509  allPosts[i] = allPosts[allPosts.length - 1] */\n      swap1\n      dup2\n      tag_181\n      swap2\n      swap1\n      tag_160\n      jump\t// in\n    tag_181:\n      pop\n        /* \"contracts/BlogRegistry.sol\":2527:2535  allPosts */\n      0x01\n        /* \"contracts/BlogRegistry.sol\":2527:2541  allPosts.pop() */\n      dup1\n      sload\n      dup1\n      tag_182\n      jumpi\n      tag_183\n      tag_163\n      jump\t// in\n    tag_183:\n    tag_182:\n      0x01\n      swap1\n      sub\n      dup2\n      dup2\n      swap1\n      0x00\n      mstore\n      keccak256(0x00, 0x20)\n      add\n      0x00\n      tag_185\n      swap2\n      swap1\n      tag_119\n      jump\t// in\n    tag_185:\n      swap1\n      sstore\n        /* \"contracts/BlogRegistry.sol\":2559:2564  break */\n      jump(tag_167)\n        /* \"contracts/BlogRegistry.sol\":2388:2579  if (keccak256(bytes(allPosts[i])) == keccak256(bytes(cid))) {... */\n    tag_173:\n        /* \"contracts/BlogRegistry.sol\":2369:2372  i++ */\n      dup1\n      dup1\n      0x01\n      add\n      swap2\n      pop\n      pop\n        /* \"contracts/BlogRegistry.sol\":2331:2589  for (uint i = 0; i < allPosts.length; i++) {... */\n      jump(tag_166)\n    tag_167:\n      pop\n        /* \"contracts/BlogRegistry.sol\":2624:2634  msg.sender */\n      caller\n        /* \"contracts/BlogRegistry.sol\":2612:2657  PostDeleted(msg.sender, cid, block.timestamp) */\n      0xffffffffffffffffffffffffffffffffffffffff\n      and\n      0x52f5a9d08669be24caf9d9a03ce03fd5d8c3e44ffe7a4635afc8c90857b1d51a\n        /* \"contracts/BlogRegistry.sol\":2636:2639  cid */\n      dup4\n        /* \"contracts/BlogRegistry.sol\":2641:2656  block.timestamp */\n      timestamp\n        /* \"contracts/BlogRegistry.sol\":2612:2657  PostDeleted(msg.sender, cid, block.timestamp) */\n      mload(0x40)\n      tag_186\n      swap3\n      swap2\n      swap1\n      tag_187\n      jump\t// in\n    tag_186:\n      mload(0x40)\n      dup1\n      swap2\n      sub\n      swap1\n      log2\n        /* \"contracts/BlogRegistry.sol\":1755:2664  {... */\n      pop\n        /* \"contracts/BlogRegistry.sol\":1709:2664  function deletePost(string memory cid) public {... */\n      pop\n      jump\t// out\n        /* \"contracts/BlogRegistry.sol\":1516:1699  function getPostInfo(string memory cid) public view returns (PostInfo memory) {... */\n    tag_36:\n        /* \"contracts/BlogRegistry.sol\":1577:1592  PostInfo memory */\n      tag_188\n      tag_189\n      jump\t// in\n    tag_188:\n        /* \"contracts/BlogRegistry.sol\":1612:1623  postDetails */\n      0x02\n        /* \"contracts/BlogRegistry.sol\":1624:1627  cid */\n      dup3\n        /* \"contracts/BlogRegistry.sol\":1612:1628  postDetails[cid] */\n      mload(0x40)\n      tag_191\n      swap2\n      swap1\n      tag_73\n      jump\t// in\n    tag_191:\n      swap1\n      dup2\n      mstore\n      0x20\n      add\n      mload(0x40)\n      dup1\n      swap2\n      sub\n      swap1\n      keccak256\n        /* \"contracts/BlogRegistry.sol\":1612:1635  postDetails[cid].exists */\n      0x03\n      add\n      0x00\n      swap1\n      sload\n      swap1\n      0x0100\n      exp\n      swap1\n      div\n      0xff\n      and\n        /* \"contracts/BlogRegistry.sol\":1604:1659  require(postDetails[cid].exists, \"Post does not exist\") */\n      tag_192\n      jumpi\n      mload(0x40)\n      0x08c379a000000000000000000000000000000000000000000000000000000000\n      dup2\n      mstore\n      0x04\n      add\n      tag_193\n      swap1\n      tag_136\n      jump\t// in\n    tag_193:\n      mload(0x40)\n      dup1\n      swap2\n      sub\n      swap1\n      revert\n    tag_192:\n        /* \"contracts/BlogRegistry.sol\":1676:1687  postDetails */\n      0x02\n        /* \"contracts/BlogRegistry.sol\":1688:1691  cid */\n      dup3\n        /* \"contracts/BlogRegistry.sol\":1676:1692  postDetails[cid] */\n      mload(0x40)\n      tag_194\n      swap2\n      swap1\n      tag_73\n      jump\t// in\n    tag_194:\n      swap1\n      dup2\n      mstore\n      0x20\n      add\n      mload(0x40)\n      dup1\n      swap2\n      sub\n      swap1\n      keccak256\n        /* \"contracts/BlogRegistry.sol\":1669:1692  return postDetails[cid] */\n      mload(0x40)\n      dup1\n      0x80\n      add\n      0x40\n      mstore\n      swap1\n      dup2\n      0x00\n      dup3\n      add\n      dup1\n      sload\n      tag_195\n      swap1\n      tag_127\n      jump\t// in\n    tag_195:\n      dup1\n      0x1f\n      add\n      0x20\n      dup1\n      swap2\n      div\n      mul\n      0x20\n      add\n      mload(0x40)\n      swap1\n      dup2\n      add\n      0x40\n      mstore\n      dup1\n      swap3\n      swap2\n      swap1\n      dup2\n      dup2\n      mstore\n      0x20\n      add\n      dup3\n      dup1\n      sload\n      tag_196\n      swap1\n      tag_127\n      jump\t// in\n    tag_196:\n      dup1\n      iszero\n      tag_197\n      jumpi\n      dup1\n      0x1f\n      lt\n      tag_198\n      jumpi\n      0x0100\n      dup1\n      dup4\n      sload\n      div\n      mul\n      dup4\n      mstore\n      swap2\n      0x20\n      add\n      swap2\n      jump(tag_197)\n    tag_198:\n      dup3\n      add\n      swap2\n      swap1\n      0x00\n      mstore\n      keccak256(0x00, 0x20)\n      swap1\n    tag_199:\n      dup2\n      sload\n      dup2\n      mstore\n      swap1\n      0x01\n      add\n      swap1\n      0x20\n      add\n      dup1\n      dup4\n      gt\n      tag_199\n      jumpi\n      dup3\n      swap1\n      sub\n      0x1f\n      and\n      dup3\n      add\n      swap2\n    tag_197:\n      pop\n      pop\n      pop\n      pop\n      pop\n      dup2\n      mstore\n      0x20\n      add\n      0x01\n      dup3\n      add\n      0x00\n      swap1\n      sload\n      swap1\n      0x0100\n      exp\n      swap1\n      div\n      0xffffffffffffffffffffffffffffffffffffffff\n      and\n      0xffffffffffffffffffffffffffffffffffffffff\n      and\n      0xffffffffffffffffffffffffffffffffffffffff\n      and\n      dup2\n      mstore\n      0x20\n      add\n      0x02\n      dup3\n      add\n      sload\n      dup2\n      mstore\n      0x20\n      add\n      0x03\n      dup3\n      add\n      0x00\n      swap1\n      sload\n      swap1\n      0x0100\n      exp\n      swap1\n      div\n      0xff\n      and\n      iszero\n      iszero\n      iszero\n      iszero\n      dup2\n      mstore\n      pop\n      pop\n      swap1\n      pop\n        /* \"contracts/BlogRegistry.sol\":1516:1699  function getPostInfo(string memory cid) public view returns (PostInfo memory) {... */\n      swap2\n      swap1\n      pop\n      jump\t// out\n        /* \"contracts/BlogRegistry.sol\":136:160  string[] public allPosts */\n    tag_42:\n      0x01\n      dup2\n      dup2\n      sload\n      dup2\n      lt\n      tag_200\n      jumpi\n      0x00\n      dup1\n      revert\n    tag_200:\n      swap1\n      0x00\n      mstore\n      keccak256(0x00, 0x20)\n      add\n      0x00\n      swap2\n      pop\n      swap1\n      pop\n      dup1\n      sload\n      tag_202\n      swap1\n      tag_127\n      jump\t// in\n    tag_202:\n      dup1\n      0x1f\n      add\n      0x20\n      dup1\n      swap2\n      div\n      mul\n      0x20\n      add\n      mload(0x40)\n      swap1\n      dup2\n      add\n      0x40\n      mstore\n      dup1\n      swap3\n      swap2\n      swap1\n      dup2\n      dup2\n      mstore\n      0x20\n      add\n      dup3\n      dup1\n      sload\n      tag_203\n      swap1\n      tag_127\n      jump\t// in\n    tag_203:\n      dup1\n      iszero\n      tag_204\n      jumpi\n      dup1\n      0x1f\n      lt\n      tag_205\n      jumpi\n      0x0100\n      dup1\n      dup4\n      sload\n      div\n      mul\n      dup4\n      mstore\n      swap2\n      0x20\n      add\n      swap2\n      jump(tag_204)\n    tag_205:\n      dup3\n      add\n      swap2\n      swap1\n      0x00\n      mstore\n      keccak256(0x00, 0x20)\n      swap1\n    tag_206:\n      dup2\n      sload\n      dup2\n      mstore\n      swap1\n      0x01\n      add\n      swap1\n      0x20\n      add\n      dup1\n      dup4\n      gt\n      tag_206\n      jumpi\n      dup3\n      swap1\n      sub\n      0x1f\n      and\n      dup3\n      add\n      swap2\n    tag_204:\n      pop\n      pop\n      pop\n      pop\n      pop\n      dup2\n      jump\t// out\n        /* \"contracts/BlogRegistry.sol\":85:130  mapping(address => string[]) public userPosts */\n    tag_48:\n      mstore(0x20, 0x00)\n      dup2\n      0x00\n      mstore\n      keccak256(0x00, 0x40)\n      dup2\n      dup2\n      sload\n      dup2\n      lt\n      tag_207\n      jumpi\n      0x00\n      dup1\n      revert\n    tag_207:\n      swap1\n      0x00\n      mstore\n      keccak256(0x00, 0x20)\n      add\n      0x00\n      swap2\n      pop\n      swap2\n      pop\n      pop\n      dup1\n      sload\n      tag_209\n      swap1\n      tag_127\n      jump\t// in\n    tag_209:\n      dup1\n      0x1f\n      add\n      0x20\n      dup1\n      swap2\n      div\n      mul\n      0x20\n      add\n      mload(0x40)\n      swap1\n      dup2\n      add\n      0x40\n      mstore\n      dup1\n      swap3\n      swap2\n      swap1\n      dup2\n      dup2\n      mstore\n      0x20\n      add\n      dup3\n      dup1\n      sload\n      tag_210\n      swap1\n      tag_127\n      jump\t// in\n    tag_210:\n      dup1\n      iszero\n      tag_211\n      jumpi\n      dup1\n      0x1f\n      lt\n      tag_212\n      jumpi\n      0x0100\n      dup1\n      dup4\n      sload\n      div\n      mul\n      dup4\n      mstore\n      swap2\n      0x20\n      add\n      swap2\n      jump(tag_211)\n    tag_212:\n      dup3\n      add\n      swap2\n      swap1\n      0x00\n      mstore\n      keccak256(0x00, 0x20)\n      swap1\n    tag_213:\n      dup2\n      sload\n      dup2\n      mstore\n      swap1\n      0x01\n      add\n      swap1\n      0x20\n      add\n      dup1\n      dup4\n      gt\n      tag_213\n      jumpi\n      dup3\n      swap1\n      sub\n      0x1f\n      and\n      dup3\n      add\n      swap2\n    tag_211:\n      pop\n      pop\n      pop\n      pop\n      pop\n      dup2\n      jump\t// out\n        /* \"contracts/BlogRegistry.sol\":613:1177  function registerPost(string memory cid) public {... */\n    tag_52:\n        /* \"contracts/BlogRegistry.sol\":699:700  0 */\n      0x00\n        /* \"contracts/BlogRegistry.sol\":685:688  cid */\n      dup2\n        /* \"contracts/BlogRegistry.sol\":679:696  bytes(cid).length */\n      mload\n        /* \"contracts/BlogRegistry.sol\":679:700  bytes(cid).length > 0 */\n      gt\n        /* \"contracts/BlogRegistry.sol\":671:724  require(bytes(cid).length > 0, \"CID cannot be empty\") */\n      tag_215\n      jumpi\n      mload(0x40)\n      0x08c379a000000000000000000000000000000000000000000000000000000000\n      dup2\n      mstore\n      0x04\n      add\n      tag_216\n      swap1\n      tag_217\n      jump\t// in\n    tag_216:\n      mload(0x40)\n      dup1\n      swap2\n      sub\n      swap1\n      revert\n    tag_215:\n        /* \"contracts/BlogRegistry.sol\":743:754  postDetails */\n      0x02\n        /* \"contracts/BlogRegistry.sol\":755:758  cid */\n      dup2\n        /* \"contracts/BlogRegistry.sol\":743:759  postDetails[cid] */\n      mload(0x40)\n      tag_218\n      swap2\n      swap1\n      tag_73\n      jump\t// in\n    tag_218:\n      swap1\n      dup2\n      mstore\n      0x20\n      add\n      mload(0x40)\n      dup1\n      swap2\n      sub\n      swap1\n      keccak256\n        /* \"contracts/BlogRegistry.sol\":743:766  postDetails[cid].exists */\n      0x03\n      add\n      0x00\n      swap1\n      sload\n      swap1\n      0x0100\n      exp\n      swap1\n      div\n      0xff\n      and\n        /* \"contracts/BlogRegistry.sol\":742:766  !postDetails[cid].exists */\n      iszero\n        /* \"contracts/BlogRegistry.sol\":734:790  require(!postDetails[cid].exists, \"Post already exists\") */\n      tag_219\n      jumpi\n      mload(0x40)\n      0x08c379a000000000000000000000000000000000000000000000000000000000\n      dup2\n      mstore\n      0x04\n      add\n      tag_220\n      swap1\n      tag_221\n      jump\t// in\n    tag_220:\n      mload(0x40)\n      dup1\n      swap2\n      sub\n      swap1\n      revert\n    tag_219:\n        /* \"contracts/BlogRegistry.sol\":818:841  PostInfo memory newPost */\n      0x00\n        /* \"contracts/BlogRegistry.sol\":844:984  PostInfo({... */\n      mload(0x40)\n      dup1\n      0x80\n      add\n      0x40\n      mstore\n      dup1\n        /* \"contracts/BlogRegistry.sol\":872:875  cid */\n      dup4\n        /* \"contracts/BlogRegistry.sol\":844:984  PostInfo({... */\n      dup2\n      mstore\n      0x20\n      add\n        /* \"contracts/BlogRegistry.sol\":897:907  msg.sender */\n      caller\n        /* \"contracts/BlogRegistry.sol\":844:984  PostInfo({... */\n      0xffffffffffffffffffffffffffffffffffffffff\n      and\n      dup2\n      mstore\n      0x20\n      add\n        /* \"contracts/BlogRegistry.sol\":932:947  block.timestamp */\n      timestamp\n        /* \"contracts/BlogRegistry.sol\":844:984  PostInfo({... */\n      dup2\n      mstore\n      0x20\n      add\n        /* \"contracts/BlogRegistry.sol\":969:973  true */\n      0x01\n        /* \"contracts/BlogRegistry.sol\":844:984  PostInfo({... */\n      iszero\n      iszero\n      dup2\n      mstore\n      pop\n        /* \"contracts/BlogRegistry.sol\":818:984  PostInfo memory newPost = PostInfo({... */\n      swap1\n      pop\n        /* \"contracts/BlogRegistry.sol\":1022:1029  newPost */\n      dup1\n        /* \"contracts/BlogRegistry.sol\":1003:1014  postDetails */\n      0x02\n        /* \"contracts/BlogRegistry.sol\":1015:1018  cid */\n      dup4\n        /* \"contracts/BlogRegistry.sol\":1003:1019  postDetails[cid] */\n      mload(0x40)\n      tag_222\n      swap2\n      swap1\n      tag_73\n      jump\t// in\n    tag_222:\n      swap1\n      dup2\n      mstore\n      0x20\n      add\n      mload(0x40)\n      dup1\n      swap2\n      sub\n      swap1\n      keccak256\n        /* \"contracts/BlogRegistry.sol\":1003:1029  postDetails[cid] = newPost */\n      0x00\n      dup3\n      add\n      mload\n      dup2\n      0x00\n      add\n      swap1\n      dup2\n      tag_223\n      swap2\n      swap1\n      tag_90\n      jump\t// in\n    tag_223:\n      pop\n      0x20\n      dup3\n      add\n      mload\n      dup2\n      0x01\n      add\n      exp(0x0100, 0x00)\n      dup2\n      sload\n      dup2\n      0xffffffffffffffffffffffffffffffffffffffff\n      mul\n      not\n      and\n      swap1\n      dup4\n      0xffffffffffffffffffffffffffffffffffffffff\n      and\n      mul\n      or\n      swap1\n      sstore\n      pop\n      0x40\n      dup3\n      add\n      mload\n      dup2\n      0x02\n      add\n      sstore\n      0x60\n      dup3\n      add\n      mload\n      dup2\n      0x03\n      add\n      exp(0x0100, 0x00)\n      dup2\n      sload\n      dup2\n      0xff\n      mul\n      not\n      and\n      swap1\n      dup4\n      iszero\n      iszero\n      mul\n      or\n      swap1\n      sstore\n      pop\n      swap1\n      pop\n      pop\n        /* \"contracts/BlogRegistry.sol\":1039:1048  userPosts */\n      0x00\n        /* \"contracts/BlogRegistry.sol\":1039:1060  userPosts[msg.sender] */\n      0x00\n        /* \"contracts/BlogRegistry.sol\":1049:1059  msg.sender */\n      caller\n        /* \"contracts/BlogRegistry.sol\":1039:1060  userPosts[msg.sender] */\n      0xffffffffffffffffffffffffffffffffffffffff\n      and\n      0xffffffffffffffffffffffffffffffffffffffff\n      and\n      dup2\n      mstore\n      0x20\n      add\n      swap1\n      dup2\n      mstore\n      0x20\n      add\n      0x00\n      keccak256\n        /* \"contracts/BlogRegistry.sol\":1066:1069  cid */\n      dup3\n        /* \"contracts/BlogRegistry.sol\":1039:1070  userPosts[msg.sender].push(cid) */\n      swap1\n      dup1\n      0x01\n      dup2\n      sload\n      add\n      dup1\n      dup3\n      sstore\n      dup1\n      swap2\n      pop\n      pop\n      0x01\n      swap1\n      sub\n      swap1\n      0x00\n      mstore\n      keccak256(0x00, 0x20)\n      add\n      0x00\n      swap1\n      swap2\n      swap1\n      swap2\n      swap1\n      swap2\n      pop\n      swap1\n      dup2\n      tag_225\n      swap2\n      swap1\n      tag_90\n      jump\t// in\n    tag_225:\n      pop\n        /* \"contracts/BlogRegistry.sol\":1080:1088  allPosts */\n      0x01\n        /* \"contracts/BlogRegistry.sol\":1094:1097  cid */\n      dup3\n        /* \"contracts/BlogRegistry.sol\":1080:1098  allPosts.push(cid) */\n      swap1\n      dup1\n      0x01\n      dup2\n      sload\n      add\n      dup1\n      dup3\n      sstore\n      dup1\n      swap2\n      pop\n      pop\n      0x01\n      swap1\n      sub\n      swap1\n      0x00\n      mstore\n      keccak256(0x00, 0x20)\n      add\n      0x00\n      swap1\n      swap2\n      swap1\n      swap2\n      swap1\n      swap2\n      pop\n      swap1\n      dup2\n      tag_227\n      swap2\n      swap1\n      tag_90\n      jump\t// in\n    tag_227:\n      pop\n        /* \"contracts/BlogRegistry.sol\":1137:1147  msg.sender */\n      caller\n        /* \"contracts/BlogRegistry.sol\":1122:1170  PostRegistered(msg.sender, cid, block.timestamp) */\n      0xffffffffffffffffffffffffffffffffffffffff\n      and\n      0xa4c9691af7ed58eb17243a52187f05a4173d9dd4bd79a27043a740a43b932713\n        /* \"contracts/BlogRegistry.sol\":1149:1152  cid */\n      dup4\n        /* \"contracts/BlogRegistry.sol\":1154:1169  block.timestamp */\n      timestamp\n        /* \"contracts/BlogRegistry.sol\":1122:1170  PostRegistered(msg.sender, cid, block.timestamp) */\n      mload(0x40)\n      tag_228\n      swap3\n      swap2\n      swap1\n      tag_187\n      jump\t// in\n    tag_228:\n      mload(0x40)\n      dup1\n      swap2\n      sub\n      swap1\n      log2\n        /* \"contracts/BlogRegistry.sol\":661:1177  {... */\n      pop\n        /* \"contracts/BlogRegistry.sol\":613:1177  function registerPost(string memory cid) public {... */\n      pop\n      jump\t// out\n        /* \"contracts/BlogRegistry.sol\":1187:1300  function getUserPosts(address user) public view returns (string[] memory) {... */\n    tag_55:\n        /* \"contracts/BlogRegistry.sol\":1244:1259  string[] memory */\n      0x60\n        /* \"contracts/BlogRegistry.sol\":1278:1287  userPosts */\n      0x00\n        /* \"contracts/BlogRegistry.sol\":1278:1293  userPosts[user] */\n      0x00\n        /* \"contracts/BlogRegistry.sol\":1288:1292  user */\n      dup4\n        /* \"contracts/BlogRegistry.sol\":1278:1293  userPosts[user] */\n      0xffffffffffffffffffffffffffffffffffffffff\n      and\n      0xffffffffffffffffffffffffffffffffffffffff\n      and\n      dup2\n      mstore\n      0x20\n      add\n      swap1\n      dup2\n      mstore\n      0x20\n      add\n      0x00\n      keccak256\n        /* \"contracts/BlogRegistry.sol\":1271:1293  return userPosts[user] */\n      dup1\n      sload\n      dup1\n      0x20\n      mul\n      0x20\n      add\n      mload(0x40)\n      swap1\n      dup2\n      add\n      0x40\n      mstore\n      dup1\n      swap3\n      swap2\n      swap1\n      dup2\n      dup2\n      mstore\n      0x20\n      add\n      0x00\n      swap1\n    tag_230:\n      dup3\n      dup3\n      lt\n      iszero\n      tag_231\n      jumpi\n      dup4\n      dup3\n      swap1\n      0x00\n      mstore\n      keccak256(0x00, 0x20)\n      add\n      dup1\n      sload\n      tag_233\n      swap1\n      tag_127\n      jump\t// in\n    tag_233:\n      dup1\n      0x1f\n      add\n      0x20\n      dup1\n      swap2\n      div\n      mul\n      0x20\n      add\n      mload(0x40)\n      swap1\n      dup2\n      add\n      0x40\n      mstore\n      dup1\n      swap3\n      swap2\n      swap1\n      dup2\n      dup2\n      mstore\n      0x20\n      add\n      dup3\n      dup1\n      sload\n      tag_234\n      swap1\n      tag_127\n      jump\t// in\n    tag_234:\n      dup1\n      iszero\n      tag_235\n      jumpi\n      dup1\n      0x1f\n      lt\n      tag_236\n      jumpi\n      0x0100\n      dup1\n      dup4\n      sload\n      div\n      mul\n      dup4\n      mstore\n      swap2\n      0x20\n      add\n      swap2\n      jump(tag_235)\n    tag_236:\n      dup3\n      add\n      swap2\n      swap1\n      0x00\n      mstore\n      keccak256(0x00, 0x20)\n      swap1\n    tag_237:\n      dup2\n      sload\n      dup2\n      mstore\n      swap1\n      0x01\n      add\n      swap1\n      0x20\n      add\n      dup1\n      dup4\n      gt\n      tag_237\n      jumpi\n      dup3\n      swap1\n      sub\n      0x1f\n      and\n      dup3\n      add\n      swap2\n    tag_235:\n      pop\n      pop\n      pop\n      pop\n      pop\n      dup2\n      mstore\n      0x20\n      add\n      swap1\n      0x01\n      add\n      swap1\n      jump(tag_230)\n    tag_231:\n      pop\n      pop\n      pop\n      pop\n      swap1\n      pop\n        /* \"contracts/BlogRegistry.sol\":1187:1300  function getUserPosts(address user) public view returns (string[] memory) {... */\n      swap2\n      swap1\n      pop\n      jump\t// out\n        /* \"contracts/BlogRegistry.sol\":1413:1506  function getPostCount() public view returns (uint256) {... */\n    tag_58:\n        /* \"contracts/BlogRegistry.sol\":1458:1465  uint256 */\n      0x00\n        /* \"contracts/BlogRegistry.sol\":1484:1492  allPosts */\n      0x01\n        /* \"contracts/BlogRegistry.sol\":1484:1499  allPosts.length */\n      dup1\n      sload\n      swap1\n      pop\n        /* \"contracts/BlogRegistry.sol\":1477:1499  return allPosts.length */\n      swap1\n      pop\n        /* \"contracts/BlogRegistry.sol\":1413:1506  function getPostCount() public view returns (uint256) {... */\n      swap1\n      jump\t// out\n        /* \"contracts/BlogRegistry.sol\":4084:4197  function postExists(string memory cid) public view returns (bool) {... */\n    tag_62:\n        /* \"contracts/BlogRegistry.sol\":4144:4148  bool */\n      0x00\n        /* \"contracts/BlogRegistry.sol\":4167:4178  postDetails */\n      0x02\n        /* \"contracts/BlogRegistry.sol\":4179:4182  cid */\n      dup3\n        /* \"contracts/BlogRegistry.sol\":4167:4183  postDetails[cid] */\n      mload(0x40)\n      tag_240\n      swap2\n      swap1\n      tag_73\n      jump\t// in\n    tag_240:\n      swap1\n      dup2\n      mstore\n      0x20\n      add\n      mload(0x40)\n      dup1\n      swap2\n      sub\n      swap1\n      keccak256\n        /* \"contracts/BlogRegistry.sol\":4167:4190  postDetails[cid].exists */\n      0x03\n      add\n      0x00\n      swap1\n      sload\n      swap1\n      0x0100\n      exp\n      swap1\n      div\n      0xff\n      and\n        /* \"contracts/BlogRegistry.sol\":4160:4190  return postDetails[cid].exists */\n      swap1\n      pop\n        /* \"contracts/BlogRegistry.sol\":4084:4197  function postExists(string memory cid) public view returns (bool) {... */\n      swap2\n      swap1\n      pop\n      jump\t// out\n        /* \"contracts/BlogRegistry.sol\":296:342  mapping(string => PostInfo) public postDetails */\n    tag_67:\n      0x02\n      dup2\n      dup1\n      mload\n      0x20\n      dup2\n      add\n      dup3\n      add\n      dup1\n      mload\n      dup5\n      dup3\n      mstore\n      0x20\n      dup4\n      add\n      0x20\n      dup6\n      add\n      keccak256\n      dup2\n      dup4\n      mstore\n      dup1\n      swap6\n      pop\n      pop\n      pop\n      pop\n      pop\n      pop\n      0x00\n      swap2\n      pop\n      swap1\n      pop\n      dup1\n      0x00\n      add\n      dup1\n      sload\n      tag_241\n      swap1\n      tag_127\n      jump\t// in\n    tag_241:\n      dup1\n      0x1f\n      add\n      0x20\n      dup1\n      swap2\n      div\n      mul\n      0x20\n      add\n      mload(0x40)\n      swap1\n      dup2\n      add\n      0x40\n      mstore\n      dup1\n      swap3\n      swap2\n      swap1\n      dup2\n      dup2\n      mstore\n      0x20\n      add\n      dup3\n      dup1\n      sload\n      tag_242\n      swap1\n      tag_127\n      jump\t// in\n    tag_242:\n      dup1\n      iszero\n      tag_243\n      jumpi\n      dup1\n      0x1f\n      lt\n      tag_244\n      jumpi\n      0x0100\n      dup1\n      dup4\n      sload\n      div\n      mul\n      dup4\n      mstore\n      swap2\n      0x20\n      add\n      swap2\n      jump(tag_243)\n    tag_244:\n      dup3\n      add\n      swap2\n      swap1\n      0x00\n      mstore\n      keccak256(0x00, 0x20)\n      swap1\n    tag_245:\n      dup2\n      sload\n      dup2\n      mstore\n      swap1\n      0x01\n      add\n      swap1\n      0x20\n      add\n      dup1\n      dup4\n      gt\n      tag_245\n      jumpi\n      dup3\n      swap1\n      sub\n      0x1f\n      and\n      dup3\n      add\n      swap2\n    tag_243:\n      pop\n      pop\n      pop\n      pop\n      pop\n      swap1\n      dup1\n      0x01\n      add\n      0x00\n      swap1\n      sload\n      swap1\n      0x0100\n      exp\n      swap1\n      div\n      0xffffffffffffffffffffffffffffffffffffffff\n      and\n      swap1\n      dup1\n      0x02\n      add\n      sload\n      swap1\n      dup1\n      0x03\n      add\n      0x00\n      swap1\n      sload\n      swap1\n      0x0100\n      exp\n      swap1\n      div\n      0xff\n      and\n      swap1\n      pop\n      dup5\n      jump\t// out\n    tag_119:\n      pop\n      dup1\n      sload\n      tag_246\n      swap1\n      tag_127\n      jump\t// in\n    tag_246:\n      0x00\n      dup3\n      sstore\n      dup1\n      0x1f\n      lt\n      tag_248\n      jumpi\n      pop\n      jump(tag_247)\n    tag_248:\n      0x1f\n      add\n      0x20\n      swap1\n      div\n      swap1\n      0x00\n      mstore\n      keccak256(0x00, 0x20)\n      swap1\n      dup2\n      add\n      swap1\n      tag_249\n      swap2\n      swap1\n      tag_250\n      jump\t// in\n    tag_249:\n    tag_247:\n      pop\n      jump\t// out\n    tag_189:\n      mload(0x40)\n      dup1\n      0x80\n      add\n      0x40\n      mstore\n      dup1\n      0x60\n      dup2\n      mstore\n      0x20\n      add\n      and(0xffffffffffffffffffffffffffffffffffffffff, 0x00)\n      dup2\n      mstore\n      0x20\n      add\n      0x00\n      dup2\n      mstore\n      0x20\n      add\n      iszero(iszero(0x00))\n      dup2\n      mstore\n      pop\n      swap1\n      jump\t// out\n    tag_250:\n    tag_251:\n      dup1\n      dup3\n      gt\n      iszero\n      tag_252\n      jumpi\n      0x00\n      dup2\n      0x00\n      swap1\n      sstore\n      pop\n      0x01\n      add\n      jump(tag_251)\n    tag_252:\n      pop\n      swap1\n      jump\t// out\n        /* \"#utility.yul\":7:82   */\n    tag_253:\n        /* \"#utility.yul\":40:46   */\n      0x00\n        /* \"#utility.yul\":73:75   */\n      0x40\n        /* \"#utility.yul\":67:76   */\n      mload\n        /* \"#utility.yul\":57:76   */\n      swap1\n      pop\n        /* \"#utility.yul\":7:82   */\n      swap1\n      jump\t// out\n        /* \"#utility.yul\":88:205   */\n    tag_254:\n        /* \"#utility.yul\":197:198   */\n      0x00\n        /* \"#utility.yul\":194:195   */\n      0x00\n        /* \"#utility.yul\":187:199   */\n      revert\n        /* \"#utility.yul\":211:328   */\n    tag_255:\n        /* \"#utility.yul\":320:321   */\n      0x00\n        /* \"#utility.yul\":317:318   */\n      0x00\n        /* \"#utility.yul\":310:322   */\n      revert\n        /* \"#utility.yul\":334:460   */\n    tag_256:\n        /* \"#utility.yul\":371:378   */\n      0x00\n        /* \"#utility.yul\":411:453   */\n      0xffffffffffffffffffffffffffffffffffffffff\n        /* \"#utility.yul\":404:409   */\n      dup3\n        /* \"#utility.yul\":400:454   */\n      and\n        /* \"#utility.yul\":389:454   */\n      swap1\n      pop\n        /* \"#utility.yul\":334:460   */\n      swap2\n      swap1\n      pop\n      jump\t// out\n        /* \"#utility.yul\":466:562   */\n    tag_257:\n        /* \"#utility.yul\":503:510   */\n      0x00\n        /* \"#utility.yul\":532:556   */\n      tag_339\n        /* \"#utility.yul\":550:555   */\n      dup3\n        /* \"#utility.yul\":532:556   */\n      tag_256\n      jump\t// in\n    tag_339:\n        /* \"#utility.yul\":521:556   */\n      swap1\n      pop\n        /* \"#utility.yul\":466:562   */\n      swap2\n      swap1\n      pop\n      jump\t// out\n        /* \"#utility.yul\":568:690   */\n    tag_258:\n        /* \"#utility.yul\":641:665   */\n      tag_341\n        /* \"#utility.yul\":659:664   */\n      dup2\n        /* \"#utility.yul\":641:665   */\n      tag_257\n      jump\t// in\n    tag_341:\n        /* \"#utility.yul\":634:639   */\n      dup2\n        /* \"#utility.yul\":631:666   */\n      eq\n        /* \"#utility.yul\":621:684   */\n      tag_342\n      jumpi\n        /* \"#utility.yul\":680:681   */\n      0x00\n        /* \"#utility.yul\":677:678   */\n      0x00\n        /* \"#utility.yul\":670:682   */\n      revert\n        /* \"#utility.yul\":621:684   */\n    tag_342:\n        /* \"#utility.yul\":568:690   */\n      pop\n      jump\t// out\n        /* \"#utility.yul\":696:835   */\n    tag_259:\n        /* \"#utility.yul\":742:747   */\n      0x00\n        /* \"#utility.yul\":780:786   */\n      dup2\n        /* \"#utility.yul\":767:787   */\n      calldataload\n        /* \"#utility.yul\":758:787   */\n      swap1\n      pop\n        /* \"#utility.yul\":796:829   */\n      tag_344\n        /* \"#utility.yul\":823:828   */\n      dup2\n        /* \"#utility.yul\":796:829   */\n      tag_258\n      jump\t// in\n    tag_344:\n        /* \"#utility.yul\":696:835   */\n      swap3\n      swap2\n      pop\n      pop\n      jump\t// out\n        /* \"#utility.yul\":841:1170   */\n    tag_18:\n        /* \"#utility.yul\":900:906   */\n      0x00\n        /* \"#utility.yul\":949:951   */\n      0x20\n        /* \"#utility.yul\":937:946   */\n      dup3\n        /* \"#utility.yul\":928:935   */\n      dup5\n        /* \"#utility.yul\":924:947   */\n      sub\n        /* \"#utility.yul\":920:952   */\n      slt\n        /* \"#utility.yul\":917:1036   */\n      iszero\n      tag_346\n      jumpi\n        /* \"#utility.yul\":955:1034   */\n      tag_347\n      tag_254\n      jump\t// in\n    tag_347:\n        /* \"#utility.yul\":917:1036   */\n    tag_346:\n        /* \"#utility.yul\":1075:1076   */\n      0x00\n        /* \"#utility.yul\":1100:1153   */\n      tag_348\n        /* \"#utility.yul\":1145:1152   */\n      dup5\n        /* \"#utility.yul\":1136:1142   */\n      dup3\n        /* \"#utility.yul\":1125:1134   */\n      dup6\n        /* \"#utility.yul\":1121:1143   */\n      add\n        /* \"#utility.yul\":1100:1153   */\n      tag_259\n      jump\t// in\n    tag_348:\n        /* \"#utility.yul\":1090:1153   */\n      swap2\n      pop\n        /* \"#utility.yul\":1046:1163   */\n      pop\n        /* \"#utility.yul\":841:1170   */\n      swap3\n      swap2\n      pop\n      pop\n      jump\t// out\n        /* \"#utility.yul\":1176:1253   */\n    tag_260:\n        /* \"#utility.yul\":1213:1220   */\n      0x00\n        /* \"#utility.yul\":1242:1247   */\n      dup2\n        /* \"#utility.yul\":1231:1247   */\n      swap1\n      pop\n        /* \"#utility.yul\":1176:1253   */\n      swap2\n      swap1\n      pop\n      jump\t// out\n        /* \"#utility.yul\":1259:1377   */\n    tag_261:\n        /* \"#utility.yul\":1346:1370   */\n      tag_351\n        /* \"#utility.yul\":1364:1369   */\n      dup2\n        /* \"#utility.yul\":1346:1370   */\n      tag_260\n      jump\t// in\n    tag_351:\n        /* \"#utility.yul\":1341:1344   */\n      dup3\n        /* \"#utility.yul\":1334:1371   */\n      mstore\n        /* \"#utility.yul\":1259:1377   */\n      pop\n      pop\n      jump\t// out\n        /* \"#utility.yul\":1383:1605   */\n    tag_21:\n        /* \"#utility.yul\":1476:1480   */\n      0x00\n        /* \"#utility.yul\":1514:1516   */\n      0x20\n        /* \"#utility.yul\":1503:1512   */\n      dup3\n        /* \"#utility.yul\":1499:1517   */\n      add\n        /* \"#utility.yul\":1491:1517   */\n      swap1\n      pop\n        /* \"#utility.yul\":1527:1598   */\n      tag_353\n        /* \"#utility.yul\":1595:1596   */\n      0x00\n        /* \"#utility.yul\":1584:1593   */\n      dup4\n        /* \"#utility.yul\":1580:1597   */\n      add\n        /* \"#utility.yul\":1571:1577   */\n      dup5\n        /* \"#utility.yul\":1527:1598   */\n      tag_261\n      jump\t// in\n    tag_353:\n        /* \"#utility.yul\":1383:1605   */\n      swap3\n      swap2\n      pop\n      pop\n      jump\t// out\n        /* \"#utility.yul\":1611:1728   */\n    tag_262:\n        /* \"#utility.yul\":1720:1721   */\n      0x00\n        /* \"#utility.yul\":1717:1718   */\n      0x00\n        /* \"#utility.yul\":1710:1722   */\n      revert\n        /* \"#utility.yul\":1734:1851   */\n    tag_263:\n        /* \"#utility.yul\":1843:1844   */\n      0x00\n        /* \"#utility.yul\":1840:1841   */\n      0x00\n        /* \"#utility.yul\":1833:1845   */\n      revert\n        /* \"#utility.yul\":1857:1959   */\n    tag_264:\n        /* \"#utility.yul\":1898:1904   */\n      0x00\n        /* \"#utility.yul\":1949:1951   */\n      0x1f\n        /* \"#utility.yul\":1945:1952   */\n      not\n        /* \"#utility.yul\":1940:1942   */\n      0x1f\n        /* \"#utility.yul\":1933:1938   */\n      dup4\n        /* \"#utility.yul\":1929:1943   */\n      add\n        /* \"#utility.yul\":1925:1953   */\n      and\n        /* \"#utility.yul\":1915:1953   */\n      swap1\n      pop\n        /* \"#utility.yul\":1857:1959   */\n      swap2\n      swap1\n      pop\n      jump\t// out\n        /* \"#utility.yul\":1965:2145   */\n    tag_265:\n        /* \"#utility.yul\":2013:2090   */\n      0x4e487b7100000000000000000000000000000000000000000000000000000000\n        /* \"#utility.yul\":2010:2011   */\n      0x00\n        /* \"#utility.yul\":2003:2091   */\n      mstore\n        /* \"#utility.yul\":2110:2114   */\n      0x41\n        /* \"#utility.yul\":2107:2108   */\n      0x04\n        /* \"#utility.yul\":2100:2115   */\n      mstore\n        /* \"#utility.yul\":2134:2138   */\n      0x24\n        /* \"#utility.yul\":2131:2132   */\n      0x00\n        /* \"#utility.yul\":2124:2139   */\n      revert\n        /* \"#utility.yul\":2151:2432   */\n    tag_266:\n        /* \"#utility.yul\":2234:2261   */\n      tag_359\n        /* \"#utility.yul\":2256:2260   */\n      dup3\n        /* \"#utility.yul\":2234:2261   */\n      tag_264\n      jump\t// in\n    tag_359:\n        /* \"#utility.yul\":2226:2232   */\n      dup2\n        /* \"#utility.yul\":2222:2262   */\n      add\n        /* \"#utility.yul\":2364:2370   */\n      dup2\n        /* \"#utility.yul\":2352:2362   */\n      dup2\n        /* \"#utility.yul\":2349:2371   */\n      lt\n        /* \"#utility.yul\":2328:2346   */\n      0xffffffffffffffff\n        /* \"#utility.yul\":2316:2326   */\n      dup3\n        /* \"#utility.yul\":2313:2347   */\n      gt\n        /* \"#utility.yul\":2310:2372   */\n      or\n        /* \"#utility.yul\":2307:2395   */\n      iszero\n      tag_360\n      jumpi\n        /* \"#utility.yul\":2375:2393   */\n      tag_361\n      tag_265\n      jump\t// in\n    tag_361:\n        /* \"#utility.yul\":2307:2395   */\n    tag_360:\n        /* \"#utility.yul\":2415:2425   */\n      dup1\n        /* \"#utility.yul\":2411:2413   */\n      0x40\n        /* \"#utility.yul\":2404:2426   */\n      mstore\n        /* \"#utility.yul\":2194:2432   */\n      pop\n        /* \"#utility.yul\":2151:2432   */\n      pop\n      pop\n      jump\t// out\n        /* \"#utility.yul\":2438:2567   */\n    tag_267:\n        /* \"#utility.yul\":2472:2478   */\n      0x00\n        /* \"#utility.yul\":2499:2519   */\n      tag_363\n      tag_253\n      jump\t// in\n    tag_363:\n        /* \"#utility.yul\":2489:2519   */\n      swap1\n      pop\n        /* \"#utility.yul\":2528:2561   */\n      tag_364\n        /* \"#utility.yul\":2556:2560   */\n      dup3\n        /* \"#utility.yul\":2548:2554   */\n      dup3\n        /* \"#utility.yul\":2528:2561   */\n      tag_266\n      jump\t// in\n    tag_364:\n        /* \"#utility.yul\":2438:2567   */\n      swap2\n      swap1\n      pop\n      jump\t// out\n        /* \"#utility.yul\":2573:2881   */\n    tag_268:\n        /* \"#utility.yul\":2635:2639   */\n      0x00\n        /* \"#utility.yul\":2725:2743   */\n      0xffffffffffffffff\n        /* \"#utility.yul\":2717:2723   */\n      dup3\n        /* \"#utility.yul\":2714:2744   */\n      gt\n        /* \"#utility.yul\":2711:2767   */\n      iszero\n      tag_366\n      jumpi\n        /* \"#utility.yul\":2747:2765   */\n      tag_367\n      tag_265\n      jump\t// in\n    tag_367:\n        /* \"#utility.yul\":2711:2767   */\n    tag_366:\n        /* \"#utility.yul\":2785:2814   */\n      tag_368\n        /* \"#utility.yul\":2807:2813   */\n      dup3\n        /* \"#utility.yul\":2785:2814   */\n      tag_264\n      jump\t// in\n    tag_368:\n        /* \"#utility.yul\":2777:2814   */\n      swap1\n      pop\n        /* \"#utility.yul\":2869:2873   */\n      0x20\n        /* \"#utility.yul\":2863:2867   */\n      dup2\n        /* \"#utility.yul\":2859:2874   */\n      add\n        /* \"#utility.yul\":2851:2874   */\n      swap1\n      pop\n        /* \"#utility.yul\":2573:2881   */\n      swap2\n      swap1\n      pop\n      jump\t// out\n        /* \"#utility.yul\":2887:3035   */\n    tag_269:\n        /* \"#utility.yul\":2985:2991   */\n      dup3\n        /* \"#utility.yul\":2980:2983   */\n      dup2\n        /* \"#utility.yul\":2975:2978   */\n      dup4\n        /* \"#utility.yul\":2962:2992   */\n      calldatacopy\n        /* \"#utility.yul\":3026:3027   */\n      0x00\n        /* \"#utility.yul\":3017:3023   */\n      dup4\n        /* \"#utility.yul\":3012:3015   */\n      dup4\n        /* \"#utility.yul\":3008:3024   */\n      add\n        /* \"#utility.yul\":3001:3028   */\n      mstore\n        /* \"#utility.yul\":2887:3035   */\n      pop\n      pop\n      pop\n      jump\t// out\n        /* \"#utility.yul\":3041:3466   */\n    tag_270:\n        /* \"#utility.yul\":3119:3124   */\n      0x00\n        /* \"#utility.yul\":3144:3210   */\n      tag_371\n        /* \"#utility.yul\":3160:3209   */\n      tag_372\n        /* \"#utility.yul\":3202:3208   */\n      dup5\n        /* \"#utility.yul\":3160:3209   */\n      tag_268\n      jump\t// in\n    tag_372:\n        /* \"#utility.yul\":3144:3210   */\n      tag_267\n      jump\t// in\n    tag_371:\n        /* \"#utility.yul\":3135:3210   */\n      swap1\n      pop\n        /* \"#utility.yul\":3233:3239   */\n      dup3\n        /* \"#utility.yul\":3226:3231   */\n      dup2\n        /* \"#utility.yul\":3219:3240   */\n      mstore\n        /* \"#utility.yul\":3271:3275   */\n      0x20\n        /* \"#utility.yul\":3264:3269   */\n      dup2\n        /* \"#utility.yul\":3260:3276   */\n      add\n        /* \"#utility.yul\":3309:3312   */\n      dup5\n        /* \"#utility.yul\":3300:3306   */\n      dup5\n        /* \"#utility.yul\":3295:3298   */\n      dup5\n        /* \"#utility.yul\":3291:3307   */\n      add\n        /* \"#utility.yul\":3288:3313   */\n      gt\n        /* \"#utility.yul\":3285:3397   */\n      iszero\n      tag_373\n      jumpi\n        /* \"#utility.yul\":3316:3395   */\n      tag_374\n      tag_263\n      jump\t// in\n    tag_374:\n        /* \"#utility.yul\":3285:3397   */\n    tag_373:\n        /* \"#utility.yul\":3406:3460   */\n      tag_375\n        /* \"#utility.yul\":3453:3459   */\n      dup5\n        /* \"#utility.yul\":3448:3451   */\n      dup3\n        /* \"#utility.yul\":3443:3446   */\n      dup6\n        /* \"#utility.yul\":3406:3460   */\n      tag_269\n      jump\t// in\n    tag_375:\n        /* \"#utility.yul\":3125:3466   */\n      pop\n        /* \"#utility.yul\":3041:3466   */\n      swap4\n      swap3\n      pop\n      pop\n      pop\n      jump\t// out\n        /* \"#utility.yul\":3486:3826   */\n    tag_271:\n        /* \"#utility.yul\":3542:3547   */\n      0x00\n        /* \"#utility.yul\":3591:3594   */\n      dup3\n        /* \"#utility.yul\":3584:3588   */\n      0x1f\n        /* \"#utility.yul\":3576:3582   */\n      dup4\n        /* \"#utility.yul\":3572:3589   */\n      add\n        /* \"#utility.yul\":3568:3595   */\n      slt\n        /* \"#utility.yul\":3558:3680   */\n      tag_377\n      jumpi\n        /* \"#utility.yul\":3599:3678   */\n      tag_378\n      tag_262\n      jump\t// in\n    tag_378:\n        /* \"#utility.yul\":3558:3680   */\n    tag_377:\n        /* \"#utility.yul\":3716:3722   */\n      dup2\n        /* \"#utility.yul\":3703:3723   */\n      calldataload\n        /* \"#utility.yul\":3741:3820   */\n      tag_379\n        /* \"#utility.yul\":3816:3819   */\n      dup5\n        /* \"#utility.yul\":3808:3814   */\n      dup3\n        /* \"#utility.yul\":3801:3805   */\n      0x20\n        /* \"#utility.yul\":3793:3799   */\n      dup7\n        /* \"#utility.yul\":3789:3806   */\n      add\n        /* \"#utility.yul\":3741:3820   */\n      tag_270\n      jump\t// in\n    tag_379:\n        /* \"#utility.yul\":3732:3820   */\n      swap2\n      pop\n        /* \"#utility.yul\":3548:3826   */\n      pop\n        /* \"#utility.yul\":3486:3826   */\n      swap3\n      swap2\n      pop\n      pop\n      jump\t// out\n        /* \"#utility.yul\":3832:4666   */\n    tag_24:\n        /* \"#utility.yul\":3920:3926   */\n      0x00\n        /* \"#utility.yul\":3928:3934   */\n      0x00\n        /* \"#utility.yul\":3977:3979   */\n      0x40\n        /* \"#utility.yul\":3965:3974   */\n      dup4\n        /* \"#utility.yul\":3956:3963   */\n      dup6\n        /* \"#utility.yul\":3952:3975   */\n      sub\n        /* \"#utility.yul\":3948:3980   */\n      slt\n        /* \"#utility.yul\":3945:4064   */\n      iszero\n      tag_381\n      jumpi\n        /* \"#utility.yul\":3983:4062   */\n      tag_382\n      tag_254\n      jump\t// in\n    tag_382:\n        /* \"#utility.yul\":3945:4064   */\n    tag_381:\n        /* \"#utility.yul\":4131:4132   */\n      0x00\n        /* \"#utility.yul\":4120:4129   */\n      dup4\n        /* \"#utility.yul\":4116:4133   */\n      add\n        /* \"#utility.yul\":4103:4134   */\n      calldataload\n        /* \"#utility.yul\":4161:4179   */\n      0xffffffffffffffff\n        /* \"#utility.yul\":4153:4159   */\n      dup2\n        /* \"#utility.yul\":4150:4180   */\n      gt\n        /* \"#utility.yul\":4147:4264   */\n      iszero\n      tag_383\n      jumpi\n        /* \"#utility.yul\":4183:4262   */\n      tag_384\n      tag_255\n      jump\t// in\n    tag_384:\n        /* \"#utility.yul\":4147:4264   */\n    tag_383:\n        /* \"#utility.yul\":4288:4351   */\n      tag_385\n        /* \"#utility.yul\":4343:4350   */\n      dup6\n        /* \"#utility.yul\":4334:4340   */\n      dup3\n        /* \"#utility.yul\":4323:4332   */\n      dup7\n        /* \"#utility.yul\":4319:4341   */\n      add\n        /* \"#utility.yul\":4288:4351   */\n      tag_271\n      jump\t// in\n    tag_385:\n        /* \"#utility.yul\":4278:4351   */\n      swap3\n      pop\n        /* \"#utility.yul\":4074:4361   */\n      pop\n        /* \"#utility.yul\":4428:4430   */\n      0x20\n        /* \"#utility.yul\":4417:4426   */\n      dup4\n        /* \"#utility.yul\":4413:4431   */\n      add\n        /* \"#utility.yul\":4400:4432   */\n      calldataload\n        /* \"#utility.yul\":4459:4477   */\n      0xffffffffffffffff\n        /* \"#utility.yul\":4451:4457   */\n      dup2\n        /* \"#utility.yul\":4448:4478   */\n      gt\n        /* \"#utility.yul\":4445:4562   */\n      iszero\n      tag_386\n      jumpi\n        /* \"#utility.yul\":4481:4560   */\n      tag_387\n      tag_255\n      jump\t// in\n    tag_387:\n        /* \"#utility.yul\":4445:4562   */\n    tag_386:\n        /* \"#utility.yul\":4586:4649   */\n      tag_388\n        /* \"#utility.yul\":4641:4648   */\n      dup6\n        /* \"#utility.yul\":4632:4638   */\n      dup3\n        /* \"#utility.yul\":4621:4630   */\n      dup7\n        /* \"#utility.yul\":4617:4639   */\n      add\n        /* \"#utility.yul\":4586:4649   */\n      tag_271\n      jump\t// in\n    tag_388:\n        /* \"#utility.yul\":4576:4649   */\n      swap2\n      pop\n        /* \"#utility.yul\":4371:4659   */\n      pop\n        /* \"#utility.yul\":3832:4666   */\n      swap3\n      pop\n      swap3\n      swap1\n      pop\n      jump\t// out\n        /* \"#utility.yul\":4672:4796   */\n    tag_272:\n        /* \"#utility.yul\":4749:4755   */\n      0x00\n        /* \"#utility.yul\":4783:4788   */\n      dup2\n        /* \"#utility.yul\":4777:4789   */\n      mload\n        /* \"#utility.yul\":4767:4789   */\n      swap1\n      pop\n        /* \"#utility.yul\":4672:4796   */\n      swap2\n      swap1\n      pop\n      jump\t// out\n        /* \"#utility.yul\":4802:4996   */\n    tag_273:\n        /* \"#utility.yul\":4911:4922   */\n      0x00\n        /* \"#utility.yul\":4945:4951   */\n      dup3\n        /* \"#utility.yul\":4940:4943   */\n      dup3\n        /* \"#utility.yul\":4933:4952   */\n      mstore\n        /* \"#utility.yul\":4985:4989   */\n      0x20\n        /* \"#utility.yul\":4980:4983   */\n      dup3\n        /* \"#utility.yul\":4976:4990   */\n      add\n        /* \"#utility.yul\":4961:4990   */\n      swap1\n      pop\n        /* \"#utility.yul\":4802:4996   */\n      swap3\n      swap2\n      pop\n      pop\n      jump\t// out\n        /* \"#utility.yul\":5002:5144   */\n    tag_274:\n        /* \"#utility.yul\":5079:5083   */\n      0x00\n        /* \"#utility.yul\":5102:5105   */\n      dup2\n        /* \"#utility.yul\":5094:5105   */\n      swap1\n      pop\n        /* \"#utility.yul\":5132:5136   */\n      0x20\n        /* \"#utility.yul\":5127:5130   */\n      dup3\n        /* \"#utility.yul\":5123:5137   */\n      add\n        /* \"#utility.yul\":5115:5137   */\n      swap1\n      pop\n        /* \"#utility.yul\":5002:5144   */\n      swap2\n      swap1\n      pop\n      jump\t// out\n        /* \"#utility.yul\":5150:5249   */\n    tag_275:\n        /* \"#utility.yul\":5202:5208   */\n      0x00\n        /* \"#utility.yul\":5236:5241   */\n      dup2\n        /* \"#utility.yul\":5230:5242   */\n      mload\n        /* \"#utility.yul\":5220:5242   */\n      swap1\n      pop\n        /* \"#utility.yul\":5150:5249   */\n      swap2\n      swap1\n      pop\n      jump\t// out\n        /* \"#utility.yul\":5255:5414   */\n    tag_276:\n        /* \"#utility.yul\":5329:5340   */\n      0x00\n        /* \"#utility.yul\":5363:5369   */\n      dup3\n        /* \"#utility.yul\":5358:5361   */\n      dup3\n        /* \"#utility.yul\":5351:5370   */\n      mstore\n        /* \"#utility.yul\":5403:5407   */\n      0x20\n        /* \"#utility.yul\":5398:5401   */\n      dup3\n        /* \"#utility.yul\":5394:5408   */\n      add\n        /* \"#utility.yul\":5379:5408   */\n      swap1\n      pop\n        /* \"#utility.yul\":5255:5414   */\n      swap3\n      swap2\n      pop\n      pop\n      jump\t// out\n        /* \"#utility.yul\":5420:5559   */\n    tag_277:\n        /* \"#utility.yul\":5509:5515   */\n      dup3\n        /* \"#utility.yul\":5504:5507   */\n      dup2\n        /* \"#utility.yul\":5499:5502   */\n      dup4\n        /* \"#utility.yul\":5493:5516   */\n      mcopy\n        /* \"#utility.yul\":5550:5551   */\n      0x00\n        /* \"#utility.yul\":5541:5547   */\n      dup4\n        /* \"#utility.yul\":5536:5539   */\n      dup4\n        /* \"#utility.yul\":5532:5548   */\n      add\n        /* \"#utility.yul\":5525:5552   */\n      mstore\n        /* \"#utility.yul\":5420:5559   */\n      pop\n      pop\n      pop\n      jump\t// out\n        /* \"#utility.yul\":5565:5922   */\n    tag_278:\n        /* \"#utility.yul\":5643:5646   */\n      0x00\n        /* \"#utility.yul\":5671:5710   */\n      tag_396\n        /* \"#utility.yul\":5704:5709   */\n      dup3\n        /* \"#utility.yul\":5671:5710   */\n      tag_275\n      jump\t// in\n    tag_396:\n        /* \"#utility.yul\":5726:5787   */\n      tag_397\n        /* \"#utility.yul\":5780:5786   */\n      dup2\n        /* \"#utility.yul\":5775:5778   */\n      dup6\n        /* \"#utility.yul\":5726:5787   */\n      tag_276\n      jump\t// in\n    tag_397:\n        /* \"#utility.yul\":5719:5787   */\n      swap4\n      pop\n        /* \"#utility.yul\":5796:5861   */\n      tag_398\n        /* \"#utility.yul\":5854:5860   */\n      dup2\n        /* \"#utility.yul\":5849:5852   */\n      dup6\n        /* \"#utility.yul\":5842:5846   */\n      0x20\n        /* \"#utility.yul\":5835:5840   */\n      dup7\n        /* \"#utility.yul\":5831:5847   */\n      add\n        /* \"#utility.yul\":5796:5861   */\n      tag_277\n      jump\t// in\n    tag_398:\n        /* \"#utility.yul\":5886:5915   */\n      tag_399\n        /* \"#utility.yul\":5908:5914   */\n      dup2\n        /* \"#utility.yul\":5886:5915   */\n      tag_264\n      jump\t// in\n    tag_399:\n        /* \"#utility.yul\":5881:5884   */\n      dup5\n        /* \"#utility.yul\":5877:5916   */\n      add\n        /* \"#utility.yul\":5870:5916   */\n      swap2\n      pop\n        /* \"#utility.yul\":5647:5922   */\n      pop\n        /* \"#utility.yul\":5565:5922   */\n      swap3\n      swap2\n      pop\n      pop\n      jump\t// out\n        /* \"#utility.yul\":5928:6124   */\n    tag_279:\n        /* \"#utility.yul\":6017:6027   */\n      0x00\n        /* \"#utility.yul\":6052:6118   */\n      tag_401\n        /* \"#utility.yul\":6114:6117   */\n      dup4\n        /* \"#utility.yul\":6106:6112   */\n      dup4\n        /* \"#utility.yul\":6052:6118   */\n      tag_278\n      jump\t// in\n    tag_401:\n        /* \"#utility.yul\":6038:6118   */\n      swap1\n      pop\n        /* \"#utility.yul\":5928:6124   */\n      swap3\n      swap2\n      pop\n      pop\n      jump\t// out\n        /* \"#utility.yul\":6130:6253   */\n    tag_280:\n        /* \"#utility.yul\":6210:6214   */\n      0x00\n        /* \"#utility.yul\":6242:6246   */\n      0x20\n        /* \"#utility.yul\":6237:6240   */\n      dup3\n        /* \"#utility.yul\":6233:6247   */\n      add\n        /* \"#utility.yul\":6225:6247   */\n      swap1\n      pop\n        /* \"#utility.yul\":6130:6253   */\n      swap2\n      swap1\n      pop\n      jump\t// out\n        /* \"#utility.yul\":6287:7278   */\n    tag_281:\n        /* \"#utility.yul\":6426:6429   */\n      0x00\n        /* \"#utility.yul\":6455:6519   */\n      tag_404\n        /* \"#utility.yul\":6513:6518   */\n      dup3\n        /* \"#utility.yul\":6455:6519   */\n      tag_272\n      jump\t// in\n    tag_404:\n        /* \"#utility.yul\":6535:6631   */\n      tag_405\n        /* \"#utility.yul\":6624:6630   */\n      dup2\n        /* \"#utility.yul\":6619:6622   */\n      dup6\n        /* \"#utility.yul\":6535:6631   */\n      tag_273\n      jump\t// in\n    tag_405:\n        /* \"#utility.yul\":6528:6631   */\n      swap4\n      pop\n        /* \"#utility.yul\":6657:6660   */\n      dup4\n        /* \"#utility.yul\":6702:6706   */\n      0x20\n        /* \"#utility.yul\":6694:6700   */\n      dup3\n        /* \"#utility.yul\":6690:6707   */\n      mul\n        /* \"#utility.yul\":6685:6688   */\n      dup6\n        /* \"#utility.yul\":6681:6708   */\n      add\n        /* \"#utility.yul\":6732:6798   */\n      tag_406\n        /* \"#utility.yul\":6792:6797   */\n      dup6\n        /* \"#utility.yul\":6732:6798   */\n      tag_274\n      jump\t// in\n    tag_406:\n        /* \"#utility.yul\":6821:6828   */\n      dup1\n        /* \"#utility.yul\":6852:6853   */\n      0x00\n        /* \"#utility.yul\":6837:7233   */\n    tag_407:\n        /* \"#utility.yul\":6862:6868   */\n      dup6\n        /* \"#utility.yul\":6859:6860   */\n      dup2\n        /* \"#utility.yul\":6856:6869   */\n      lt\n        /* \"#utility.yul\":6837:7233   */\n      iszero\n      tag_409\n      jumpi\n        /* \"#utility.yul\":6933:6942   */\n      dup5\n        /* \"#utility.yul\":6927:6931   */\n      dup5\n        /* \"#utility.yul\":6923:6943   */\n      sub\n        /* \"#utility.yul\":6918:6921   */\n      dup10\n        /* \"#utility.yul\":6911:6944   */\n      mstore\n        /* \"#utility.yul\":6984:6990   */\n      dup2\n        /* \"#utility.yul\":6978:6991   */\n      mload\n        /* \"#utility.yul\":7012:7096   */\n      tag_410\n        /* \"#utility.yul\":7091:7095   */\n      dup6\n        /* \"#utility.yul\":7076:7089   */\n      dup3\n        /* \"#utility.yul\":7012:7096   */\n      tag_279\n      jump\t// in\n    tag_410:\n        /* \"#utility.yul\":7004:7096   */\n      swap5\n      pop\n        /* \"#utility.yul\":7119:7189   */\n      tag_411\n        /* \"#utility.yul\":7182:7188   */\n      dup4\n        /* \"#utility.yul\":7119:7189   */\n      tag_280\n      jump\t// in\n    tag_411:\n        /* \"#utility.yul\":7109:7189   */\n      swap3\n      pop\n        /* \"#utility.yul\":7218:7222   */\n      0x20\n        /* \"#utility.yul\":7213:7216   */\n      dup11\n        /* \"#utility.yul\":7209:7223   */\n      add\n        /* \"#utility.yul\":7202:7223   */\n      swap10\n      pop\n        /* \"#utility.yul\":6897:7233   */\n      pop\n        /* \"#utility.yul\":6884:6885   */\n      0x01\n        /* \"#utility.yul\":6881:6882   */\n      dup2\n        /* \"#utility.yul\":6877:6886   */\n      add\n        /* \"#utility.yul\":6872:6886   */\n      swap1\n      pop\n        /* \"#utility.yul\":6837:7233   */\n      jump(tag_407)\n    tag_409:\n        /* \"#utility.yul\":6841:6855   */\n      pop\n        /* \"#utility.yul\":7249:7253   */\n      dup3\n        /* \"#utility.yul\":7242:7253   */\n      swap8\n      pop\n        /* \"#utility.yul\":7269:7272   */\n      dup8\n        /* \"#utility.yul\":7262:7272   */\n      swap6\n      pop\n        /* \"#utility.yul\":6431:7278   */\n      pop\n      pop\n      pop\n      pop\n      pop\n        /* \"#utility.yul\":6287:7278   */\n      swap3\n      swap2\n      pop\n      pop\n      jump\t// out\n        /* \"#utility.yul\":7284:7697   */\n    tag_29:\n        /* \"#utility.yul\":7447:7451   */\n      0x00\n        /* \"#utility.yul\":7485:7487   */\n      0x20\n        /* \"#utility.yul\":7474:7483   */\n      dup3\n        /* \"#utility.yul\":7470:7488   */\n      add\n        /* \"#utility.yul\":7462:7488   */\n      swap1\n      pop\n        /* \"#utility.yul\":7534:7543   */\n      dup2\n        /* \"#utility.yul\":7528:7532   */\n      dup2\n        /* \"#utility.yul\":7524:7544   */\n      sub\n        /* \"#utility.yul\":7520:7521   */\n      0x00\n        /* \"#utility.yul\":7509:7518   */\n      dup4\n        /* \"#utility.yul\":7505:7522   */\n      add\n        /* \"#utility.yul\":7498:7545   */\n      mstore\n        /* \"#utility.yul\":7562:7690   */\n      tag_413\n        /* \"#utility.yul\":7685:7689   */\n      dup2\n        /* \"#utility.yul\":7676:7682   */\n      dup5\n        /* \"#utility.yul\":7562:7690   */\n      tag_281\n      jump\t// in\n    tag_413:\n        /* \"#utility.yul\":7554:7690   */\n      swap1\n      pop\n        /* \"#utility.yul\":7284:7697   */\n      swap3\n      swap2\n      pop\n      pop\n      jump\t// out\n        /* \"#utility.yul\":7703:8212   */\n    tag_32:\n        /* \"#utility.yul\":7772:7778   */\n      0x00\n        /* \"#utility.yul\":7821:7823   */\n      0x20\n        /* \"#utility.yul\":7809:7818   */\n      dup3\n        /* \"#utility.yul\":7800:7807   */\n      dup5\n        /* \"#utility.yul\":7796:7819   */\n      sub\n        /* \"#utility.yul\":7792:7824   */\n      slt\n        /* \"#utility.yul\":7789:7908   */\n      iszero\n      tag_415\n      jumpi\n        /* \"#utility.yul\":7827:7906   */\n      tag_416\n      tag_254\n      jump\t// in\n    tag_416:\n        /* \"#utility.yul\":7789:7908   */\n    tag_415:\n        /* \"#utility.yul\":7975:7976   */\n      0x00\n        /* \"#utility.yul\":7964:7973   */\n      dup3\n        /* \"#utility.yul\":7960:7977   */\n      add\n        /* \"#utility.yul\":7947:7978   */\n      calldataload\n        /* \"#utility.yul\":8005:8023   */\n      0xffffffffffffffff\n        /* \"#utility.yul\":7997:8003   */\n      dup2\n        /* \"#utility.yul\":7994:8024   */\n      gt\n        /* \"#utility.yul\":7991:8108   */\n      iszero\n      tag_417\n      jumpi\n        /* \"#utility.yul\":8027:8106   */\n      tag_418\n      tag_255\n      jump\t// in\n    tag_418:\n        /* \"#utility.yul\":7991:8108   */\n    tag_417:\n        /* \"#utility.yul\":8132:8195   */\n      tag_419\n        /* \"#utility.yul\":8187:8194   */\n      dup5\n        /* \"#utility.yul\":8178:8184   */\n      dup3\n        /* \"#utility.yul\":8167:8176   */\n      dup6\n        /* \"#utility.yul\":8163:8185   */\n      add\n        /* \"#utility.yul\":8132:8195   */\n      tag_271\n      jump\t// in\n    tag_419:\n        /* \"#utility.yul\":8122:8195   */\n      swap2\n      pop\n        /* \"#utility.yul\":7918:8205   */\n      pop\n        /* \"#utility.yul\":7703:8212   */\n      swap3\n      swap2\n      pop\n      pop\n      jump\t// out\n        /* \"#utility.yul\":8218:8326   */\n    tag_282:\n        /* \"#utility.yul\":8295:8319   */\n      tag_421\n        /* \"#utility.yul\":8313:8318   */\n      dup2\n        /* \"#utility.yul\":8295:8319   */\n      tag_257\n      jump\t// in\n    tag_421:\n        /* \"#utility.yul\":8290:8293   */\n      dup3\n        /* \"#utility.yul\":8283:8320   */\n      mstore\n        /* \"#utility.yul\":8218:8326   */\n      pop\n      pop\n      jump\t// out\n        /* \"#utility.yul\":8332:8440   */\n    tag_283:\n        /* \"#utility.yul\":8409:8433   */\n      tag_423\n        /* \"#utility.yul\":8427:8432   */\n      dup2\n        /* \"#utility.yul\":8409:8433   */\n      tag_260\n      jump\t// in\n    tag_423:\n        /* \"#utility.yul\":8404:8407   */\n      dup3\n        /* \"#utility.yul\":8397:8434   */\n      mstore\n        /* \"#utility.yul\":8332:8440   */\n      pop\n      pop\n      jump\t// out\n        /* \"#utility.yul\":8446:8536   */\n    tag_284:\n        /* \"#utility.yul\":8480:8487   */\n      0x00\n        /* \"#utility.yul\":8523:8528   */\n      dup2\n        /* \"#utility.yul\":8516:8529   */\n      iszero\n        /* \"#utility.yul\":8509:8530   */\n      iszero\n        /* \"#utility.yul\":8498:8530   */\n      swap1\n      pop\n        /* \"#utility.yul\":8446:8536   */\n      swap2\n      swap1\n      pop\n      jump\t// out\n        /* \"#utility.yul\":8542:8641   */\n    tag_285:\n        /* \"#utility.yul\":8613:8634   */\n      tag_426\n        /* \"#utility.yul\":8628:8633   */\n      dup2\n        /* \"#utility.yul\":8613:8634   */\n      tag_284\n      jump\t// in\n    tag_426:\n        /* \"#utility.yul\":8608:8611   */\n      dup3\n        /* \"#utility.yul\":8601:8635   */\n      mstore\n        /* \"#utility.yul\":8542:8641   */\n      pop\n      pop\n      jump\t// out\n        /* \"#utility.yul\":8715:9669   */\n    tag_286:\n        /* \"#utility.yul\":8832:8835   */\n      0x00\n        /* \"#utility.yul\":8868:8872   */\n      0x80\n        /* \"#utility.yul\":8863:8866   */\n      dup4\n        /* \"#utility.yul\":8859:8873   */\n      add\n        /* \"#utility.yul\":8954:8958   */\n      0x00\n        /* \"#utility.yul\":8947:8952   */\n      dup4\n        /* \"#utility.yul\":8943:8959   */\n      add\n        /* \"#utility.yul\":8937:8960   */\n      mload\n        /* \"#utility.yul\":9007:9010   */\n      dup5\n        /* \"#utility.yul\":9001:9005   */\n      dup3\n        /* \"#utility.yul\":8997:9011   */\n      sub\n        /* \"#utility.yul\":8990:8994   */\n      0x00\n        /* \"#utility.yul\":8985:8988   */\n      dup7\n        /* \"#utility.yul\":8981:8995   */\n      add\n        /* \"#utility.yul\":8974:9012   */\n      mstore\n        /* \"#utility.yul\":9033:9106   */\n      tag_428\n        /* \"#utility.yul\":9101:9105   */\n      dup3\n        /* \"#utility.yul\":9087:9099   */\n      dup3\n        /* \"#utility.yul\":9033:9106   */\n      tag_278\n      jump\t// in\n    tag_428:\n        /* \"#utility.yul\":9025:9106   */\n      swap2\n      pop\n        /* \"#utility.yul\":8883:9117   */\n      pop\n        /* \"#utility.yul\":9201:9205   */\n      0x20\n        /* \"#utility.yul\":9194:9199   */\n      dup4\n        /* \"#utility.yul\":9190:9206   */\n      add\n        /* \"#utility.yul\":9184:9207   */\n      mload\n        /* \"#utility.yul\":9220:9283   */\n      tag_429\n        /* \"#utility.yul\":9277:9281   */\n      0x20\n        /* \"#utility.yul\":9272:9275   */\n      dup7\n        /* \"#utility.yul\":9268:9282   */\n      add\n        /* \"#utility.yul\":9254:9266   */\n      dup3\n        /* \"#utility.yul\":9220:9283   */\n      tag_282\n      jump\t// in\n    tag_429:\n        /* \"#utility.yul\":9127:9293   */\n      pop\n        /* \"#utility.yul\":9380:9384   */\n      0x40\n        /* \"#utility.yul\":9373:9378   */\n      dup4\n        /* \"#utility.yul\":9369:9385   */\n      add\n        /* \"#utility.yul\":9363:9386   */\n      mload\n        /* \"#utility.yul\":9399:9462   */\n      tag_430\n        /* \"#utility.yul\":9456:9460   */\n      0x40\n        /* \"#utility.yul\":9451:9454   */\n      dup7\n        /* \"#utility.yul\":9447:9461   */\n      add\n        /* \"#utility.yul\":9433:9445   */\n      dup3\n        /* \"#utility.yul\":9399:9462   */\n      tag_283\n      jump\t// in\n    tag_430:\n        /* \"#utility.yul\":9303:9472   */\n      pop\n        /* \"#utility.yul\":9556:9560   */\n      0x60\n        /* \"#utility.yul\":9549:9554   */\n      dup4\n        /* \"#utility.yul\":9545:9561   */\n      add\n        /* \"#utility.yul\":9539:9562   */\n      mload\n        /* \"#utility.yul\":9575:9632   */\n      tag_431\n        /* \"#utility.yul\":9626:9630   */\n      0x60\n        /* \"#utility.yul\":9621:9624   */\n      dup7\n        /* \"#utility.yul\":9617:9631   */\n      add\n        /* \"#utility.yul\":9603:9615   */\n      dup3\n        /* \"#utility.yul\":9575:9632   */\n      tag_285\n      jump\t// in\n    tag_431:\n        /* \"#utility.yul\":9482:9642   */\n      pop\n        /* \"#utility.yul\":9659:9663   */\n      dup1\n        /* \"#utility.yul\":9652:9663   */\n      swap2\n      pop\n        /* \"#utility.yul\":8837:9669   */\n      pop\n        /* \"#utility.yul\":8715:9669   */\n      swap3\n      swap2\n      pop\n      pop\n      jump\t// out\n        /* \"#utility.yul\":9675:10044   */\n    tag_38:\n        /* \"#utility.yul\":9816:9820   */\n      0x00\n        /* \"#utility.yul\":9854:9856   */\n      0x20\n        /* \"#utility.yul\":9843:9852   */\n      dup3\n        /* \"#utility.yul\":9839:9857   */\n      add\n        /* \"#utility.yul\":9831:9857   */\n      swap1\n      pop\n        /* \"#utility.yul\":9903:9912   */\n      dup2\n        /* \"#utility.yul\":9897:9901   */\n      dup2\n        /* \"#utility.yul\":9893:9913   */\n      sub\n        /* \"#utility.yul\":9889:9890   */\n      0x00\n        /* \"#utility.yul\":9878:9887   */\n      dup4\n        /* \"#utility.yul\":9874:9891   */\n      add\n        /* \"#utility.yul\":9867:9914   */\n      mstore\n        /* \"#utility.yul\":9931:10037   */\n      tag_433\n        /* \"#utility.yul\":10032:10036   */\n      dup2\n        /* \"#utility.yul\":10023:10029   */\n      dup5\n        /* \"#utility.yul\":9931:10037   */\n      tag_286\n      jump\t// in\n    tag_433:\n        /* \"#utility.yul\":9923:10037   */\n      swap1\n      pop\n        /* \"#utility.yul\":9675:10044   */\n      swap3\n      swap2\n      pop\n      pop\n      jump\t// out\n        /* \"#utility.yul\":10050:10172   */\n    tag_287:\n        /* \"#utility.yul\":10123:10147   */\n      tag_435\n        /* \"#utility.yul\":10141:10146   */\n      dup2\n        /* \"#utility.yul\":10123:10147   */\n      tag_260\n      jump\t// in\n    tag_435:\n        /* \"#utility.yul\":10116:10121   */\n      dup2\n        /* \"#utility.yul\":10113:10148   */\n      eq\n        /* \"#utility.yul\":10103:10166   */\n      tag_436\n      jumpi\n        /* \"#utility.yul\":10162:10163   */\n      0x00\n        /* \"#utility.yul\":10159:10160   */\n      0x00\n        /* \"#utility.yul\":10152:10164   */\n      revert\n        /* \"#utility.yul\":10103:10166   */\n    tag_436:\n        /* \"#utility.yul\":10050:10172   */\n      pop\n      jump\t// out\n        /* \"#utility.yul\":10178:10317   */\n    tag_288:\n        /* \"#utility.yul\":10224:10229   */\n      0x00\n        /* \"#utility.yul\":10262:10268   */\n      dup2\n        /* \"#utility.yul\":10249:10269   */\n      calldataload\n        /* \"#utility.yul\":10240:10269   */\n      swap1\n      pop\n        /* \"#utility.yul\":10278:10311   */\n      tag_438\n        /* \"#utility.yul\":10305:10310   */\n      dup2\n        /* \"#utility.yul\":10278:10311   */\n      tag_287\n      jump\t// in\n    tag_438:\n        /* \"#utility.yul\":10178:10317   */\n      swap3\n      swap2\n      pop\n      pop\n      jump\t// out\n        /* \"#utility.yul\":10323:10652   */\n    tag_41:\n        /* \"#utility.yul\":10382:10388   */\n      0x00\n        /* \"#utility.yul\":10431:10433   */\n      0x20\n        /* \"#utility.yul\":10419:10428   */\n      dup3\n        /* \"#utility.yul\":10410:10417   */\n      dup5\n        /* \"#utility.yul\":10406:10429   */\n      sub\n        /* \"#utility.yul\":10402:10434   */\n      slt\n        /* \"#utility.yul\":10399:10518   */\n      iszero\n      tag_440\n      jumpi\n        /* \"#utility.yul\":10437:10516   */\n      tag_441\n      tag_254\n      jump\t// in\n    tag_441:\n        /* \"#utility.yul\":10399:10518   */\n    tag_440:\n        /* \"#utility.yul\":10557:10558   */\n      0x00\n        /* \"#utility.yul\":10582:10635   */\n      tag_442\n        /* \"#utility.yul\":10627:10634   */\n      dup5\n        /* \"#utility.yul\":10618:10624   */\n      dup3\n        /* \"#utility.yul\":10607:10616   */\n      dup6\n        /* \"#utility.yul\":10603:10625   */\n      add\n        /* \"#utility.yul\":10582:10635   */\n      tag_288\n      jump\t// in\n    tag_442:\n        /* \"#utility.yul\":10572:10635   */\n      swap2\n      pop\n        /* \"#utility.yul\":10528:10645   */\n      pop\n        /* \"#utility.yul\":10323:10652   */\n      swap3\n      swap2\n      pop\n      pop\n      jump\t// out\n        /* \"#utility.yul\":10658:10827   */\n    tag_289:\n        /* \"#utility.yul\":10742:10753   */\n      0x00\n        /* \"#utility.yul\":10776:10782   */\n      dup3\n        /* \"#utility.yul\":10771:10774   */\n      dup3\n        /* \"#utility.yul\":10764:10783   */\n      mstore\n        /* \"#utility.yul\":10816:10820   */\n      0x20\n        /* \"#utility.yul\":10811:10814   */\n      dup3\n        /* \"#utility.yul\":10807:10821   */\n      add\n        /* \"#utility.yul\":10792:10821   */\n      swap1\n      pop\n        /* \"#utility.yul\":10658:10827   */\n      swap3\n      swap2\n      pop\n      pop\n      jump\t// out\n        /* \"#utility.yul\":10833:11210   */\n    tag_290:\n        /* \"#utility.yul\":10921:10924   */\n      0x00\n        /* \"#utility.yul\":10949:10988   */\n      tag_445\n        /* \"#utility.yul\":10982:10987   */\n      dup3\n        /* \"#utility.yul\":10949:10988   */\n      tag_275\n      jump\t// in\n    tag_445:\n        /* \"#utility.yul\":11004:11075   */\n      tag_446\n        /* \"#utility.yul\":11068:11074   */\n      dup2\n        /* \"#utility.yul\":11063:11066   */\n      dup6\n        /* \"#utility.yul\":11004:11075   */\n      tag_289\n      jump\t// in\n    tag_446:\n        /* \"#utility.yul\":10997:11075   */\n      swap4\n      pop\n        /* \"#utility.yul\":11084:11149   */\n      tag_447\n        /* \"#utility.yul\":11142:11148   */\n      dup2\n        /* \"#utility.yul\":11137:11140   */\n      dup6\n        /* \"#utility.yul\":11130:11134   */\n      0x20\n        /* \"#utility.yul\":11123:11128   */\n      dup7\n        /* \"#utility.yul\":11119:11135   */\n      add\n        /* \"#utility.yul\":11084:11149   */\n      tag_277\n      jump\t// in\n    tag_447:\n        /* \"#utility.yul\":11174:11203   */\n      tag_448\n        /* \"#utility.yul\":11196:11202   */\n      dup2\n        /* \"#utility.yul\":11174:11203   */\n      tag_264\n      jump\t// in\n    tag_448:\n        /* \"#utility.yul\":11169:11172   */\n      dup5\n        /* \"#utility.yul\":11165:11204   */\n      add\n        /* \"#utility.yul\":11158:11204   */\n      swap2\n      pop\n        /* \"#utility.yul\":10925:11210   */\n      pop\n        /* \"#utility.yul\":10833:11210   */\n      swap3\n      swap2\n      pop\n      pop\n      jump\t// out\n        /* \"#utility.yul\":11216:11529   */\n    tag_44:\n        /* \"#utility.yul\":11329:11333   */\n      0x00\n        /* \"#utility.yul\":11367:11369   */\n      0x20\n        /* \"#utility.yul\":11356:11365   */\n      dup3\n        /* \"#utility.yul\":11352:11370   */\n      add\n        /* \"#utility.yul\":11344:11370   */\n      swap1\n      pop\n        /* \"#utility.yul\":11416:11425   */\n      dup2\n        /* \"#utility.yul\":11410:11414   */\n      dup2\n        /* \"#utility.yul\":11406:11426   */\n      sub\n        /* \"#utility.yul\":11402:11403   */\n      0x00\n        /* \"#utility.yul\":11391:11400   */\n      dup4\n        /* \"#utility.yul\":11387:11404   */\n      add\n        /* \"#utility.yul\":11380:11427   */\n      mstore\n        /* \"#utility.yul\":11444:11522   */\n      tag_450\n        /* \"#utility.yul\":11517:11521   */\n      dup2\n        /* \"#utility.yul\":11508:11514   */\n      dup5\n        /* \"#utility.yul\":11444:11522   */\n      tag_290\n      jump\t// in\n    tag_450:\n        /* \"#utility.yul\":11436:11522   */\n      swap1\n      pop\n        /* \"#utility.yul\":11216:11529   */\n      swap3\n      swap2\n      pop\n      pop\n      jump\t// out\n        /* \"#utility.yul\":11535:12009   */\n    tag_47:\n        /* \"#utility.yul\":11603:11609   */\n      0x00\n        /* \"#utility.yul\":11611:11617   */\n      0x00\n        /* \"#utility.yul\":11660:11662   */\n      0x40\n        /* \"#utility.yul\":11648:11657   */\n      dup4\n        /* \"#utility.yul\":11639:11646   */\n      dup6\n        /* \"#utility.yul\":11635:11658   */\n      sub\n        /* \"#utility.yul\":11631:11663   */\n      slt\n        /* \"#utility.yul\":11628:11747   */\n      iszero\n      tag_452\n      jumpi\n        /* \"#utility.yul\":11666:11745   */\n      tag_453\n      tag_254\n      jump\t// in\n    tag_453:\n        /* \"#utility.yul\":11628:11747   */\n    tag_452:\n        /* \"#utility.yul\":11786:11787   */\n      0x00\n        /* \"#utility.yul\":11811:11864   */\n      tag_454\n        /* \"#utility.yul\":11856:11863   */\n      dup6\n        /* \"#utility.yul\":11847:11853   */\n      dup3\n        /* \"#utility.yul\":11836:11845   */\n      dup7\n        /* \"#utility.yul\":11832:11854   */\n      add\n        /* \"#utility.yul\":11811:11864   */\n      tag_259\n      jump\t// in\n    tag_454:\n        /* \"#utility.yul\":11801:11864   */\n      swap3\n      pop\n        /* \"#utility.yul\":11757:11874   */\n      pop\n        /* \"#utility.yul\":11913:11915   */\n      0x20\n        /* \"#utility.yul\":11939:11992   */\n      tag_455\n        /* \"#utility.yul\":11984:11991   */\n      dup6\n        /* \"#utility.yul\":11975:11981   */\n      dup3\n        /* \"#utility.yul\":11964:11973   */\n      dup7\n        /* \"#utility.yul\":11960:11982   */\n      add\n        /* \"#utility.yul\":11939:11992   */\n      tag_288\n      jump\t// in\n    tag_455:\n        /* \"#utility.yul\":11929:11992   */\n      swap2\n      pop\n        /* \"#utility.yul\":11884:12002   */\n      pop\n        /* \"#utility.yul\":11535:12009   */\n      swap3\n      pop\n      swap3\n      swap1\n      pop\n      jump\t// out\n        /* \"#utility.yul\":12015:12124   */\n    tag_291:\n        /* \"#utility.yul\":12096:12117   */\n      tag_457\n        /* \"#utility.yul\":12111:12116   */\n      dup2\n        /* \"#utility.yul\":12096:12117   */\n      tag_284\n      jump\t// in\n    tag_457:\n        /* \"#utility.yul\":12091:12094   */\n      dup3\n        /* \"#utility.yul\":12084:12118   */\n      mstore\n        /* \"#utility.yul\":12015:12124   */\n      pop\n      pop\n      jump\t// out\n        /* \"#utility.yul\":12130:12340   */\n    tag_64:\n        /* \"#utility.yul\":12217:12221   */\n      0x00\n        /* \"#utility.yul\":12255:12257   */\n      0x20\n        /* \"#utility.yul\":12244:12253   */\n      dup3\n        /* \"#utility.yul\":12240:12258   */\n      add\n        /* \"#utility.yul\":12232:12258   */\n      swap1\n      pop\n        /* \"#utility.yul\":12268:12333   */\n      tag_459\n        /* \"#utility.yul\":12330:12331   */\n      0x00\n        /* \"#utility.yul\":12319:12328   */\n      dup4\n        /* \"#utility.yul\":12315:12332   */\n      add\n        /* \"#utility.yul\":12306:12312   */\n      dup5\n        /* \"#utility.yul\":12268:12333   */\n      tag_291\n      jump\t// in\n    tag_459:\n        /* \"#utility.yul\":12130:12340   */\n      swap3\n      swap2\n      pop\n      pop\n      jump\t// out\n        /* \"#utility.yul\":12346:12464   */\n    tag_292:\n        /* \"#utility.yul\":12433:12457   */\n      tag_461\n        /* \"#utility.yul\":12451:12456   */\n      dup2\n        /* \"#utility.yul\":12433:12457   */\n      tag_257\n      jump\t// in\n    tag_461:\n        /* \"#utility.yul\":12428:12431   */\n      dup3\n        /* \"#utility.yul\":12421:12458   */\n      mstore\n        /* \"#utility.yul\":12346:12464   */\n      pop\n      pop\n      jump\t// out\n        /* \"#utility.yul\":12470:13102   */\n    tag_69:\n        /* \"#utility.yul\":12661:12665   */\n      0x00\n        /* \"#utility.yul\":12699:12702   */\n      0x80\n        /* \"#utility.yul\":12688:12697   */\n      dup3\n        /* \"#utility.yul\":12684:12703   */\n      add\n        /* \"#utility.yul\":12676:12703   */\n      swap1\n      pop\n        /* \"#utility.yul\":12749:12758   */\n      dup2\n        /* \"#utility.yul\":12743:12747   */\n      dup2\n        /* \"#utility.yul\":12739:12759   */\n      sub\n        /* \"#utility.yul\":12735:12736   */\n      0x00\n        /* \"#utility.yul\":12724:12733   */\n      dup4\n        /* \"#utility.yul\":12720:12737   */\n      add\n        /* \"#utility.yul\":12713:12760   */\n      mstore\n        /* \"#utility.yul\":12777:12855   */\n      tag_463\n        /* \"#utility.yul\":12850:12854   */\n      dup2\n        /* \"#utility.yul\":12841:12847   */\n      dup8\n        /* \"#utility.yul\":12777:12855   */\n      tag_290\n      jump\t// in\n    tag_463:\n        /* \"#utility.yul\":12769:12855   */\n      swap1\n      pop\n        /* \"#utility.yul\":12865:12937   */\n      tag_464\n        /* \"#utility.yul\":12933:12935   */\n      0x20\n        /* \"#utility.yul\":12922:12931   */\n      dup4\n        /* \"#utility.yul\":12918:12936   */\n      add\n        /* \"#utility.yul\":12909:12915   */\n      dup7\n        /* \"#utility.yul\":12865:12937   */\n      tag_292\n      jump\t// in\n    tag_464:\n        /* \"#utility.yul\":12947:13019   */\n      tag_465\n        /* \"#utility.yul\":13015:13017   */\n      0x40\n        /* \"#utility.yul\":13004:13013   */\n      dup4\n        /* \"#utility.yul\":13000:13018   */\n      add\n        /* \"#utility.yul\":12991:12997   */\n      dup6\n        /* \"#utility.yul\":12947:13019   */\n      tag_261\n      jump\t// in\n    tag_465:\n        /* \"#utility.yul\":13029:13095   */\n      tag_466\n        /* \"#utility.yul\":13091:13093   */\n      0x60\n        /* \"#utility.yul\":13080:13089   */\n      dup4\n        /* \"#utility.yul\":13076:13094   */\n      add\n        /* \"#utility.yul\":13067:13073   */\n      dup5\n        /* \"#utility.yul\":13029:13095   */\n      tag_291\n      jump\t// in\n    tag_466:\n        /* \"#utility.yul\":12470:13102   */\n      swap6\n      swap5\n      pop\n      pop\n      pop\n      pop\n      pop\n      jump\t// out\n        /* \"#utility.yul\":13108:13256   */\n    tag_293:\n        /* \"#utility.yul\":13210:13221   */\n      0x00\n        /* \"#utility.yul\":13247:13250   */\n      dup2\n        /* \"#utility.yul\":13232:13250   */\n      swap1\n      pop\n        /* \"#utility.yul\":13108:13256   */\n      swap3\n      swap2\n      pop\n      pop\n      jump\t// out\n        /* \"#utility.yul\":13262:13652   */\n    tag_294:\n        /* \"#utility.yul\":13368:13371   */\n      0x00\n        /* \"#utility.yul\":13396:13435   */\n      tag_469\n        /* \"#utility.yul\":13429:13434   */\n      dup3\n        /* \"#utility.yul\":13396:13435   */\n      tag_275\n      jump\t// in\n    tag_469:\n        /* \"#utility.yul\":13451:13540   */\n      tag_470\n        /* \"#utility.yul\":13533:13539   */\n      dup2\n        /* \"#utility.yul\":13528:13531   */\n      dup6\n        /* \"#utility.yul\":13451:13540   */\n      tag_293\n      jump\t// in\n    tag_470:\n        /* \"#utility.yul\":13444:13540   */\n      swap4\n      pop\n        /* \"#utility.yul\":13549:13614   */\n      tag_471\n        /* \"#utility.yul\":13607:13613   */\n      dup2\n        /* \"#utility.yul\":13602:13605   */\n      dup6\n        /* \"#utility.yul\":13595:13599   */\n      0x20\n        /* \"#utility.yul\":13588:13593   */\n      dup7\n        /* \"#utility.yul\":13584:13600   */\n      add\n        /* \"#utility.yul\":13549:13614   */\n      tag_277\n      jump\t// in\n    tag_471:\n        /* \"#utility.yul\":13639:13645   */\n      dup1\n        /* \"#utility.yul\":13634:13637   */\n      dup5\n        /* \"#utility.yul\":13630:13646   */\n      add\n        /* \"#utility.yul\":13623:13646   */\n      swap2\n      pop\n        /* \"#utility.yul\":13372:13652   */\n      pop\n        /* \"#utility.yul\":13262:13652   */\n      swap3\n      swap2\n      pop\n      pop\n      jump\t// out\n        /* \"#utility.yul\":13658:13933   */\n    tag_73:\n        /* \"#utility.yul\":13790:13793   */\n      0x00\n        /* \"#utility.yul\":13812:13907   */\n      tag_473\n        /* \"#utility.yul\":13903:13906   */\n      dup3\n        /* \"#utility.yul\":13894:13900   */\n      dup5\n        /* \"#utility.yul\":13812:13907   */\n      tag_294\n      jump\t// in\n    tag_473:\n        /* \"#utility.yul\":13805:13907   */\n      swap2\n      pop\n        /* \"#utility.yul\":13924:13927   */\n      dup2\n        /* \"#utility.yul\":13917:13927   */\n      swap1\n      pop\n        /* \"#utility.yul\":13658:13933   */\n      swap3\n      swap2\n      pop\n      pop\n      jump\t// out\n        /* \"#utility.yul\":13939:14112   */\n    tag_295:\n        /* \"#utility.yul\":14079:14104   */\n      0x4f6c6420706f737420646f6573206e6f74206578697374000000000000000000\n        /* \"#utility.yul\":14075:14076   */\n      0x00\n        /* \"#utility.yul\":14067:14073   */\n      dup3\n        /* \"#utility.yul\":14063:14077   */\n      add\n        /* \"#utility.yul\":14056:14105   */\n      mstore\n        /* \"#utility.yul\":13939:14112   */\n      pop\n      jump\t// out\n        /* \"#utility.yul\":14118:14484   */\n    tag_296:\n        /* \"#utility.yul\":14260:14263   */\n      0x00\n        /* \"#utility.yul\":14281:14348   */\n      tag_476\n        /* \"#utility.yul\":14345:14347   */\n      0x17\n        /* \"#utility.yul\":14340:14343   */\n      dup4\n        /* \"#utility.yul\":14281:14348   */\n      tag_289\n      jump\t// in\n    tag_476:\n        /* \"#utility.yul\":14274:14348   */\n      swap2\n      pop\n        /* \"#utility.yul\":14357:14450   */\n      tag_477\n        /* \"#utility.yul\":14446:14449   */\n      dup3\n        /* \"#utility.yul\":14357:14450   */\n      tag_295\n      jump\t// in\n    tag_477:\n        /* \"#utility.yul\":14475:14477   */\n      0x20\n        /* \"#utility.yul\":14470:14473   */\n      dup3\n        /* \"#utility.yul\":14466:14478   */\n      add\n        /* \"#utility.yul\":14459:14478   */\n      swap1\n      pop\n        /* \"#utility.yul\":14118:14484   */\n      swap2\n      swap1\n      pop\n      jump\t// out\n        /* \"#utility.yul\":14490:14909   */\n    tag_76:\n        /* \"#utility.yul\":14656:14660   */\n      0x00\n        /* \"#utility.yul\":14694:14696   */\n      0x20\n        /* \"#utility.yul\":14683:14692   */\n      dup3\n        /* \"#utility.yul\":14679:14697   */\n      add\n        /* \"#utility.yul\":14671:14697   */\n      swap1\n      pop\n        /* \"#utility.yul\":14743:14752   */\n      dup2\n        /* \"#utility.yul\":14737:14741   */\n      dup2\n        /* \"#utility.yul\":14733:14753   */\n      sub\n        /* \"#utility.yul\":14729:14730   */\n      0x00\n        /* \"#utility.yul\":14718:14727   */\n      dup4\n        /* \"#utility.yul\":14714:14731   */\n      add\n        /* \"#utility.yul\":14707:14754   */\n      mstore\n        /* \"#utility.yul\":14771:14902   */\n      tag_479\n        /* \"#utility.yul\":14897:14901   */\n      dup2\n        /* \"#utility.yul\":14771:14902   */\n      tag_296\n      jump\t// in\n    tag_479:\n        /* \"#utility.yul\":14763:14902   */\n      swap1\n      pop\n        /* \"#utility.yul\":14490:14909   */\n      swap2\n      swap1\n      pop\n      jump\t// out\n        /* \"#utility.yul\":14915:15092   */\n    tag_297:\n        /* \"#utility.yul\":15055:15084   */\n      0x4f6e6c7920617574686f722063616e2075706461746520706f73740000000000\n        /* \"#utility.yul\":15051:15052   */\n      0x00\n        /* \"#utility.yul\":15043:15049   */\n      dup3\n        /* \"#utility.yul\":15039:15053   */\n      add\n        /* \"#utility.yul\":15032:15085   */\n      mstore\n        /* \"#utility.yul\":14915:15092   */\n      pop\n      jump\t// out\n        /* \"#utility.yul\":15098:15464   */\n    tag_298:\n        /* \"#utility.yul\":15240:15243   */\n      0x00\n        /* \"#utility.yul\":15261:15328   */\n      tag_482\n        /* \"#utility.yul\":15325:15327   */\n      0x1b\n        /* \"#utility.yul\":15320:15323   */\n      dup4\n        /* \"#utility.yul\":15261:15328   */\n      tag_289\n      jump\t// in\n    tag_482:\n        /* \"#utility.yul\":15254:15328   */\n      swap2\n      pop\n        /* \"#utility.yul\":15337:15430   */\n      tag_483\n        /* \"#utility.yul\":15426:15429   */\n      dup3\n        /* \"#utility.yul\":15337:15430   */\n      tag_297\n      jump\t// in\n    tag_483:\n        /* \"#utility.yul\":15455:15457   */\n      0x20\n        /* \"#utility.yul\":15450:15453   */\n      dup3\n        /* \"#utility.yul\":15446:15458   */\n      add\n        /* \"#utility.yul\":15439:15458   */\n      swap1\n      pop\n        /* \"#utility.yul\":15098:15464   */\n      swap2\n      swap1\n      pop\n      jump\t// out\n        /* \"#utility.yul\":15470:15889   */\n    tag_80:\n        /* \"#utility.yul\":15636:15640   */\n      0x00\n        /* \"#utility.yul\":15674:15676   */\n      0x20\n        /* \"#utility.yul\":15663:15672   */\n      dup3\n        /* \"#utility.yul\":15659:15677   */\n      add\n        /* \"#utility.yul\":15651:15677   */\n      swap1\n      pop\n        /* \"#utility.yul\":15723:15732   */\n      dup2\n        /* \"#utility.yul\":15717:15721   */\n      dup2\n        /* \"#utility.yul\":15713:15733   */\n      sub\n        /* \"#utility.yul\":15709:15710   */\n      0x00\n        /* \"#utility.yul\":15698:15707   */\n      dup4\n        /* \"#utility.yul\":15694:15711   */\n      add\n        /* \"#utility.yul\":15687:15734   */\n      mstore\n        /* \"#utility.yul\":15751:15882   */\n      tag_485\n        /* \"#utility.yul\":15877:15881   */\n      dup2\n        /* \"#utility.yul\":15751:15882   */\n      tag_298\n      jump\t// in\n    tag_485:\n        /* \"#utility.yul\":15743:15882   */\n      swap1\n      pop\n        /* \"#utility.yul\":15470:15889   */\n      swap2\n      swap1\n      pop\n      jump\t// out\n        /* \"#utility.yul\":15895:16068   */\n    tag_299:\n        /* \"#utility.yul\":16035:16060   */\n      0x4e6577204349442063616e6e6f7420626520656d707479000000000000000000\n        /* \"#utility.yul\":16031:16032   */\n      0x00\n        /* \"#utility.yul\":16023:16029   */\n      dup3\n        /* \"#utility.yul\":16019:16033   */\n      add\n        /* \"#utility.yul\":16012:16061   */\n      mstore\n        /* \"#utility.yul\":15895:16068   */\n      pop\n      jump\t// out\n        /* \"#utility.yul\":16074:16440   */\n    tag_300:\n        /* \"#utility.yul\":16216:16219   */\n      0x00\n        /* \"#utility.yul\":16237:16304   */\n      tag_488\n        /* \"#utility.yul\":16301:16303   */\n      0x17\n        /* \"#utility.yul\":16296:16299   */\n      dup4\n        /* \"#utility.yul\":16237:16304   */\n      tag_289\n      jump\t// in\n    tag_488:\n        /* \"#utility.yul\":16230:16304   */\n      swap2\n      pop\n        /* \"#utility.yul\":16313:16406   */\n      tag_489\n        /* \"#utility.yul\":16402:16405   */\n      dup3\n        /* \"#utility.yul\":16313:16406   */\n      tag_299\n      jump\t// in\n    tag_489:\n        /* \"#utility.yul\":16431:16433   */\n      0x20\n        /* \"#utility.yul\":16426:16429   */\n      dup3\n        /* \"#utility.yul\":16422:16434   */\n      add\n        /* \"#utility.yul\":16415:16434   */\n      swap1\n      pop\n        /* \"#utility.yul\":16074:16440   */\n      swap2\n      swap1\n      pop\n      jump\t// out\n        /* \"#utility.yul\":16446:16865   */\n    tag_83:\n        /* \"#utility.yul\":16612:16616   */\n      0x00\n        /* \"#utility.yul\":16650:16652   */\n      0x20\n        /* \"#utility.yul\":16639:16648   */\n      dup3\n        /* \"#utility.yul\":16635:16653   */\n      add\n        /* \"#utility.yul\":16627:16653   */\n      swap1\n      pop\n        /* \"#utility.yul\":16699:16708   */\n      dup2\n        /* \"#utility.yul\":16693:16697   */\n      dup2\n        /* \"#utility.yul\":16689:16709   */\n      sub\n        /* \"#utility.yul\":16685:16686   */\n      0x00\n        /* \"#utility.yul\":16674:16683   */\n      dup4\n        /* \"#utility.yul\":16670:16687   */\n      add\n        /* \"#utility.yul\":16663:16710   */\n      mstore\n        /* \"#utility.yul\":16727:16858   */\n      tag_491\n        /* \"#utility.yul\":16853:16857   */\n      dup2\n        /* \"#utility.yul\":16727:16858   */\n      tag_300\n      jump\t// in\n    tag_491:\n        /* \"#utility.yul\":16719:16858   */\n      swap1\n      pop\n        /* \"#utility.yul\":16446:16865   */\n      swap2\n      swap1\n      pop\n      jump\t// out\n        /* \"#utility.yul\":16871:17043   */\n    tag_301:\n        /* \"#utility.yul\":17011:17035   */\n      0x4e65772043494420616c72656164792065786973747300000000000000000000\n        /* \"#utility.yul\":17007:17008   */\n      0x00\n        /* \"#utility.yul\":16999:17005   */\n      dup3\n        /* \"#utility.yul\":16995:17009   */\n      add\n        /* \"#utility.yul\":16988:17036   */\n      mstore\n        /* \"#utility.yul\":16871:17043   */\n      pop\n      jump\t// out\n        /* \"#utility.yul\":17049:17415   */\n    tag_302:\n        /* \"#utility.yul\":17191:17194   */\n      0x00\n        /* \"#utility.yul\":17212:17279   */\n      tag_494\n        /* \"#utility.yul\":17276:17278   */\n      0x16\n        /* \"#utility.yul\":17271:17274   */\n      dup4\n        /* \"#utility.yul\":17212:17279   */\n      tag_289\n      jump\t// in\n    tag_494:\n        /* \"#utility.yul\":17205:17279   */\n      swap2\n      pop\n        /* \"#utility.yul\":17288:17381   */\n      tag_495\n        /* \"#utility.yul\":17377:17380   */\n      dup3\n        /* \"#utility.yul\":17288:17381   */\n      tag_301\n      jump\t// in\n    tag_495:\n        /* \"#utility.yul\":17406:17408   */\n      0x20\n        /* \"#utility.yul\":17401:17404   */\n      dup3\n        /* \"#utility.yul\":17397:17409   */\n      add\n        /* \"#utility.yul\":17390:17409   */\n      swap1\n      pop\n        /* \"#utility.yul\":17049:17415   */\n      swap2\n      swap1\n      pop\n      jump\t// out\n        /* \"#utility.yul\":17421:17840   */\n    tag_87:\n        /* \"#utility.yul\":17587:17591   */\n      0x00\n        /* \"#utility.yul\":17625:17627   */\n      0x20\n        /* \"#utility.yul\":17614:17623   */\n      dup3\n        /* \"#utility.yul\":17610:17628   */\n      add\n        /* \"#utility.yul\":17602:17628   */\n      swap1\n      pop\n        /* \"#utility.yul\":17674:17683   */\n      dup2\n        /* \"#utility.yul\":17668:17672   */\n      dup2\n        /* \"#utility.yul\":17664:17684   */\n      sub\n        /* \"#utility.yul\":17660:17661   */\n      0x00\n        /* \"#utility.yul\":17649:17658   */\n      dup4\n        /* \"#utility.yul\":17645:17662   */\n      add\n        /* \"#utility.yul\":17638:17685   */\n      mstore\n        /* \"#utility.yul\":17702:17833   */\n      tag_497\n        /* \"#utility.yul\":17828:17832   */\n      dup2\n        /* \"#utility.yul\":17702:17833   */\n      tag_302\n      jump\t// in\n    tag_497:\n        /* \"#utility.yul\":17694:17833   */\n      swap1\n      pop\n        /* \"#utility.yul\":17421:17840   */\n      swap2\n      swap1\n      pop\n      jump\t// out\n        /* \"#utility.yul\":17846:18026   */\n    tag_303:\n        /* \"#utility.yul\":17894:17971   */\n      0x4e487b7100000000000000000000000000000000000000000000000000000000\n        /* \"#utility.yul\":17891:17892   */\n      0x00\n        /* \"#utility.yul\":17884:17972   */\n      mstore\n        /* \"#utility.yul\":17991:17995   */\n      0x22\n        /* \"#utility.yul\":17988:17989   */\n      0x04\n        /* \"#utility.yul\":17981:17996   */\n      mstore\n        /* \"#utility.yul\":18015:18019   */\n      0x24\n        /* \"#utility.yul\":18012:18013   */\n      0x00\n        /* \"#utility.yul\":18005:18020   */\n      revert\n        /* \"#utility.yul\":18032:18352   */\n    tag_127:\n        /* \"#utility.yul\":18076:18082   */\n      0x00\n        /* \"#utility.yul\":18113:18114   */\n      0x02\n        /* \"#utility.yul\":18107:18111   */\n      dup3\n        /* \"#utility.yul\":18103:18115   */\n      div\n        /* \"#utility.yul\":18093:18115   */\n      swap1\n      pop\n        /* \"#utility.yul\":18160:18161   */\n      0x01\n        /* \"#utility.yul\":18154:18158   */\n      dup3\n        /* \"#utility.yul\":18150:18162   */\n      and\n        /* \"#utility.yul\":18181:18199   */\n      dup1\n        /* \"#utility.yul\":18171:18252   */\n      tag_500\n      jumpi\n        /* \"#utility.yul\":18237:18241   */\n      0x7f\n        /* \"#utility.yul\":18229:18235   */\n      dup3\n        /* \"#utility.yul\":18225:18242   */\n      and\n        /* \"#utility.yul\":18215:18242   */\n      swap2\n      pop\n        /* \"#utility.yul\":18171:18252   */\n    tag_500:\n        /* \"#utility.yul\":18299:18301   */\n      0x20\n        /* \"#utility.yul\":18291:18297   */\n      dup3\n        /* \"#utility.yul\":18288:18302   */\n      lt\n        /* \"#utility.yul\":18268:18286   */\n      dup2\n        /* \"#utility.yul\":18265:18303   */\n      sub\n        /* \"#utility.yul\":18262:18346   */\n      tag_501\n      jumpi\n        /* \"#utility.yul\":18318:18336   */\n      tag_502\n      tag_303\n      jump\t// in\n    tag_502:\n        /* \"#utility.yul\":18262:18346   */\n    tag_501:\n        /* \"#utility.yul\":18083:18352   */\n      pop\n        /* \"#utility.yul\":18032:18352   */\n      swap2\n      swap1\n      pop\n      jump\t// out\n        /* \"#utility.yul\":18358:18499   */\n    tag_304:\n        /* \"#utility.yul\":18407:18411   */\n      0x00\n        /* \"#utility.yul\":18430:18433   */\n      dup2\n        /* \"#utility.yul\":18422:18433   */\n      swap1\n      pop\n        /* \"#utility.yul\":18453:18456   */\n      dup2\n        /* \"#utility.yul\":18450:18451   */\n      0x00\n        /* \"#utility.yul\":18443:18457   */\n      mstore\n        /* \"#utility.yul\":18487:18491   */\n      0x20\n        /* \"#utility.yul\":18484:18485   */\n      0x00\n        /* \"#utility.yul\":18474:18492   */\n      keccak256\n        /* \"#utility.yul\":18466:18492   */\n      swap1\n      pop\n        /* \"#utility.yul\":18358:18499   */\n      swap2\n      swap1\n      pop\n      jump\t// out\n        /* \"#utility.yul\":18505:18598   */\n    tag_305:\n        /* \"#utility.yul\":18542:18548   */\n      0x00\n        /* \"#utility.yul\":18589:18591   */\n      0x20\n        /* \"#utility.yul\":18584:18586   */\n      0x1f\n        /* \"#utility.yul\":18577:18582   */\n      dup4\n        /* \"#utility.yul\":18573:18587   */\n      add\n        /* \"#utility.yul\":18569:18592   */\n      div\n        /* \"#utility.yul\":18559:18592   */\n      swap1\n      pop\n        /* \"#utility.yul\":18505:18598   */\n      swap2\n      swap1\n      pop\n      jump\t// out\n        /* \"#utility.yul\":18604:18711   */\n    tag_306:\n        /* \"#utility.yul\":18648:18656   */\n      0x00\n        /* \"#utility.yul\":18698:18703   */\n      dup3\n        /* \"#utility.yul\":18692:18696   */\n      dup3\n        /* \"#utility.yul\":18688:18704   */\n      shl\n        /* \"#utility.yul\":18667:18704   */\n      swap1\n      pop\n        /* \"#utility.yul\":18604:18711   */\n      swap3\n      swap2\n      pop\n      pop\n      jump\t// out\n        /* \"#utility.yul\":18717:19110   */\n    tag_307:\n        /* \"#utility.yul\":18786:18792   */\n      0x00\n        /* \"#utility.yul\":18836:18837   */\n      0x08\n        /* \"#utility.yul\":18824:18834   */\n      dup4\n        /* \"#utility.yul\":18820:18838   */\n      mul\n        /* \"#utility.yul\":18859:18956   */\n      tag_507\n        /* \"#utility.yul\":18889:18955   */\n      0xffffffffffffffffffffffffffffffffffffffffffffffffffffffffffffffff\n        /* \"#utility.yul\":18878:18887   */\n      dup3\n        /* \"#utility.yul\":18859:18956   */\n      tag_306\n      jump\t// in\n    tag_507:\n        /* \"#utility.yul\":18977:19016   */\n      tag_508\n        /* \"#utility.yul\":19007:19015   */\n      dup7\n        /* \"#utility.yul\":18996:19005   */\n      dup4\n        /* \"#utility.yul\":18977:19016   */\n      tag_306\n      jump\t// in\n    tag_508:\n        /* \"#utility.yul\":18965:19016   */\n      swap6\n      pop\n        /* \"#utility.yul\":19049:19053   */\n      dup1\n        /* \"#utility.yul\":19045:19054   */\n      not\n        /* \"#utility.yul\":19038:19043   */\n      dup5\n        /* \"#utility.yul\":19034:19055   */\n      and\n        /* \"#utility.yul\":19025:19055   */\n      swap4\n      pop\n        /* \"#utility.yul\":19098:19102   */\n      dup1\n        /* \"#utility.yul\":19088:19096   */\n      dup7\n        /* \"#utility.yul\":19084:19103   */\n      and\n        /* \"#utility.yul\":19077:19082   */\n      dup5\n        /* \"#utility.yul\":19074:19104   */\n      or\n        /* \"#utility.yul\":19064:19104   */\n      swap3\n      pop\n        /* \"#utility.yul\":18793:19110   */\n      pop\n      pop\n        /* \"#utility.yul\":18717:19110   */\n      swap4\n      swap3\n      pop\n      pop\n      pop\n      jump\t// out\n        /* \"#utility.yul\":19116:19176   */\n    tag_308:\n        /* \"#utility.yul\":19144:19147   */\n      0x00\n        /* \"#utility.yul\":19165:19170   */\n      dup2\n        /* \"#utility.yul\":19158:19170   */\n      swap1\n      pop\n        /* \"#utility.yul\":19116:19176   */\n      swap2\n      swap1\n      pop\n      jump\t// out\n        /* \"#utility.yul\":19182:19324   */\n    tag_309:\n        /* \"#utility.yul\":19232:19241   */\n      0x00\n        /* \"#utility.yul\":19265:19318   */\n      tag_511\n        /* \"#utility.yul\":19283:19317   */\n      tag_512\n        /* \"#utility.yul\":19292:19316   */\n      tag_513\n        /* \"#utility.yul\":19310:19315   */\n      dup5\n        /* \"#utility.yul\":19292:19316   */\n      tag_260\n      jump\t// in\n    tag_513:\n        /* \"#utility.yul\":19283:19317   */\n      tag_308\n      jump\t// in\n    tag_512:\n        /* \"#utility.yul\":19265:19318   */\n      tag_260\n      jump\t// in\n    tag_511:\n        /* \"#utility.yul\":19252:19318   */\n      swap1\n      pop\n        /* \"#utility.yul\":19182:19324   */\n      swap2\n      swap1\n      pop\n      jump\t// out\n        /* \"#utility.yul\":19330:19405   */\n    tag_310:\n        /* \"#utility.yul\":19373:19376   */\n      0x00\n        /* \"#utility.yul\":19394:19399   */\n      dup2\n        /* \"#utility.yul\":19387:19399   */\n      swap1\n      pop\n        /* \"#utility.yul\":19330:19405   */\n      swap2\n      swap1\n      pop\n      jump\t// out\n        /* \"#utility.yul\":19411:19680   */\n    tag_311:\n        /* \"#utility.yul\":19521:19560   */\n      tag_516\n        /* \"#utility.yul\":19552:19559   */\n      dup4\n        /* \"#utility.yul\":19521:19560   */\n      tag_309\n      jump\t// in\n    tag_516:\n        /* \"#utility.yul\":19582:19673   */\n      tag_517\n        /* \"#utility.yul\":19631:19672   */\n      tag_518\n        /* \"#utility.yul\":19655:19671   */\n      dup3\n        /* \"#utility.yul\":19631:19672   */\n      tag_310\n      jump\t// in\n    tag_518:\n        /* \"#utility.yul\":19623:19629   */\n      dup5\n        /* \"#utility.yul\":19616:19620   */\n      dup5\n        /* \"#utility.yul\":19610:19621   */\n      sload\n        /* \"#utility.yul\":19582:19673   */\n      tag_307\n      jump\t// in\n    tag_517:\n        /* \"#utility.yul\":19576:19580   */\n      dup3\n        /* \"#utility.yul\":19569:19674   */\n      sstore\n        /* \"#utility.yul\":19487:19680   */\n      pop\n        /* \"#utility.yul\":19411:19680   */\n      pop\n      pop\n      pop\n      jump\t// out\n        /* \"#utility.yul\":19686:19759   */\n    tag_312:\n        /* \"#utility.yul\":19731:19734   */\n      0x00\n        /* \"#utility.yul\":19752:19753   */\n      0x00\n        /* \"#utility.yul\":19745:19753   */\n      swap1\n      pop\n        /* \"#utility.yul\":19686:19759   */\n      swap1\n      jump\t// out\n        /* \"#utility.yul\":19765:19954   */\n    tag_313:\n        /* \"#utility.yul\":19842:19874   */\n      tag_521\n      tag_312\n      jump\t// in\n    tag_521:\n        /* \"#utility.yul\":19883:19948   */\n      tag_522\n        /* \"#utility.yul\":19941:19947   */\n      dup2\n        /* \"#utility.yul\":19933:19939   */\n      dup5\n        /* \"#utility.yul\":19927:19931   */\n      dup5\n        /* \"#utility.yul\":19883:19948   */\n      tag_311\n      jump\t// in\n    tag_522:\n        /* \"#utility.yul\":19818:19954   */\n      pop\n        /* \"#utility.yul\":19765:19954   */\n      pop\n      pop\n      jump\t// out\n        /* \"#utility.yul\":19960:20146   */\n    tag_314:\n        /* \"#utility.yul\":20020:20140   */\n    tag_524:\n        /* \"#utility.yul\":20037:20040   */\n      dup2\n        /* \"#utility.yul\":20030:20035   */\n      dup2\n        /* \"#utility.yul\":20027:20041   */\n      lt\n        /* \"#utility.yul\":20020:20140   */\n      iszero\n      tag_526\n      jumpi\n        /* \"#utility.yul\":20091:20130   */\n      tag_527\n        /* \"#utility.yul\":20128:20129   */\n      0x00\n        /* \"#utility.yul\":20121:20126   */\n      dup3\n        /* \"#utility.yul\":20091:20130   */\n      tag_313\n      jump\t// in\n    tag_527:\n        /* \"#utility.yul\":20064:20065   */\n      0x01\n        /* \"#utility.yul\":20057:20062   */\n      dup2\n        /* \"#utility.yul\":20053:20066   */\n      add\n        /* \"#utility.yul\":20044:20066   */\n      swap1\n      pop\n        /* \"#utility.yul\":20020:20140   */\n      jump(tag_524)\n    tag_526:\n        /* \"#utility.yul\":19960:20146   */\n      pop\n      pop\n      jump\t// out\n        /* \"#utility.yul\":20152:20695   */\n    tag_315:\n        /* \"#utility.yul\":20253:20255   */\n      0x1f\n        /* \"#utility.yul\":20248:20251   */\n      dup3\n        /* \"#utility.yul\":20245:20256   */\n      gt\n        /* \"#utility.yul\":20242:20688   */\n      iszero\n      tag_529\n      jumpi\n        /* \"#utility.yul\":20287:20325   */\n      tag_530\n        /* \"#utility.yul\":20319:20324   */\n      dup2\n        /* \"#utility.yul\":20287:20325   */\n      tag_304\n      jump\t// in\n    tag_530:\n        /* \"#utility.yul\":20371:20400   */\n      tag_531\n        /* \"#utility.yul\":20389:20399   */\n      dup5\n        /* \"#utility.yul\":20371:20400   */\n      tag_305\n      jump\t// in\n    tag_531:\n        /* \"#utility.yul\":20361:20369   */\n      dup2\n        /* \"#utility.yul\":20357:20401   */\n      add\n        /* \"#utility.yul\":20554:20556   */\n      0x20\n        /* \"#utility.yul\":20542:20552   */\n      dup6\n        /* \"#utility.yul\":20539:20557   */\n      lt\n        /* \"#utility.yul\":20536:20585   */\n      iszero\n      tag_532\n      jumpi\n        /* \"#utility.yul\":20575:20583   */\n      dup2\n        /* \"#utility.yul\":20560:20583   */\n      swap1\n      pop\n        /* \"#utility.yul\":20536:20585   */\n    tag_532:\n        /* \"#utility.yul\":20598:20678   */\n      tag_533\n        /* \"#utility.yul\":20654:20676   */\n      tag_534\n        /* \"#utility.yul\":20672:20675   */\n      dup6\n        /* \"#utility.yul\":20654:20676   */\n      tag_305\n      jump\t// in\n    tag_534:\n        /* \"#utility.yul\":20644:20652   */\n      dup4\n        /* \"#utility.yul\":20640:20677   */\n      add\n        /* \"#utility.yul\":20627:20638   */\n      dup3\n        /* \"#utility.yul\":20598:20678   */\n      tag_314\n      jump\t// in\n    tag_533:\n        /* \"#utility.yul\":20257:20688   */\n      pop\n      pop\n        /* \"#utility.yul\":20242:20688   */\n    tag_529:\n        /* \"#utility.yul\":20152:20695   */\n      pop\n      pop\n      pop\n      jump\t// out\n        /* \"#utility.yul\":20701:20818   */\n    tag_316:\n        /* \"#utility.yul\":20755:20763   */\n      0x00\n        /* \"#utility.yul\":20805:20810   */\n      dup3\n        /* \"#utility.yul\":20799:20803   */\n      dup3\n        /* \"#utility.yul\":20795:20811   */\n      shr\n        /* \"#utility.yul\":20774:20811   */\n      swap1\n      pop\n        /* \"#utility.yul\":20701:20818   */\n      swap3\n      swap2\n      pop\n      pop\n      jump\t// out\n        /* \"#utility.yul\":20824:20993   */\n    tag_317:\n        /* \"#utility.yul\":20868:20874   */\n      0x00\n        /* \"#utility.yul\":20901:20952   */\n      tag_537\n        /* \"#utility.yul\":20949:20950   */\n      0x00\n        /* \"#utility.yul\":20945:20951   */\n      not\n        /* \"#utility.yul\":20937:20942   */\n      dup5\n        /* \"#utility.yul\":20934:20935   */\n      0x08\n        /* \"#utility.yul\":20930:20943   */\n      mul\n        /* \"#utility.yul\":20901:20952   */\n      tag_316\n      jump\t// in\n    tag_537:\n        /* \"#utility.yul\":20897:20953   */\n      not\n        /* \"#utility.yul\":20982:20986   */\n      dup1\n        /* \"#utility.yul\":20976:20980   */\n      dup4\n        /* \"#utility.yul\":20972:20987   */\n      and\n        /* \"#utility.yul\":20962:20987   */\n      swap2\n      pop\n        /* \"#utility.yul\":20875:20993   */\n      pop\n        /* \"#utility.yul\":20824:20993   */\n      swap3\n      swap2\n      pop\n      pop\n      jump\t// out\n        /* \"#utility.yul\":20998:21293   */\n    tag_318:\n        /* \"#utility.yul\":21074:21078   */\n      0x00\n        /* \"#utility.yul\":21220:21249   */\n      tag_539\n        /* \"#utility.yul\":21245:21248   */\n      dup4\n        /* \"#utility.yul\":21239:21243   */\n      dup4\n        /* \"#utility.yul\":21220:21249   */\n      tag_317\n      jump\t// in\n    tag_539:\n        /* \"#utility.yul\":21212:21249   */\n      swap2\n      pop\n        /* \"#utility.yul\":21282:21285   */\n      dup3\n        /* \"#utility.yul\":21279:21280   */\n      0x02\n        /* \"#utility.yul\":21275:21286   */\n      mul\n        /* \"#utility.yul\":21269:21273   */\n      dup3\n        /* \"#utility.yul\":21266:21287   */\n      or\n        /* \"#utility.yul\":21258:21287   */\n      swap1\n      pop\n        /* \"#utility.yul\":20998:21293   */\n      swap3\n      swap2\n      pop\n      pop\n      jump\t// out\n        /* \"#utility.yul\":21298:22693   */\n    tag_90:\n        /* \"#utility.yul\":21415:21452   */\n      tag_541\n        /* \"#utility.yul\":21448:21451   */\n      dup3\n        /* \"#utility.yul\":21415:21452   */\n      tag_275\n      jump\t// in\n    tag_541:\n        /* \"#utility.yul\":21517:21535   */\n      0xffffffffffffffff\n        /* \"#utility.yul\":21509:21515   */\n      dup2\n        /* \"#utility.yul\":21506:21536   */\n      gt\n        /* \"#utility.yul\":21503:21559   */\n      iszero\n      tag_542\n      jumpi\n        /* \"#utility.yul\":21539:21557   */\n      tag_543\n      tag_265\n      jump\t// in\n    tag_543:\n        /* \"#utility.yul\":21503:21559   */\n    tag_542:\n        /* \"#utility.yul\":21583:21621   */\n      tag_544\n        /* \"#utility.yul\":21615:21619   */\n      dup3\n        /* \"#utility.yul\":21609:21620   */\n      sload\n        /* \"#utility.yul\":21583:21621   */\n      tag_127\n      jump\t// in\n    tag_544:\n        /* \"#utility.yul\":21668:21735   */\n      tag_545\n        /* \"#utility.yul\":21728:21734   */\n      dup3\n        /* \"#utility.yul\":21720:21726   */\n      dup3\n        /* \"#utility.yul\":21714:21718   */\n      dup6\n        /* \"#utility.yul\":21668:21735   */\n      tag_315\n      jump\t// in\n    tag_545:\n        /* \"#utility.yul\":21762:21763   */\n      0x00\n        /* \"#utility.yul\":21786:21790   */\n      0x20\n        /* \"#utility.yul\":21773:21790   */\n      swap1\n      pop\n        /* \"#utility.yul\":21818:21820   */\n      0x1f\n        /* \"#utility.yul\":21810:21816   */\n      dup4\n        /* \"#utility.yul\":21807:21821   */\n      gt\n        /* \"#utility.yul\":21835:21836   */\n      0x01\n        /* \"#utility.yul\":21830:22448   */\n      dup2\n      eq\n      tag_547\n      jumpi\n        /* \"#utility.yul\":22492:22493   */\n      0x00\n        /* \"#utility.yul\":22509:22515   */\n      dup5\n        /* \"#utility.yul\":22506:22583   */\n      iszero\n      tag_548\n      jumpi\n        /* \"#utility.yul\":22558:22567   */\n      dup3\n        /* \"#utility.yul\":22553:22556   */\n      dup8\n        /* \"#utility.yul\":22549:22568   */\n      add\n        /* \"#utility.yul\":22543:22569   */\n      mload\n        /* \"#utility.yul\":22534:22569   */\n      swap1\n      pop\n        /* \"#utility.yul\":22506:22583   */\n    tag_548:\n        /* \"#utility.yul\":22609:22676   */\n      tag_549\n        /* \"#utility.yul\":22669:22675   */\n      dup6\n        /* \"#utility.yul\":22662:22667   */\n      dup3\n        /* \"#utility.yul\":22609:22676   */\n      tag_318\n      jump\t// in\n    tag_549:\n        /* \"#utility.yul\":22603:22607   */\n      dup7\n        /* \"#utility.yul\":22596:22677   */\n      sstore\n        /* \"#utility.yul\":22465:22687   */\n      pop\n        /* \"#utility.yul\":21800:22687   */\n      jump(tag_546)\n        /* \"#utility.yul\":21830:22448   */\n    tag_547:\n        /* \"#utility.yul\":21882:21886   */\n      0x1f\n        /* \"#utility.yul\":21878:21887   */\n      not\n        /* \"#utility.yul\":21870:21876   */\n      dup5\n        /* \"#utility.yul\":21866:21888   */\n      and\n        /* \"#utility.yul\":21916:21953   */\n      tag_550\n        /* \"#utility.yul\":21948:21952   */\n      dup7\n        /* \"#utility.yul\":21916:21953   */\n      tag_304\n      jump\t// in\n    tag_550:\n        /* \"#utility.yul\":21975:21976   */\n      0x00\n        /* \"#utility.yul\":21989:22197   */\n    tag_551:\n        /* \"#utility.yul\":22003:22010   */\n      dup3\n        /* \"#utility.yul\":22000:22001   */\n      dup2\n        /* \"#utility.yul\":21997:22011   */\n      lt\n        /* \"#utility.yul\":21989:22197   */\n      iszero\n      tag_553\n      jumpi\n        /* \"#utility.yul\":22082:22091   */\n      dup5\n        /* \"#utility.yul\":22077:22080   */\n      dup10\n        /* \"#utility.yul\":22073:22092   */\n      add\n        /* \"#utility.yul\":22067:22093   */\n      mload\n        /* \"#utility.yul\":22059:22065   */\n      dup3\n        /* \"#utility.yul\":22052:22094   */\n      sstore\n        /* \"#utility.yul\":22133:22134   */\n      0x01\n        /* \"#utility.yul\":22125:22131   */\n      dup3\n        /* \"#utility.yul\":22121:22135   */\n      add\n        /* \"#utility.yul\":22111:22135   */\n      swap2\n      pop\n        /* \"#utility.yul\":22180:22182   */\n      0x20\n        /* \"#utility.yul\":22169:22178   */\n      dup6\n        /* \"#utility.yul\":22165:22183   */\n      add\n        /* \"#utility.yul\":22152:22183   */\n      swap5\n      pop\n        /* \"#utility.yul\":22026:22030   */\n      0x20\n        /* \"#utility.yul\":22023:22024   */\n      dup2\n        /* \"#utility.yul\":22019:22031   */\n      add\n        /* \"#utility.yul\":22014:22031   */\n      swap1\n      pop\n        /* \"#utility.yul\":21989:22197   */\n      jump(tag_551)\n    tag_553:\n        /* \"#utility.yul\":22225:22231   */\n      dup7\n        /* \"#utility.yul\":22216:22223   */\n      dup4\n        /* \"#utility.yul\":22213:22232   */\n      lt\n        /* \"#utility.yul\":22210:22389   */\n      iszero\n      tag_554\n      jumpi\n        /* \"#utility.yul\":22283:22292   */\n      dup5\n        /* \"#utility.yul\":22278:22281   */\n      dup10\n        /* \"#utility.yul\":22274:22293   */\n      add\n        /* \"#utility.yul\":22268:22294   */\n      mload\n        /* \"#utility.yul\":22326:22374   */\n      tag_555\n        /* \"#utility.yul\":22368:22372   */\n      0x1f\n        /* \"#utility.yul\":22360:22366   */\n      dup10\n        /* \"#utility.yul\":22356:22373   */\n      and\n        /* \"#utility.yul\":22345:22354   */\n      dup3\n        /* \"#utility.yul\":22326:22374   */\n      tag_317\n      jump\t// in\n    tag_555:\n        /* \"#utility.yul\":22318:22324   */\n      dup4\n        /* \"#utility.yul\":22311:22375   */\n      sstore\n        /* \"#utility.yul\":22233:22389   */\n      pop\n        /* \"#utility.yul\":22210:22389   */\n    tag_554:\n        /* \"#utility.yul\":22435:22436   */\n      0x01\n        /* \"#utility.yul\":22431:22432   */\n      0x02\n        /* \"#utility.yul\":22423:22429   */\n      dup9\n        /* \"#utility.yul\":22419:22433   */\n      mul\n        /* \"#utility.yul\":22415:22437   */\n      add\n        /* \"#utility.yul\":22409:22413   */\n      dup9\n        /* \"#utility.yul\":22402:22438   */\n      sstore\n        /* \"#utility.yul\":21837:22448   */\n      pop\n      pop\n      pop\n        /* \"#utility.yul\":21800:22687   */\n    tag_546:\n      pop\n        /* \"#utility.yul\":21390:22693   */\n      pop\n      pop\n      pop\n        /* \"#utility.yul\":21298:22693   */\n      pop\n      pop\n      jump\t// out\n        /* \"#utility.yul\":22699:22879   */\n    tag_96:\n        /* \"#utility.yul\":22747:22824   */\n      0x4e487b7100000000000000000000000000000000000000000000000000000000\n        /* \"#utility.yul\":22744:22745   */\n      0x00\n        /* \"#utility.yul\":22737:22825   */\n      mstore\n        /* \"#utility.yul\":22844:22848   */\n      0x32\n        /* \"#utility.yul\":22841:22842   */\n      0x04\n        /* \"#utility.yul\":22834:22849   */\n      mstore\n        /* \"#utility.yul\":22868:22872   */\n      0x24\n        /* \"#utility.yul\":22865:22866   */\n      0x00\n        /* \"#utility.yul\":22858:22873   */\n      revert\n        /* \"#utility.yul\":22885:23032   */\n    tag_319:\n        /* \"#utility.yul\":22986:22997   */\n      0x00\n        /* \"#utility.yul\":23023:23026   */\n      dup2\n        /* \"#utility.yul\":23008:23026   */\n      swap1\n      pop\n        /* \"#utility.yul\":22885:23032   */\n      swap3\n      swap2\n      pop\n      pop\n      jump\t// out\n        /* \"#utility.yul\":23038:23182   */\n    tag_320:\n        /* \"#utility.yul\":23090:23094   */\n      0x00\n        /* \"#utility.yul\":23113:23116   */\n      dup2\n        /* \"#utility.yul\":23105:23116   */\n      swap1\n      pop\n        /* \"#utility.yul\":23136:23139   */\n      dup2\n        /* \"#utility.yul\":23133:23134   */\n      0x00\n        /* \"#utility.yul\":23126:23140   */\n      mstore\n        /* \"#utility.yul\":23170:23174   */\n      0x20\n        /* \"#utility.yul\":23167:23168   */\n      0x00\n        /* \"#utility.yul\":23157:23175   */\n      keccak256\n        /* \"#utility.yul\":23149:23175   */\n      swap1\n      pop\n        /* \"#utility.yul\":23038:23182   */\n      swap2\n      swap1\n      pop\n      jump\t// out\n        /* \"#utility.yul\":23210:24088   */\n    tag_321:\n        /* \"#utility.yul\":23315:23318   */\n      0x00\n        /* \"#utility.yul\":23352:23357   */\n      dup2\n        /* \"#utility.yul\":23346:23358   */\n      sload\n        /* \"#utility.yul\":23381:23417   */\n      tag_560\n        /* \"#utility.yul\":23407:23416   */\n      dup2\n        /* \"#utility.yul\":23381:23417   */\n      tag_127\n      jump\t// in\n    tag_560:\n        /* \"#utility.yul\":23433:23521   */\n      tag_561\n        /* \"#utility.yul\":23514:23520   */\n      dup2\n        /* \"#utility.yul\":23509:23512   */\n      dup7\n        /* \"#utility.yul\":23433:23521   */\n      tag_319\n      jump\t// in\n    tag_561:\n        /* \"#utility.yul\":23426:23521   */\n      swap5\n      pop\n        /* \"#utility.yul\":23552:23553   */\n      0x01\n        /* \"#utility.yul\":23541:23550   */\n      dup3\n        /* \"#utility.yul\":23537:23554   */\n      and\n        /* \"#utility.yul\":23568:23569   */\n      0x00\n        /* \"#utility.yul\":23563:23729   */\n      dup2\n      eq\n      tag_563\n      jumpi\n        /* \"#utility.yul\":23743:23744   */\n      0x01\n        /* \"#utility.yul\":23738:24082   */\n      dup2\n      eq\n      tag_564\n      jumpi\n        /* \"#utility.yul\":23530:24082   */\n      jump(tag_562)\n        /* \"#utility.yul\":23563:23729   */\n    tag_563:\n        /* \"#utility.yul\":23647:23651   */\n      0xff\n        /* \"#utility.yul\":23643:23652   */\n      not\n        /* \"#utility.yul\":23632:23641   */\n      dup4\n        /* \"#utility.yul\":23628:23653   */\n      and\n        /* \"#utility.yul\":23623:23626   */\n      dup7\n        /* \"#utility.yul\":23616:23654   */\n      mstore\n        /* \"#utility.yul\":23709:23715   */\n      dup2\n        /* \"#utility.yul\":23702:23716   */\n      iszero\n        /* \"#utility.yul\":23695:23717   */\n      iszero\n        /* \"#utility.yul\":23687:23693   */\n      dup3\n        /* \"#utility.yul\":23683:23718   */\n      mul\n        /* \"#utility.yul\":23678:23681   */\n      dup7\n        /* \"#utility.yul\":23674:23719   */\n      add\n        /* \"#utility.yul\":23667:23719   */\n      swap4\n      pop\n        /* \"#utility.yul\":23563:23729   */\n      jump(tag_562)\n        /* \"#utility.yul\":23738:24082   */\n    tag_564:\n        /* \"#utility.yul\":23805:23846   */\n      tag_565\n        /* \"#utility.yul\":23840:23845   */\n      dup6\n        /* \"#utility.yul\":23805:23846   */\n      tag_320\n      jump\t// in\n    tag_565:\n        /* \"#utility.yul\":23868:23869   */\n      0x00\n        /* \"#utility.yul\":23882:24036   */\n    tag_566:\n        /* \"#utility.yul\":23896:23902   */\n      dup4\n        /* \"#utility.yul\":23893:23894   */\n      dup2\n        /* \"#utility.yul\":23890:23903   */\n      lt\n        /* \"#utility.yul\":23882:24036   */\n      iszero\n      tag_568\n      jumpi\n        /* \"#utility.yul\":23970:23977   */\n      dup2\n        /* \"#utility.yul\":23964:23978   */\n      sload\n        /* \"#utility.yul\":23960:23961   */\n      dup2\n        /* \"#utility.yul\":23955:23958   */\n      dup10\n        /* \"#utility.yul\":23951:23962   */\n      add\n        /* \"#utility.yul\":23944:23979   */\n      mstore\n        /* \"#utility.yul\":24020:24021   */\n      0x01\n        /* \"#utility.yul\":24011:24018   */\n      dup3\n        /* \"#utility.yul\":24007:24022   */\n      add\n        /* \"#utility.yul\":23996:24022   */\n      swap2\n      pop\n        /* \"#utility.yul\":23918:23922   */\n      0x20\n        /* \"#utility.yul\":23915:23916   */\n      dup2\n        /* \"#utility.yul\":23911:23923   */\n      add\n        /* \"#utility.yul\":23906:23923   */\n      swap1\n      pop\n        /* \"#utility.yul\":23882:24036   */\n      jump(tag_566)\n    tag_568:\n        /* \"#utility.yul\":24065:24071   */\n      dup4\n        /* \"#utility.yul\":24060:24063   */\n      dup9\n        /* \"#utility.yul\":24056:24072   */\n      add\n        /* \"#utility.yul\":24049:24072   */\n      swap6\n      pop\n        /* \"#utility.yul\":23745:24082   */\n      pop\n      pop\n        /* \"#utility.yul\":23530:24082   */\n    tag_562:\n      pop\n        /* \"#utility.yul\":23319:24088   */\n      pop\n      pop\n        /* \"#utility.yul\":23210:24088   */\n      swap3\n      swap2\n      pop\n      pop\n      jump\t// out\n        /* \"#utility.yul\":24094:24367   */\n    tag_99:\n        /* \"#utility.yul\":24225:24228   */\n      0x00\n        /* \"#utility.yul\":24247:24341   */\n      tag_570\n        /* \"#utility.yul\":24337:24340   */\n      dup3\n        /* \"#utility.yul\":24328:24334   */\n      dup5\n        /* \"#utility.yul\":24247:24341   */\n      tag_321\n      jump\t// in\n    tag_570:\n        /* \"#utility.yul\":24240:24341   */\n      swap2\n      pop\n        /* \"#utility.yul\":24358:24361   */\n      dup2\n        /* \"#utility.yul\":24351:24361   */\n      swap1\n      pop\n        /* \"#utility.yul\":24094:24367   */\n      swap3\n      swap2\n      pop\n      pop\n      jump\t// out\n        /* \"#utility.yul\":24373:24997   */\n    tag_121:\n        /* \"#utility.yul\":24562:24566   */\n      0x00\n        /* \"#utility.yul\":24600:24602   */\n      0x60\n        /* \"#utility.yul\":24589:24598   */\n      dup3\n        /* \"#utility.yul\":24585:24603   */\n      add\n        /* \"#utility.yul\":24577:24603   */\n      swap1\n      pop\n        /* \"#utility.yul\":24649:24658   */\n      dup2\n        /* \"#utility.yul\":24643:24647   */\n      dup2\n        /* \"#utility.yul\":24639:24659   */\n      sub\n        /* \"#utility.yul\":24635:24636   */\n      0x00\n        /* \"#utility.yul\":24624:24633   */\n      dup4\n        /* \"#utility.yul\":24620:24637   */\n      add\n        /* \"#utility.yul\":24613:24660   */\n      mstore\n        /* \"#utility.yul\":24677:24755   */\n      tag_572\n        /* \"#utility.yul\":24750:24754   */\n      dup2\n        /* \"#utility.yul\":24741:24747   */\n      dup7\n        /* \"#utility.yul\":24677:24755   */\n      tag_290\n      jump\t// in\n    tag_572:\n        /* \"#utility.yul\":24669:24755   */\n      swap1\n      pop\n        /* \"#utility.yul\":24802:24811   */\n      dup2\n        /* \"#utility.yul\":24796:24800   */\n      dup2\n        /* \"#utility.yul\":24792:24812   */\n      sub\n        /* \"#utility.yul\":24787:24789   */\n      0x20\n        /* \"#utility.yul\":24776:24785   */\n      dup4\n        /* \"#utility.yul\":24772:24790   */\n      add\n        /* \"#utility.yul\":24765:24813   */\n      mstore\n        /* \"#utility.yul\":24830:24908   */\n      tag_573\n        /* \"#utility.yul\":24903:24907   */\n      dup2\n        /* \"#utility.yul\":24894:24900   */\n      dup6\n        /* \"#utility.yul\":24830:24908   */\n      tag_290\n      jump\t// in\n    tag_573:\n        /* \"#utility.yul\":24822:24908   */\n      swap1\n      pop\n        /* \"#utility.yul\":24918:24990   */\n      tag_574\n        /* \"#utility.yul\":24986:24988   */\n      0x40\n        /* \"#utility.yul\":24975:24984   */\n      dup4\n        /* \"#utility.yul\":24971:24989   */\n      add\n        /* \"#utility.yul\":24962:24968   */\n      dup5\n        /* \"#utility.yul\":24918:24990   */\n      tag_261\n      jump\t// in\n    tag_574:\n        /* \"#utility.yul\":24373:24997   */\n      swap5\n      swap4\n      pop\n      pop\n      pop\n      pop\n      jump\t// out\n        /* \"#utility.yul\":25003:25172   */\n    tag_322:\n        /* \"#utility.yul\":25143:25164   */\n      0x506f737420646f6573206e6f7420657869737400000000000000000000000000\n        /* \"#utility.yul\":25139:25140   */\n      0x00\n        /* \"#utility.yul\":25131:25137   */\n      dup3\n        /* \"#utility.yul\":25127:25141   */\n      add\n        /* \"#utility.yul\":25120:25165   */\n      mstore\n        /* \"#utility.yul\":25003:25172   */\n      pop\n      jump\t// out\n        /* \"#utility.yul\":25178:25544   */\n    tag_323:\n        /* \"#utility.yul\":25320:25323   */\n      0x00\n        /* \"#utility.yul\":25341:25408   */\n      tag_577\n        /* \"#utility.yul\":25405:25407   */\n      0x13\n        /* \"#utility.yul\":25400:25403   */\n      dup4\n        /* \"#utility.yul\":25341:25408   */\n      tag_289\n      jump\t// in\n    tag_577:\n        /* \"#utility.yul\":25334:25408   */\n      swap2\n      pop\n        /* \"#utility.yul\":25417:25510   */\n      tag_578\n        /* \"#utility.yul\":25506:25509   */\n      dup3\n        /* \"#utility.yul\":25417:25510   */\n      tag_322\n      jump\t// in\n    tag_578:\n        /* \"#utility.yul\":25535:25537   */\n      0x20\n        /* \"#utility.yul\":25530:25533   */\n      dup3\n        /* \"#utility.yul\":25526:25538   */\n      add\n        /* \"#utility.yul\":25519:25538   */\n      swap1\n      pop\n        /* \"#utility.yul\":25178:25544   */\n      swap2\n      swap1\n      pop\n      jump\t// out\n        /* \"#utility.yul\":25550:25969   */\n    tag_136:\n        /* \"#utility.yul\":25716:25720   */\n      0x00\n        /* \"#utility.yul\":25754:25756   */\n      0x20\n        /* \"#utility.yul\":25743:25752   */\n      dup3\n        /* \"#utility.yul\":25739:25757   */\n      add\n        /* \"#utility.yul\":25731:25757   */\n      swap1\n      pop\n        /* \"#utility.yul\":25803:25812   */\n      dup2\n        /* \"#utility.yul\":25797:25801   */\n      dup2\n        /* \"#utility.yul\":25793:25813   */\n      sub\n        /* \"#utility.yul\":25789:25790   */\n      0x00\n        /* \"#utility.yul\":25778:25787   */\n      dup4\n        /* \"#utility.yul\":25774:25791   */\n      add\n        /* \"#utility.yul\":25767:25814   */\n      mstore\n        /* \"#utility.yul\":25831:25962   */\n      tag_580\n        /* \"#utility.yul\":25957:25961   */\n      dup2\n        /* \"#utility.yul\":25831:25962   */\n      tag_323\n      jump\t// in\n    tag_580:\n        /* \"#utility.yul\":25823:25962   */\n      swap1\n      pop\n        /* \"#utility.yul\":25550:25969   */\n      swap2\n      swap1\n      pop\n      jump\t// out\n        /* \"#utility.yul\":25975:26152   */\n    tag_324:\n        /* \"#utility.yul\":26115:26144   */\n      0x4f6e6c7920617574686f722063616e2064656c65746520706f73740000000000\n        /* \"#utility.yul\":26111:26112   */\n      0x00\n        /* \"#utility.yul\":26103:26109   */\n      dup3\n        /* \"#utility.yul\":26099:26113   */\n      add\n        /* \"#utility.yul\":26092:26145   */\n      mstore\n        /* \"#utility.yul\":25975:26152   */\n      pop\n      jump\t// out\n        /* \"#utility.yul\":26158:26524   */\n    tag_325:\n        /* \"#utility.yul\":26300:26303   */\n      0x00\n        /* \"#utility.yul\":26321:26388   */\n      tag_583\n        /* \"#utility.yul\":26385:26387   */\n      0x1b\n        /* \"#utility.yul\":26380:26383   */\n      dup4\n        /* \"#utility.yul\":26321:26388   */\n      tag_289\n      jump\t// in\n    tag_583:\n        /* \"#utility.yul\":26314:26388   */\n      swap2\n      pop\n        /* \"#utility.yul\":26397:26490   */\n      tag_584\n        /* \"#utility.yul\":26486:26489   */\n      dup3\n        /* \"#utility.yul\":26397:26490   */\n      tag_324\n      jump\t// in\n    tag_584:\n        /* \"#utility.yul\":26515:26517   */\n      0x20\n        /* \"#utility.yul\":26510:26513   */\n      dup3\n        /* \"#utility.yul\":26506:26518   */\n      add\n        /* \"#utility.yul\":26499:26518   */\n      swap1\n      pop\n        /* \"#utility.yul\":26158:26524   */\n      swap2\n      swap1\n      pop\n      jump\t// out\n        /* \"#utility.yul\":26530:26949   */\n    tag_140:\n        /* \"#utility.yul\":26696:26700   */\n      0x00\n        /* \"#utility.yul\":26734:26736   */\n      0x20\n        /* \"#utility.yul\":26723:26732   */\n      dup3\n        /* \"#utility.yul\":26719:26737   */\n      add\n        /* \"#utility.yul\":26711:26737   */\n      swap1\n      pop\n        /* \"#utility.yul\":26783:26792   */\n      dup2\n        /* \"#utility.yul\":26777:26781   */\n      dup2\n        /* \"#utility.yul\":26773:26793   */\n      sub\n        /* \"#utility.yul\":26769:26770   */\n      0x00\n        /* \"#utility.yul\":26758:26767   */\n      dup4\n        /* \"#utility.yul\":26754:26771   */\n      add\n        /* \"#utility.yul\":26747:26794   */\n      mstore\n        /* \"#utility.yul\":26811:26942   */\n      tag_586\n        /* \"#utility.yul\":26937:26941   */\n      dup2\n        /* \"#utility.yul\":26811:26942   */\n      tag_325\n      jump\t// in\n    tag_586:\n        /* \"#utility.yul\":26803:26942   */\n      swap1\n      pop\n        /* \"#utility.yul\":26530:26949   */\n      swap2\n      swap1\n      pop\n      jump\t// out\n        /* \"#utility.yul\":26955:27135   */\n    tag_326:\n        /* \"#utility.yul\":27003:27080   */\n      0x4e487b7100000000000000000000000000000000000000000000000000000000\n        /* \"#utility.yul\":27000:27001   */\n      0x00\n        /* \"#utility.yul\":26993:27081   */\n      mstore\n        /* \"#utility.yul\":27100:27104   */\n      0x11\n        /* \"#utility.yul\":27097:27098   */\n      0x04\n        /* \"#utility.yul\":27090:27105   */\n      mstore\n        /* \"#utility.yul\":27124:27128   */\n      0x24\n        /* \"#utility.yul\":27121:27122   */\n      0x00\n        /* \"#utility.yul\":27114:27129   */\n      revert\n        /* \"#utility.yul\":27141:27335   */\n    tag_152:\n        /* \"#utility.yul\":27181:27185   */\n      0x00\n        /* \"#utility.yul\":27201:27221   */\n      tag_589\n        /* \"#utility.yul\":27219:27220   */\n      dup3\n        /* \"#utility.yul\":27201:27221   */\n      tag_260\n      jump\t// in\n    tag_589:\n        /* \"#utility.yul\":27196:27221   */\n      swap2\n      pop\n        /* \"#utility.yul\":27235:27255   */\n      tag_590\n        /* \"#utility.yul\":27253:27254   */\n      dup4\n        /* \"#utility.yul\":27235:27255   */\n      tag_260\n      jump\t// in\n    tag_590:\n        /* \"#utility.yul\":27230:27255   */\n      swap3\n      pop\n        /* \"#utility.yul\":27279:27280   */\n      dup3\n        /* \"#utility.yul\":27276:27277   */\n      dup3\n        /* \"#utility.yul\":27272:27281   */\n      sub\n        /* \"#utility.yul\":27264:27281   */\n      swap1\n      pop\n        /* \"#utility.yul\":27303:27304   */\n      dup2\n        /* \"#utility.yul\":27297:27301   */\n      dup2\n        /* \"#utility.yul\":27294:27305   */\n      gt\n        /* \"#utility.yul\":27291:27328   */\n      iszero\n      tag_591\n      jumpi\n        /* \"#utility.yul\":27308:27326   */\n      tag_592\n      tag_326\n      jump\t// in\n    tag_592:\n        /* \"#utility.yul\":27291:27328   */\n    tag_591:\n        /* \"#utility.yul\":27141:27335   */\n      swap3\n      swap2\n      pop\n      pop\n      jump\t// out\n        /* \"#utility.yul\":27341:27494   */\n    tag_327:\n        /* \"#utility.yul\":27394:27400   */\n      0x00\n        /* \"#utility.yul\":27428:27433   */\n      dup2\n        /* \"#utility.yul\":27422:27434   */\n      sload\n        /* \"#utility.yul\":27412:27434   */\n      swap1\n      pop\n        /* \"#utility.yul\":27454:27487   */\n      tag_594\n        /* \"#utility.yul\":27480:27486   */\n      dup2\n        /* \"#utility.yul\":27454:27487   */\n      tag_127\n      jump\t// in\n    tag_594:\n        /* \"#utility.yul\":27444:27487   */\n      swap1\n      pop\n        /* \"#utility.yul\":27341:27494   */\n      swap2\n      swap1\n      pop\n      jump\t// out\n        /* \"#utility.yul\":27500:27645   */\n    tag_328:\n        /* \"#utility.yul\":27553:27557   */\n      0x00\n        /* \"#utility.yul\":27576:27579   */\n      dup2\n        /* \"#utility.yul\":27568:27579   */\n      swap1\n      pop\n        /* \"#utility.yul\":27599:27602   */\n      dup2\n        /* \"#utility.yul\":27596:27597   */\n      0x00\n        /* \"#utility.yul\":27589:27603   */\n      mstore\n        /* \"#utility.yul\":27633:27637   */\n      0x20\n        /* \"#utility.yul\":27630:27631   */\n      0x00\n        /* \"#utility.yul\":27620:27638   */\n      keccak256\n        /* \"#utility.yul\":27612:27638   */\n      swap1\n      pop\n        /* \"#utility.yul\":27500:27645   */\n      swap2\n      swap1\n      pop\n      jump\t// out\n        /* \"#utility.yul\":27651:29114   */\n    tag_160:\n        /* \"#utility.yul\":27766:27769   */\n      dup2\n        /* \"#utility.yul\":27760:27764   */\n      dup2\n        /* \"#utility.yul\":27757:27770   */\n      sub\n        /* \"#utility.yul\":27754:27780   */\n      tag_597\n      jumpi\n        /* \"#utility.yul\":27773:27778   */\n      pop\n      pop\n      jump(tag_596)\n        /* \"#utility.yul\":27754:27780   */\n    tag_597:\n        /* \"#utility.yul\":27804:27842   */\n      tag_598\n        /* \"#utility.yul\":27838:27841   */\n      dup3\n        /* \"#utility.yul\":27804:27842   */\n      tag_327\n      jump\t// in\n    tag_598:\n        /* \"#utility.yul\":27907:27925   */\n      0xffffffffffffffff\n        /* \"#utility.yul\":27899:27905   */\n      dup2\n        /* \"#utility.yul\":27896:27926   */\n      gt\n        /* \"#utility.yul\":27893:27949   */\n      iszero\n      tag_599\n      jumpi\n        /* \"#utility.yul\":27929:27947   */\n      tag_600\n      tag_265\n      jump\t// in\n    tag_600:\n        /* \"#utility.yul\":27893:27949   */\n    tag_599:\n        /* \"#utility.yul\":27973:28011   */\n      tag_601\n        /* \"#utility.yul\":28005:28009   */\n      dup3\n        /* \"#utility.yul\":27999:28010   */\n      sload\n        /* \"#utility.yul\":27973:28011   */\n      tag_127\n      jump\t// in\n    tag_601:\n        /* \"#utility.yul\":28058:28125   */\n      tag_602\n        /* \"#utility.yul\":28118:28124   */\n      dup3\n        /* \"#utility.yul\":28110:28116   */\n      dup3\n        /* \"#utility.yul\":28104:28108   */\n      dup6\n        /* \"#utility.yul\":28058:28125   */\n      tag_315\n      jump\t// in\n    tag_602:\n        /* \"#utility.yul\":28152:28153   */\n      0x00\n        /* \"#utility.yul\":28181:28183   */\n      0x1f\n        /* \"#utility.yul\":28173:28179   */\n      dup4\n        /* \"#utility.yul\":28170:28184   */\n      gt\n        /* \"#utility.yul\":28198:28199   */\n      0x01\n        /* \"#utility.yul\":28193:28869   */\n      dup2\n      eq\n      tag_604\n      jumpi\n        /* \"#utility.yul\":28913:28914   */\n      0x00\n        /* \"#utility.yul\":28930:28936   */\n      dup5\n        /* \"#utility.yul\":28927:29004   */\n      iszero\n      tag_605\n      jumpi\n        /* \"#utility.yul\":28979:28988   */\n      dup3\n        /* \"#utility.yul\":28974:28977   */\n      dup8\n        /* \"#utility.yul\":28970:28989   */\n      add\n        /* \"#utility.yul\":28964:28990   */\n      sload\n        /* \"#utility.yul\":28955:28990   */\n      swap1\n      pop\n        /* \"#utility.yul\":28927:29004   */\n    tag_605:\n        /* \"#utility.yul\":29030:29097   */\n      tag_606\n        /* \"#utility.yul\":29090:29096   */\n      dup6\n        /* \"#utility.yul\":29083:29088   */\n      dup3\n        /* \"#utility.yul\":29030:29097   */\n      tag_318\n      jump\t// in\n    tag_606:\n        /* \"#utility.yul\":29024:29028   */\n      dup7\n        /* \"#utility.yul\":29017:29098   */\n      sstore\n        /* \"#utility.yul\":28886:29108   */\n      pop\n        /* \"#utility.yul\":28163:29108   */\n      jump(tag_603)\n        /* \"#utility.yul\":28193:28869   */\n    tag_604:\n        /* \"#utility.yul\":28245:28249   */\n      0x1f\n        /* \"#utility.yul\":28241:28250   */\n      not\n        /* \"#utility.yul\":28233:28239   */\n      dup5\n        /* \"#utility.yul\":28229:28251   */\n      and\n        /* \"#utility.yul\":28271:28311   */\n      tag_607\n        /* \"#utility.yul\":28307:28310   */\n      dup8\n        /* \"#utility.yul\":28271:28311   */\n      tag_328\n      jump\t// in\n    tag_607:\n        /* \"#utility.yul\":28264:28311   */\n      swap7\n      pop\n        /* \"#utility.yul\":28338:28375   */\n      tag_608\n        /* \"#utility.yul\":28370:28374   */\n      dup7\n        /* \"#utility.yul\":28338:28375   */\n      tag_304\n      jump\t// in\n    tag_608:\n        /* \"#utility.yul\":28397:28398   */\n      0x00\n        /* \"#utility.yul\":28411:28618   */\n    tag_609:\n        /* \"#utility.yul\":28425:28432   */\n      dup3\n        /* \"#utility.yul\":28422:28423   */\n      dup2\n        /* \"#utility.yul\":28419:28433   */\n      lt\n        /* \"#utility.yul\":28411:28618   */\n      iszero\n      tag_611\n      jumpi\n        /* \"#utility.yul\":28504:28513   */\n      dup5\n        /* \"#utility.yul\":28499:28502   */\n      dup10\n        /* \"#utility.yul\":28495:28514   */\n      add\n        /* \"#utility.yul\":28489:28515   */\n      sload\n        /* \"#utility.yul\":28481:28487   */\n      dup3\n        /* \"#utility.yul\":28474:28516   */\n      sstore\n        /* \"#utility.yul\":28555:28556   */\n      0x01\n        /* \"#utility.yul\":28547:28553   */\n      dup3\n        /* \"#utility.yul\":28543:28557   */\n      add\n        /* \"#utility.yul\":28533:28557   */\n      swap2\n      pop\n        /* \"#utility.yul\":28602:28603   */\n      0x01\n        /* \"#utility.yul\":28591:28600   */\n      dup6\n        /* \"#utility.yul\":28587:28604   */\n      add\n        /* \"#utility.yul\":28574:28604   */\n      swap5\n      pop\n        /* \"#utility.yul\":28448:28452   */\n      0x20\n        /* \"#utility.yul\":28445:28446   */\n      dup2\n        /* \"#utility.yul\":28441:28453   */\n      add\n        /* \"#utility.yul\":28436:28453   */\n      swap1\n      pop\n        /* \"#utility.yul\":28411:28618   */\n      jump(tag_609)\n    tag_611:\n        /* \"#utility.yul\":28646:28652   */\n      dup7\n        /* \"#utility.yul\":28637:28644   */\n      dup4\n        /* \"#utility.yul\":28634:28653   */\n      lt\n        /* \"#utility.yul\":28631:28810   */\n      iszero\n      tag_612\n      jumpi\n        /* \"#utility.yul\":28704:28713   */\n      dup5\n        /* \"#utility.yul\":28699:28702   */\n      dup10\n        /* \"#utility.yul\":28695:28714   */\n      add\n        /* \"#utility.yul\":28689:28715   */\n      sload\n        /* \"#utility.yul\":28747:28795   */\n      tag_613\n        /* \"#utility.yul\":28789:28793   */\n      0x1f\n        /* \"#utility.yul\":28781:28787   */\n      dup10\n        /* \"#utility.yul\":28777:28794   */\n      and\n        /* \"#utility.yul\":28766:28775   */\n      dup3\n        /* \"#utility.yul\":28747:28795   */\n      tag_317\n      jump\t// in\n    tag_613:\n        /* \"#utility.yul\":28739:28745   */\n      dup4\n        /* \"#utility.yul\":28732:28796   */\n      sstore\n        /* \"#utility.yul\":28654:28810   */\n      pop\n        /* \"#utility.yul\":28631:28810   */\n    tag_612:\n        /* \"#utility.yul\":28856:28857   */\n      0x01\n        /* \"#utility.yul\":28852:28853   */\n      0x02\n        /* \"#utility.yul\":28844:28850   */\n      dup9\n        /* \"#utility.yul\":28840:28854   */\n      mul\n        /* \"#utility.yul\":28836:28858   */\n      add\n        /* \"#utility.yul\":28830:28834   */\n      dup9\n        /* \"#utility.yul\":28823:28859   */\n      sstore\n        /* \"#utility.yul\":28200:28869   */\n      pop\n      pop\n      pop\n        /* \"#utility.yul\":28163:29108   */\n    tag_603:\n      pop\n        /* \"#utility.yul\":27744:29114   */\n      pop\n      pop\n      pop\n        /* \"#utility.yul\":27651:29114   */\n      pop\n      pop\n    tag_596:\n      jump\t// out\n        /* \"#utility.yul\":29120:29300   */\n    tag_163:\n        /* \"#utility.yul\":29168:29245   */\n      0x4e487b7100000000000000000000000000000000000000000000000000000000\n        /* \"#utility.yul\":29165:29166   */\n      0x00\n        /* \"#utility.yul\":29158:29246   */\n      mstore\n        /* \"#utility.yul\":29265:29269   */\n      0x31\n        /* \"#utility.yul\":29262:29263   */\n      0x04\n        /* \"#utility.yul\":29255:29270   */\n      mstore\n        /* \"#utility.yul\":29289:29293   */\n      0x24\n        /* \"#utility.yul\":29286:29287   */\n      0x00\n        /* \"#utility.yul\":29279:29294   */\n      revert\n        /* \"#utility.yul\":29306:29729   */\n    tag_187:\n        /* \"#utility.yul\":29447:29451   */\n      0x00\n        /* \"#utility.yul\":29485:29487   */\n      0x40\n        /* \"#utility.yul\":29474:29483   */\n      dup3\n        /* \"#utility.yul\":29470:29488   */\n      add\n        /* \"#utility.yul\":29462:29488   */\n      swap1\n      pop\n        /* \"#utility.yul\":29534:29543   */\n      dup2\n        /* \"#utility.yul\":29528:29532   */\n      dup2\n        /* \"#utility.yul\":29524:29544   */\n      sub\n        /* \"#utility.yul\":29520:29521   */\n      0x00\n        /* \"#utility.yul\":29509:29518   */\n      dup4\n        /* \"#utility.yul\":29505:29522   */\n      add\n        /* \"#utility.yul\":29498:29545   */\n      mstore\n        /* \"#utility.yul\":29562:29640   */\n      tag_616\n        /* \"#utility.yul\":29635:29639   */\n      dup2\n        /* \"#utility.yul\":29626:29632   */\n      dup6\n        /* \"#utility.yul\":29562:29640   */\n      tag_290\n      jump\t// in\n    tag_616:\n        /* \"#utility.yul\":29554:29640   */\n      swap1\n      pop\n        /* \"#utility.yul\":29650:29722   */\n      tag_617\n        /* \"#utility.yul\":29718:29720   */\n      0x20\n        /* \"#utility.yul\":29707:29716   */\n      dup4\n        /* \"#utility.yul\":29703:29721   */\n      add\n        /* \"#utility.yul\":29694:29700   */\n      dup5\n        /* \"#utility.yul\":29650:29722   */\n      tag_261\n      jump\t// in\n    tag_617:\n        /* \"#utility.yul\":29306:29729   */\n      swap4\n      swap3\n      pop\n      pop\n      pop\n      jump\t// out\n        /* \"#utility.yul\":29735:29904   */\n    tag_329:\n        /* \"#utility.yul\":29875:29896   */\n      0x4349442063616e6e6f7420626520656d70747900000000000000000000000000\n        /* \"#utility.yul\":29871:29872   */\n      0x00\n        /* \"#utility.yul\":29863:29869   */\n      dup3\n        /* \"#utility.yul\":29859:29873   */\n      add\n        /* \"#utility.yul\":29852:29897   */\n      mstore\n        /* \"#utility.yul\":29735:29904   */\n      pop\n      jump\t// out\n        /* \"#utility.yul\":29910:30276   */\n    tag_330:\n        /* \"#utility.yul\":30052:30055   */\n      0x00\n        /* \"#utility.yul\":30073:30140   */\n      tag_620\n        /* \"#utility.yul\":30137:30139   */\n      0x13\n        /* \"#utility.yul\":30132:30135   */\n      dup4\n        /* \"#utility.yul\":30073:30140   */\n      tag_289\n      jump\t// in\n    tag_620:\n        /* \"#utility.yul\":30066:30140   */\n      swap2\n      pop\n        /* \"#utility.yul\":30149:30242   */\n      tag_621\n        /* \"#utility.yul\":30238:30241   */\n      dup3\n        /* \"#utility.yul\":30149:30242   */\n      tag_329\n      jump\t// in\n    tag_621:\n        /* \"#utility.yul\":30267:30269   */\n      0x20\n        /* \"#utility.yul\":30262:30265   */\n      dup3\n        /* \"#utility.yul\":30258:30270   */\n      add\n        /* \"#utility.yul\":30251:30270   */\n      swap1\n      pop\n        /* \"#utility.yul\":29910:30276   */\n      swap2\n      swap1\n      pop\n      jump\t// out\n        /* \"#utility.yul\":30282:30701   */\n    tag_217:\n        /* \"#utility.yul\":30448:30452   */\n      0x00\n        /* \"#utility.yul\":30486:30488   */\n      0x20\n        /* \"#utility.yul\":30475:30484   */\n      dup3\n        /* \"#utility.yul\":30471:30489   */\n      add\n        /* \"#utility.yul\":30463:30489   */\n      swap1\n      pop\n        /* \"#utility.yul\":30535:30544   */\n      dup2\n        /* \"#utility.yul\":30529:30533   */\n      dup2\n        /* \"#utility.yul\":30525:30545   */\n      sub\n        /* \"#utility.yul\":30521:30522   */\n      0x00\n        /* \"#utility.yul\":30510:30519   */\n      dup4\n        /* \"#utility.yul\":30506:30523   */\n      add\n        /* \"#utility.yul\":30499:30546   */\n      mstore\n        /* \"#utility.yul\":30563:30694   */\n      tag_623\n        /* \"#utility.yul\":30689:30693   */\n      dup2\n        /* \"#utility.yul\":30563:30694   */\n      tag_330\n      jump\t// in\n    tag_623:\n        /* \"#utility.yul\":30555:30694   */\n      swap1\n      pop\n        /* \"#utility.yul\":30282:30701   */\n      swap2\n      swap1\n      pop\n      jump\t// out\n        /* \"#utility.yul\":30707:30876   */\n    tag_331:\n        /* \"#utility.yul\":30847:30868   */\n      0x506f737420616c72656164792065786973747300000000000000000000000000\n        /* \"#utility.yul\":30843:30844   */\n      0x00\n        /* \"#utility.yul\":30835:30841   */\n      dup3\n        /* \"#utility.yul\":30831:30845   */\n      add\n        /* \"#utility.yul\":30824:30869   */\n      mstore\n        /* \"#utility.yul\":30707:30876   */\n      pop\n      jump\t// out\n        /* \"#utility.yul\":30882:31248   */\n    tag_332:\n        /* \"#utility.yul\":31024:31027   */\n      0x00\n        /* \"#utility.yul\":31045:31112   */\n      tag_626\n        /* \"#utility.yul\":31109:31111   */\n      0x13\n        /* \"#utility.yul\":31104:31107   */\n      dup4\n        /* \"#utility.yul\":31045:31112   */\n      tag_289\n      jump\t// in\n    tag_626:\n        /* \"#utility.yul\":31038:31112   */\n      swap2\n      pop\n        /* \"#utility.yul\":31121:31214   */\n      tag_627\n        /* \"#utility.yul\":31210:31213   */\n      dup3\n        /* \"#utility.yul\":31121:31214   */\n      tag_331\n      jump\t// in\n    tag_627:\n        /* \"#utility.yul\":31239:31241   */\n      0x20\n        /* \"#utility.yul\":31234:31237   */\n      dup3\n        /* \"#utility.yul\":31230:31242   */\n      add\n        /* \"#utility.yul\":31223:31242   */\n      swap1\n      pop\n        /* \"#utility.yul\":30882:31248   */\n      swap2\n      swap1\n      pop\n      jump\t// out\n        /* \"#utility.yul\":31254:31673   */\n    tag_221:\n        /* \"#utility.yul\":31420:31424   */\n      0x00\n        /* \"#utility.yul\":31458:31460   */\n      0x20\n        /* \"#utility.yul\":31447:31456   */\n      dup3\n        /* \"#utility.yul\":31443:31461   */\n      add\n        /* \"#utility.yul\":31435:31461   */\n      swap1\n      pop\n        /* \"#utility.yul\":31507:31516   */\n      dup2\n        /* \"#utility.yul\":31501:31505   */\n      dup2\n        /* \"#utility.yul\":31497:31517   */\n      sub\n        /* \"#utility.yul\":31493:31494   */\n      0x00\n        /* \"#utility.yul\":31482:31491   */\n      dup4\n        /* \"#utility.yul\":31478:31495   */\n      add\n        /* \"#utility.yul\":31471:31518   */\n      mstore\n        /* \"#utility.yul\":31535:31666   */\n      tag_629\n        /* \"#utility.yul\":31661:31665   */\n      dup2\n        /* \"#utility.yul\":31535:31666   */\n      tag_332\n      jump\t// in\n    tag_629:\n        /* \"#utility.yul\":31527:31666   */\n      swap1\n      pop\n        /* \"#utility.yul\":31254:31673   */\n      swap2\n      swap1\n      pop\n      jump\t// out\n\n    auxdata: 0xa26469706673582212201e52ea3882b98430a31d641d31f144bf8e04b5bd5967b1267886a92c9f92d67b64736f6c634300081e0033\n}\n",
				"bytecode": {
					"linkReferences": {},
					"object": "6080604052348015600e575f5ffd5b5061246e8061001c5f395ff3fe608060405234801561000f575f5ffd5b50600436106100b1575f3560e01c80638064d1491161006f5780638064d1491461019b5780638afec4c0146101cb5780639a2194a9146101e7578063bcc9540714610217578063d74a14bd14610235578063f0321b7114610265576100b1565b8062a09832146100b5578063084d5372146100e5578063305611001461010157806330fdab501461011f57806341ce76171461013b578063718ce2bc1461016b575b5f5ffd5b6100cf60048036038101906100ca919061152f565b610298565b6040516100dc9190611572565b60405180910390f35b6100ff60048036038101906100fa91906116c7565b6102e0565b005b6101096107ab565b6040516101169190611858565b60405180910390f35b61013960048036038101906101349190611878565b61087f565b005b61015560048036038101906101509190611878565b610c60565b6040516101629190611957565b60405180910390f35b610185600480360381019061018091906119a1565b610e0d565b6040516101929190611a14565b60405180910390f35b6101b560048036038101906101b09190611a34565b610eb3565b6040516101c29190611a14565b60405180910390f35b6101e560048036038101906101e09190611878565b610f63565b005b61020160048036038101906101fc919061152f565b6111e8565b60405161020e9190611858565b60405180910390f35b61021f6112f8565b60405161022c9190611572565b60405180910390f35b61024f600480360381019061024a9190611878565b611304565b60405161025c9190611a81565b60405180910390f35b61027f600480360381019061027a9190611878565b61133a565b60405161028f9493929190611aa9565b60405180910390f35b5f5f5f8373ffffffffffffffffffffffffffffffffffffffff1673ffffffffffffffffffffffffffffffffffffffff1681526020019081526020015f20805490509050919050565b6002826040516102f09190611b2d565b90815260200160405180910390206003015f9054906101000a900460ff1661034d576040517f08c379a000000000000000000000000000000000000000000000000000000000815260040161034490611b8d565b60405180910390fd5b3373ffffffffffffffffffffffffffffffffffffffff166002836040516103749190611b2d565b90815260200160405180910390206001015f9054906101000a900473ffffffffffffffffffffffffffffffffffffffff1673ffffffffffffffffffffffffffffffffffffffff16146103fb576040517f08c379a00000000000000000000000000000000000000000000000000000000081526004016103f290611bf5565b60405180910390fd5b5f81511161043e576040517f08c379a000000000000000000000000000000000000000000000000000000000815260040161043590611c5d565b60405180910390fd5b60028160405161044e9190611b2d565b90815260200160405180910390206003015f9054906101000a900460ff16156104ac576040517f08c379a00000000000000000000000000000000000000000000000000000000081526004016104a390611cc5565b60405180910390fd5b5f60405180608001604052808381526020013373ffffffffffffffffffffffffffffffffffffffff168152602001428152602001600115158152509050806002836040516104fa9190611b2d565b90815260200160405180910390205f820151815f01908161051b9190611ee0565b506020820151816001015f6101000a81548173ffffffffffffffffffffffffffffffffffffffff021916908373ffffffffffffffffffffffffffffffffffffffff160217905550604082015181600201556060820151816003015f6101000a81548160ff0219169083151502179055509050505f5f5f3373ffffffffffffffffffffffffffffffffffffffff1673ffffffffffffffffffffffffffffffffffffffff1681526020019081526020015f2090505f5f90505b81805490508110156106565784805190602001208282815481106105f9576105f8611faf565b5b905f5260205f200160405161060e9190612078565b604051809103902003610649578382828154811061062f5761062e611faf565b5b905f5260205f200190816106439190611ee0565b50610656565b80806001019150506105d2565b505f5f90505b6001805490508110156106e35784805190602001206001828154811061068557610684611faf565b5b905f5260205f200160405161069a9190612078565b6040518091039020036106d65783600182815481106106bc576106bb611faf565b5b905f5260205f200190816106d09190611ee0565b506106e3565b808060010191505061065c565b506002846040516106f49190611b2d565b90815260200160405180910390205f5f82015f610711919061142f565b600182015f6101000a81549073ffffffffffffffffffffffffffffffffffffffff0219169055600282015f9055600382015f6101000a81549060ff021916905550503373ffffffffffffffffffffffffffffffffffffffff167fef00928980186f4bb721a4ad1f430bc929dca3546eda363fec3e083f81ad88f785854260405161079d9392919061208e565b60405180910390a250505050565b60606001805480602002602001604051908101604052809291908181526020015f905b82821015610876578382905f5260205f200180546107eb90611d10565b80601f016020809104026020016040519081016040528092919081815260200182805461081790611d10565b80156108625780601f1061083957610100808354040283529160200191610862565b820191905f5260205f20905b81548152906001019060200180831161084557829003601f168201915b5050505050815260200190600101906107ce565b50505050905090565b60028160405161088f9190611b2d565b90815260200160405180910390206003015f9054906101000a900460ff166108ec576040517f08c379a00000000000000000000000000000000000000000000000000000000081526004016108e39061211b565b60405180910390fd5b3373ffffffffffffffffffffffffffffffffffffffff166002826040516109139190611b2d565b90815260200160405180910390206001015f9054906101000a900473ffffffffffffffffffffffffffffffffffffffff1673ffffffffffffffffffffffffffffffffffffffff161461099a576040517f08c379a000000000000000000000000000000000000000000000000000000000815260040161099190612183565b60405180910390fd5b6002816040516109aa9190611b2d565b90815260200160405180910390205f5f82015f6109c7919061142f565b600182015f6101000a81549073ffffffffffffffffffffffffffffffffffffffff0219169055600282015f9055600382015f6101000a81549060ff021916905550505f5f5f3373ffffffffffffffffffffffffffffffffffffffff1673ffffffffffffffffffffffffffffffffffffffff1681526020019081526020015f2090505f5f90505b8180549050811015610b27578280519060200120828281548110610a7457610a73611faf565b5b905f5260205f2001604051610a899190612078565b604051809103902003610b1a578160018380549050610aa891906121ce565b81548110610ab957610ab8611faf565b5b905f5260205f2001828281548110610ad457610ad3611faf565b5b905f5260205f20019081610ae89190612228565b5081805480610afa57610af961230d565b5b600190038181905f5260205f20015f610b13919061142f565b9055610b27565b8080600101915050610a4d565b505f5f90505b600180549050811015610c0b57828051906020012060018281548110610b5657610b55611faf565b5b905f5260205f2001604051610b6b9190612078565b604051809103902003610bfe576001808080549050610b8a91906121ce565b81548110610b9b57610b9a611faf565b5b905f5260205f200160018281548110610bb757610bb6611faf565b5b905f5260205f20019081610bcb9190612228565b506001805480610bde57610bdd61230d565b5b600190038181905f5260205f20015f610bf7919061142f565b9055610c0b565b8080600101915050610b2d565b503373ffffffffffffffffffffffffffffffffffffffff167f52f5a9d08669be24caf9d9a03ce03fd5d8c3e44ffe7a4635afc8c90857b1d51a8342604051610c5492919061233a565b60405180910390a25050565b610c6861146c565b600282604051610c789190611b2d565b90815260200160405180910390206003015f9054906101000a900460ff16610cd5576040517f08c379a0000000000000000000000000000000000000000000000000000000008152600401610ccc9061211b565b60405180910390fd5b600282604051610ce59190611b2d565b90815260200160405180910390206040518060800160405290815f82018054610d0d90611d10565b80601f0160208091040260200160405190810160405280929190818152602001828054610d3990611d10565b8015610d845780601f10610d5b57610100808354040283529160200191610d84565b820191905f5260205f20905b815481529060010190602001808311610d6757829003601f168201915b50505050508152602001600182015f9054906101000a900473ffffffffffffffffffffffffffffffffffffffff1673ffffffffffffffffffffffffffffffffffffffff1673ffffffffffffffffffffffffffffffffffffffff16815260200160028201548152602001600382015f9054906101000a900460ff1615151515815250509050919050565b60018181548110610e1c575f80fd5b905f5260205f20015f915090508054610e3490611d10565b80601f0160208091040260200160405190810160405280929190818152602001828054610e6090611d10565b8015610eab5780601f10610e8257610100808354040283529160200191610eab565b820191905f5260205f20905b815481529060010190602001808311610e8e57829003601f168201915b505050505081565b5f602052815f5260405f208181548110610ecb575f80fd5b905f5260205f20015f91509150508054610ee490611d10565b80601f0160208091040260200160405190810160405280929190818152602001828054610f1090611d10565b8015610f5b5780601f10610f3257610100808354040283529160200191610f5b565b820191905f5260205f20905b815481529060010190602001808311610f3e57829003601f168201915b505050505081565b5f815111610fa6576040517f08c379a0000000000000000000000000000000000000000000000000000000008152600401610f9d906123b2565b60405180910390fd5b600281604051610fb69190611b2d565b90815260200160405180910390206003015f9054906101000a900460ff1615611014576040517f08c379a000000000000000000000000000000000000000000000000000000000815260040161100b9061241a565b60405180910390fd5b5f60405180608001604052808381526020013373ffffffffffffffffffffffffffffffffffffffff168152602001428152602001600115158152509050806002836040516110629190611b2d565b90815260200160405180910390205f820151815f0190816110839190611ee0565b506020820151816001015f6101000a81548173ffffffffffffffffffffffffffffffffffffffff021916908373ffffffffffffffffffffffffffffffffffffffff160217905550604082015181600201556060820151816003015f6101000a81548160ff0219169083151502179055509050505f5f3373ffffffffffffffffffffffffffffffffffffffff1673ffffffffffffffffffffffffffffffffffffffff1681526020019081526020015f2082908060018154018082558091505060019003905f5260205f20015f9091909190915090816111619190611ee0565b50600182908060018154018082558091505060019003905f5260205f20015f9091909190915090816111939190611ee0565b503373ffffffffffffffffffffffffffffffffffffffff167fa4c9691af7ed58eb17243a52187f05a4173d9dd4bd79a27043a740a43b93271383426040516111dc92919061233a565b60405180910390a25050565b60605f5f8373ffffffffffffffffffffffffffffffffffffffff1673ffffffffffffffffffffffffffffffffffffffff1681526020019081526020015f20805480602002602001604051908101604052809291908181526020015f905b828210156112ed578382905f5260205f2001805461126290611d10565b80601f016020809104026020016040519081016040528092919081815260200182805461128e90611d10565b80156112d95780601f106112b0576101008083540402835291602001916112d9565b820191905f5260205f20905b8154815290600101906020018083116112bc57829003601f168201915b505050505081526020019060010190611245565b505050509050919050565b5f600180549050905090565b5f6002826040516113159190611b2d565b90815260200160405180910390206003015f9054906101000a900460ff169050919050565b6002818051602081018201805184825260208301602085012081835280955050505050505f91509050805f01805461137190611d10565b80601f016020809104026020016040519081016040528092919081815260200182805461139d90611d10565b80156113e85780601f106113bf576101008083540402835291602001916113e8565b820191905f5260205f20905b8154815290600101906020018083116113cb57829003601f168201915b505050505090806001015f9054906101000a900473ffffffffffffffffffffffffffffffffffffffff1690806002015490806003015f9054906101000a900460ff16905084565b50805461143b90611d10565b5f825580601f1061144c5750611469565b601f0160209004905f5260205f209081019061146891906114a9565b5b50565b6040518060800160405280606081526020015f73ffffffffffffffffffffffffffffffffffffffff1681526020015f81526020015f151581525090565b5b808211156114c0575f815f9055506001016114aa565b5090565b5f604051905090565b5f5ffd5b5f5ffd5b5f73ffffffffffffffffffffffffffffffffffffffff82169050919050565b5f6114fe826114d5565b9050919050565b61150e816114f4565b8114611518575f5ffd5b50565b5f8135905061152981611505565b92915050565b5f60208284031215611544576115436114cd565b5b5f6115518482850161151b565b91505092915050565b5f819050919050565b61156c8161155a565b82525050565b5f6020820190506115855f830184611563565b92915050565b5f5ffd5b5f5ffd5b5f601f19601f8301169050919050565b7f4e487b71000000000000000000000000000000000000000000000000000000005f52604160045260245ffd5b6115d982611593565b810181811067ffffffffffffffff821117156115f8576115f76115a3565b5b80604052505050565b5f61160a6114c4565b905061161682826115d0565b919050565b5f67ffffffffffffffff821115611635576116346115a3565b5b61163e82611593565b9050602081019050919050565b828183375f83830152505050565b5f61166b6116668461161b565b611601565b9050828152602081018484840111156116875761168661158f565b5b61169284828561164b565b509392505050565b5f82601f8301126116ae576116ad61158b565b5b81356116be848260208601611659565b91505092915050565b5f5f604083850312156116dd576116dc6114cd565b5b5f83013567ffffffffffffffff8111156116fa576116f96114d1565b5b6117068582860161169a565b925050602083013567ffffffffffffffff811115611727576117266114d1565b5b6117338582860161169a565b9150509250929050565b5f81519050919050565b5f82825260208201905092915050565b5f819050602082019050919050565b5f81519050919050565b5f82825260208201905092915050565b8281835e5f83830152505050565b5f61179882611766565b6117a28185611770565b93506117b2818560208601611780565b6117bb81611593565b840191505092915050565b5f6117d1838361178e565b905092915050565b5f602082019050919050565b5f6117ef8261173d565b6117f98185611747565b93508360208202850161180b85611757565b805f5b85811015611846578484038952815161182785826117c6565b9450611832836117d9565b925060208a0199505060018101905061180e565b50829750879550505050505092915050565b5f6020820190508181035f83015261187081846117e5565b905092915050565b5f6020828403121561188d5761188c6114cd565b5b5f82013567ffffffffffffffff8111156118aa576118a96114d1565b5b6118b68482850161169a565b91505092915050565b6118c8816114f4565b82525050565b6118d78161155a565b82525050565b5f8115159050919050565b6118f1816118dd565b82525050565b5f608083015f8301518482035f860152611911828261178e565b915050602083015161192660208601826118bf565b50604083015161193960408601826118ce565b50606083015161194c60608601826118e8565b508091505092915050565b5f6020820190508181035f83015261196f81846118f7565b905092915050565b6119808161155a565b811461198a575f5ffd5b50565b5f8135905061199b81611977565b92915050565b5f602082840312156119b6576119b56114cd565b5b5f6119c38482850161198d565b91505092915050565b5f82825260208201905092915050565b5f6119e682611766565b6119f081856119cc565b9350611a00818560208601611780565b611a0981611593565b840191505092915050565b5f6020820190508181035f830152611a2c81846119dc565b905092915050565b5f5f60408385031215611a4a57611a496114cd565b5b5f611a578582860161151b565b9250506020611a688582860161198d565b9150509250929050565b611a7b816118dd565b82525050565b5f602082019050611a945f830184611a72565b92915050565b611aa3816114f4565b82525050565b5f6080820190508181035f830152611ac181876119dc565b9050611ad06020830186611a9a565b611add6040830185611563565b611aea6060830184611a72565b95945050505050565b5f81905092915050565b5f611b0782611766565b611b118185611af3565b9350611b21818560208601611780565b80840191505092915050565b5f611b388284611afd565b915081905092915050565b7f4f6c6420706f737420646f6573206e6f742065786973740000000000000000005f82015250565b5f611b776017836119cc565b9150611b8282611b43565b602082019050919050565b5f6020820190508181035f830152611ba481611b6b565b9050919050565b7f4f6e6c7920617574686f722063616e2075706461746520706f737400000000005f82015250565b5f611bdf601b836119cc565b9150611bea82611bab565b602082019050919050565b5f6020820190508181035f830152611c0c81611bd3565b9050919050565b7f4e6577204349442063616e6e6f7420626520656d7074790000000000000000005f82015250565b5f611c476017836119cc565b9150611c5282611c13565b602082019050919050565b5f6020820190508181035f830152611c7481611c3b565b9050919050565b7f4e65772043494420616c726561647920657869737473000000000000000000005f82015250565b5f611caf6016836119cc565b9150611cba82611c7b565b602082019050919050565b5f6020820190508181035f830152611cdc81611ca3565b9050919050565b7f4e487b71000000000000000000000000000000000000000000000000000000005f52602260045260245ffd5b5f6002820490506001821680611d2757607f821691505b602082108103611d3a57611d39611ce3565b5b50919050565b5f819050815f5260205f209050919050565b5f6020601f8301049050919050565b5f82821b905092915050565b5f60088302611d9c7fffffffffffffffffffffffffffffffffffffffffffffffffffffffffffffffff82611d61565b611da68683611d61565b95508019841693508086168417925050509392505050565b5f819050919050565b5f611de1611ddc611dd78461155a565b611dbe565b61155a565b9050919050565b5f819050919050565b611dfa83611dc7565b611e0e611e0682611de8565b848454611d6d565b825550505050565b5f5f905090565b611e25611e16565b611e30818484611df1565b505050565b5b81811015611e5357611e485f82611e1d565b600181019050611e36565b5050565b601f821115611e9857611e6981611d40565b611e7284611d52565b81016020851015611e81578190505b611e95611e8d85611d52565b830182611e35565b50505b505050565b5f82821c905092915050565b5f611eb85f1984600802611e9d565b1980831691505092915050565b5f611ed08383611ea9565b9150826002028217905092915050565b611ee982611766565b67ffffffffffffffff811115611f0257611f016115a3565b5b611f0c8254611d10565b611f17828285611e57565b5f60209050601f831160018114611f48575f8415611f36578287015190505b611f408582611ec5565b865550611fa7565b601f198416611f5686611d40565b5f5b82811015611f7d57848901518255600182019150602085019450602081019050611f58565b86831015611f9a5784890151611f96601f891682611ea9565b8355505b6001600288020188555050505b505050505050565b7f4e487b71000000000000000000000000000000000000000000000000000000005f52603260045260245ffd5b5f81905092915050565b5f819050815f5260205f209050919050565b5f815461200481611d10565b61200e8186611fdc565b9450600182165f8114612028576001811461203d5761206f565b60ff198316865281151582028601935061206f565b61204685611fe6565b5f5b8381101561206757815481890152600182019150602081019050612048565b838801955050505b50505092915050565b5f6120838284611ff8565b915081905092915050565b5f6060820190508181035f8301526120a681866119dc565b905081810360208301526120ba81856119dc565b90506120c96040830184611563565b949350505050565b7f506f737420646f6573206e6f74206578697374000000000000000000000000005f82015250565b5f6121056013836119cc565b9150612110826120d1565b602082019050919050565b5f6020820190508181035f830152612132816120f9565b9050919050565b7f4f6e6c7920617574686f722063616e2064656c65746520706f737400000000005f82015250565b5f61216d601b836119cc565b915061217882612139565b602082019050919050565b5f6020820190508181035f83015261219a81612161565b9050919050565b7f4e487b71000000000000000000000000000000000000000000000000000000005f52601160045260245ffd5b5f6121d88261155a565b91506121e38361155a565b92508282039050818111156121fb576121fa6121a1565b5b92915050565b5f8154905061220f81611d10565b9050919050565b5f819050815f5260205f209050919050565b81810361223657505061230b565b61223f82612201565b67ffffffffffffffff811115612258576122576115a3565b5b6122628254611d10565b61226d828285611e57565b5f601f83116001811461229a575f8415612288578287015490505b6122928582611ec5565b865550612304565b601f1984166122a887612216565b96506122b386611d40565b5f5b828110156122da578489015482556001820191506001850194506020810190506122b5565b868310156122f757848901546122f3601f891682611ea9565b8355505b6001600288020188555050505b5050505050505b565b7f4e487b71000000000000000000000000000000000000000000000000000000005f52603160045260245ffd5b5f6040820190508181035f83015261235281856119dc565b90506123616020830184611563565b9392505050565b7f4349442063616e6e6f7420626520656d707479000000000000000000000000005f82015250565b5f61239c6013836119cc565b91506123a782612368565b602082019050919050565b5f6020820190508181035f8301526123c981612390565b9050919050565b7f506f737420616c726561647920657869737473000000000000000000000000005f82015250565b5f6124046013836119cc565b915061240f826123d0565b602082019050919050565b5f6020820190508181035f830152612431816123f8565b905091905056fea26469706673582212201e52ea3882b98430a31d641d31f144bf8e04b5bd5967b1267886a92c9f92d67b64736f6c634300081e0033",
					"opcodes": "PUSH1 0x80 PUSH1 0x40 MSTORE CALLVALUE DUP1 ISZERO PUSH1 0xE JUMPI PUSH0 PUSH0 REVERT JUMPDEST POP PUSH2 0x246E DUP1 PUSH2 0x1C PUSH0 CODECOPY PUSH0 RETURN INVALID PUSH1 0x80 PUSH1 0x40 MSTORE CALLVALUE DUP1 ISZERO PUSH2 0xF JUMPI PUSH0 PUSH0 REVERT JUMPDEST POP PUSH1 0x4 CALLDATASIZE LT PUSH2 0xB1 JUMPI PUSH0 CALLDATALOAD PUSH1 0xE0 SHR DUP1 PUSH4 0x8064D149 GT PUSH2 0x6F JUMPI DUP1 PUSH4 0x8064D149 EQ PUSH2 0x19B JUMPI DUP1 PUSH4 0x8AFEC4C0 EQ PUSH2 0x1CB JUMPI DUP1 PUSH4 0x9A2194A9 EQ PUSH2 0x1E7 JUMPI DUP1 PUSH4 0xBCC95407 EQ PUSH2 0x217 JUMPI DUP1 PUSH4 0xD74A14BD EQ PUSH2 0x235 JUMPI DUP1 PUSH4 0xF0321B71 EQ PUSH2 0x265 JUMPI PUSH2 0xB1 JUMP JUMPDEST DUP1 PUSH3 0xA09832 EQ PUSH2 0xB5 JUMPI DUP1 PUSH4 0x84D5372 EQ PUSH2 0xE5 JUMPI DUP1 PUSH4 0x30561100 EQ PUSH2 0x101 JUMPI DUP1 PUSH4 0x30FDAB50 EQ PUSH2 0x11F JUMPI DUP1 PUSH4 0x41CE7617 EQ PUSH2 0x13B JUMPI DUP1 PUSH4 0x718CE2BC EQ PUSH2 0x16B JUMPI JUMPDEST PUSH0 PUSH0 REVERT JUMPDEST PUSH2 0xCF PUSH1 0x4 DUP1 CALLDATASIZE SUB DUP2 ADD SWAP1 PUSH2 0xCA SWAP2 SWAP1 PUSH2 0x152F JUMP JUMPDEST PUSH2 0x298 JUMP JUMPDEST PUSH1 0x40 MLOAD PUSH2 0xDC SWAP2 SWAP1 PUSH2 0x1572 JUMP JUMPDEST PUSH1 0x40 MLOAD DUP1 SWAP2 SUB SWAP1 RETURN JUMPDEST PUSH2 0xFF PUSH1 0x4 DUP1 CALLDATASIZE SUB DUP2 ADD SWAP1 PUSH2 0xFA SWAP2 SWAP1 PUSH2 0x16C7 JUMP JUMPDEST PUSH2 0x2E0 JUMP JUMPDEST STOP JUMPDEST PUSH2 0x109 PUSH2 0x7AB JUMP JUMPDEST PUSH1 0x40 MLOAD PUSH2 0x116 SWAP2 SWAP1 PUSH2 0x1858 JUMP JUMPDEST PUSH1 0x40 MLOAD DUP1 SWAP2 SUB SWAP1 RETURN JUMPDEST PUSH2 0x139 PUSH1 0x4 DUP1 CALLDATASIZE SUB DUP2 ADD SWAP1 PUSH2 0x134 SWAP2 SWAP1 PUSH2 0x1878 JUMP JUMPDEST PUSH2 0x87F JUMP JUMPDEST STOP JUMPDEST PUSH2 0x155 PUSH1 0x4 DUP1 CALLDATASIZE SUB DUP2 ADD SWAP1 PUSH2 0x150 SWAP2 SWAP1 PUSH2 0x1878 JUMP JUMPDEST PUSH2 0xC60 JUMP JUMPDEST PUSH1 0x40 MLOAD PUSH2 0x162 SWAP2 SWAP1 PUSH2 0x1957 JUMP JUMPDEST PUSH1 0x40 MLOAD DUP1 SWAP2 SUB SWAP1 RETURN JUMPDEST PUSH2 0x185 PUSH1 0x4 DUP1 CALLDATASIZE SUB DUP2 ADD SWAP1 PUSH2 0x180 SWAP2 SWAP1 PUSH2 0x19A1 JUMP JUMPDEST PUSH2 0xE0D JUMP JUMPDEST PUSH1 0x40 MLOAD PUSH2 0x192 SWAP2 SWAP1 PUSH2 0x1A14 JUMP JUMPDEST PUSH1 0x40 MLOAD DUP1 SWAP2 SUB SWAP1 RETURN JUMPDEST PUSH2 0x1B5 PUSH1 0x4 DUP1 CALLDATASIZE SUB DUP2 ADD SWAP1 PUSH2 0x1B0 SWAP2 SWAP1 PUSH2 0x1A34 JUMP JUMPDEST PUSH2 0xEB3 JUMP JUMPDEST PUSH1 0x40 MLOAD PUSH2 0x1C2 SWAP2 SWAP1 PUSH2 0x1A14 JUMP JUMPDEST PUSH1 0x40 MLOAD DUP1 SWAP2 SUB SWAP1 RETURN JUMPDEST PUSH2 0x1E5 PUSH1 0x4 DUP1 CALLDATASIZE SUB DUP2 ADD SWAP1 PUSH2 0x1E0 SWAP2 SWAP1 PUSH2 0x1878 JUMP JUMPDEST PUSH2 0xF63 JUMP JUMPDEST STOP JUMPDEST PUSH2 0x201 PUSH1 0x4 DUP1 CALLDATASIZE SUB DUP2 ADD SWAP1 PUSH2 0x1FC SWAP2 SWAP1 PUSH2 0x152F JUMP JUMPDEST PUSH2 0x11E8 JUMP JUMPDEST PUSH1 0x40 MLOAD PUSH2 0x20E SWAP2 SWAP1 PUSH2 0x1858 JUMP JUMPDEST PUSH1 0x40 MLOAD DUP1 SWAP2 SUB SWAP1 RETURN JUMPDEST PUSH2 0x21F PUSH2 0x12F8 JUMP JUMPDEST PUSH1 0x40 MLOAD PUSH2 0x22C SWAP2 SWAP1 PUSH2 0x1572 JUMP JUMPDEST PUSH1 0x40 MLOAD DUP1 SWAP2 SUB SWAP1 RETURN JUMPDEST PUSH2 0x24F PUSH1 0x4 DUP1 CALLDATASIZE SUB DUP2 ADD SWAP1 PUSH2 0x24A SWAP2 SWAP1 PUSH2 0x1878 JUMP JUMPDEST PUSH2 0x1304 JUMP JUMPDEST PUSH1 0x40 MLOAD PUSH2 0x25C SWAP2 SWAP1 PUSH2 0x1A81 JUMP JUMPDEST PUSH1 0x40 MLOAD DUP1 SWAP2 SUB SWAP1 RETURN JUMPDEST PUSH2 0x27F PUSH1 0x4 DUP1 CALLDATASIZE SUB DUP2 ADD SWAP1 PUSH2 0x27A SWAP2 SWAP1 PUSH2 0x1878 JUMP JUMPDEST PUSH2 0x133A JUMP JUMPDEST PUSH1 0x40 MLOAD PUSH2 0x28F SWAP5 SWAP4 SWAP3 SWAP2 SWAP1 PUSH2 0x1AA9 JUMP JUMPDEST PUSH1 0x40 MLOAD DUP1 SWAP2 SUB SWAP1 RETURN JUMPDEST PUSH0 PUSH0 PUSH0 DUP4 PUSH20 0xFFFFFFFFFFFFFFFFFFFFFFFFFFFFFFFFFFFFFFFF AND PUSH20 0xFFFFFFFFFFFFFFFFFFFFFFFFFFFFFFFFFFFFFFFF AND DUP2 MSTORE PUSH1 0x20 ADD SWAP1 DUP2 MSTORE PUSH1 0x20 ADD PUSH0 KECCAK256 DUP1 SLOAD SWAP1 POP SWAP1 POP SWAP2 SWAP1 POP JUMP JUMPDEST PUSH1 0x2 DUP3 PUSH1 0x40 MLOAD PUSH2 0x2F0 SWAP2 SWAP1 PUSH2 0x1B2D JUMP JUMPDEST SWAP1 DUP2 MSTORE PUSH1 0x20 ADD PUSH1 0x40 MLOAD DUP1 SWAP2 SUB SWAP1 KECCAK256 PUSH1 0x3 ADD PUSH0 SWAP1 SLOAD SWAP1 PUSH2 0x100 EXP SWAP1 DIV PUSH1 0xFF AND PUSH2 0x34D JUMPI PUSH1 0x40 MLOAD PUSH32 0x8C379A000000000000000000000000000000000000000000000000000000000 DUP2 MSTORE PUSH1 0x4 ADD PUSH2 0x344 SWAP1 PUSH2 0x1B8D JUMP JUMPDEST PUSH1 0x40 MLOAD DUP1 SWAP2 SUB SWAP1 REVERT JUMPDEST CALLER PUSH20 0xFFFFFFFFFFFFFFFFFFFFFFFFFFFFFFFFFFFFFFFF AND PUSH1 0x2 DUP4 PUSH1 0x40 MLOAD PUSH2 0x374 SWAP2 SWAP1 PUSH2 0x1B2D JUMP JUMPDEST SWAP1 DUP2 MSTORE PUSH1 0x20 ADD PUSH1 0x40 MLOAD DUP1 SWAP2 SUB SWAP1 KECCAK256 PUSH1 0x1 ADD PUSH0 SWAP1 SLOAD SWAP1 PUSH2 0x100 EXP SWAP1 DIV PUSH20 0xFFFFFFFFFFFFFFFFFFFFFFFFFFFFFFFFFFFFFFFF AND PUSH20 0xFFFFFFFFFFFFFFFFFFFFFFFFFFFFFFFFFFFFFFFF AND EQ PUSH2 0x3FB JUMPI PUSH1 0x40 MLOAD PUSH32 0x8C379A000000000000000000000000000000000000000000000000000000000 DUP2 MSTORE PUSH1 0x4 ADD PUSH2 0x3F2 SWAP1 PUSH2 0x1BF5 JUMP JUMPDEST PUSH1 0x40 MLOAD DUP1 SWAP2 SUB SWAP1 REVERT JUMPDEST PUSH0 DUP2 MLOAD GT PUSH2 0x43E JUMPI PUSH1 0x40 MLOAD PUSH32 0x8C379A000000000000000000000000000000000000000000000000000000000 DUP2 MSTORE PUSH1 0x4 ADD PUSH2 0x435 SWAP1 PUSH2 0x1C5D JUMP JUMPDEST PUSH1 0x40 MLOAD DUP1 SWAP2 SUB SWAP1 REVERT JUMPDEST PUSH1 0x2 DUP2 PUSH1 0x40 MLOAD PUSH2 0x44E SWAP2 SWAP1 PUSH2 0x1B2D JUMP JUMPDEST SWAP1 DUP2 MSTORE PUSH1 0x20 ADD PUSH1 0x40 MLOAD DUP1 SWAP2 SUB SWAP1 KECCAK256 PUSH1 0x3 ADD PUSH0 SWAP1 SLOAD SWAP1 PUSH2 0x100 EXP SWAP1 DIV PUSH1 0xFF AND ISZERO PUSH2 0x4AC JUMPI PUSH1 0x40 MLOAD PUSH32 0x8C379A000000000000000000000000000000000000000000000000000000000 DUP2 MSTORE PUSH1 0x4 ADD PUSH2 0x4A3 SWAP1 PUSH2 0x1CC5 JUMP JUMPDEST PUSH1 0x40 MLOAD DUP1 SWAP2 SUB SWAP1 REVERT JUMPDEST PUSH0 PUSH1 0x40 MLOAD DUP1 PUSH1 0x80 ADD PUSH1 0x40 MSTORE DUP1 DUP4 DUP2 MSTORE PUSH1 0x20 ADD CALLER PUSH20 0xFFFFFFFFFFFFFFFFFFFFFFFFFFFFFFFFFFFFFFFF AND DUP2 MSTORE PUSH1 0x20 ADD TIMESTAMP DUP2 MSTORE PUSH1 0x20 ADD PUSH1 0x1 ISZERO ISZERO DUP2 MSTORE POP SWAP1 POP DUP1 PUSH1 0x2 DUP4 PUSH1 0x40 MLOAD PUSH2 0x4FA SWAP2 SWAP1 PUSH2 0x1B2D JUMP JUMPDEST SWAP1 DUP2 MSTORE PUSH1 0x20 ADD PUSH1 0x40 MLOAD DUP1 SWAP2 SUB SWAP1 KECCAK256 PUSH0 DUP3 ADD MLOAD DUP2 PUSH0 ADD SWAP1 DUP2 PUSH2 0x51B SWAP2 SWAP1 PUSH2 0x1EE0 JUMP JUMPDEST POP PUSH1 0x20 DUP3 ADD MLOAD DUP2 PUSH1 0x1 ADD PUSH0 PUSH2 0x100 EXP DUP2 SLOAD DUP2 PUSH20 0xFFFFFFFFFFFFFFFFFFFFFFFFFFFFFFFFFFFFFFFF MUL NOT AND SWAP1 DUP4 PUSH20 0xFFFFFFFFFFFFFFFFFFFFFFFFFFFFFFFFFFFFFFFF AND MUL OR SWAP1 SSTORE POP PUSH1 0x40 DUP3 ADD MLOAD DUP2 PUSH1 0x2 ADD SSTORE PUSH1 0x60 DUP3 ADD MLOAD DUP2 PUSH1 0x3 ADD PUSH0 PUSH2 0x100 EXP DUP2 SLOAD DUP2 PUSH1 0xFF MUL NOT AND SWAP1 DUP4 ISZERO ISZERO MUL OR SWAP1 SSTORE POP SWAP1 POP POP PUSH0 PUSH0 PUSH0 CALLER PUSH20 0xFFFFFFFFFFFFFFFFFFFFFFFFFFFFFFFFFFFFFFFF AND PUSH20 0xFFFFFFFFFFFFFFFFFFFFFFFFFFFFFFFFFFFFFFFF AND DUP2 MSTORE PUSH1 0x20 ADD SWAP1 DUP2 MSTORE PUSH1 0x20 ADD PUSH0 KECCAK256 SWAP1 POP PUSH0 PUSH0 SWAP1 POP JUMPDEST DUP2 DUP1 SLOAD SWAP1 POP DUP2 LT ISZERO PUSH2 0x656 JUMPI DUP5 DUP1 MLOAD SWAP1 PUSH1 0x20 ADD KECCAK256 DUP3 DUP3 DUP2 SLOAD DUP2 LT PUSH2 0x5F9 JUMPI PUSH2 0x5F8 PUSH2 0x1FAF JUMP JUMPDEST JUMPDEST SWAP1 PUSH0 MSTORE PUSH1 0x20 PUSH0 KECCAK256 ADD PUSH1 0x40 MLOAD PUSH2 0x60E SWAP2 SWAP1 PUSH2 0x2078 JUMP JUMPDEST PUSH1 0x40 MLOAD DUP1 SWAP2 SUB SWAP1 KECCAK256 SUB PUSH2 0x649 JUMPI DUP4 DUP3 DUP3 DUP2 SLOAD DUP2 LT PUSH2 0x62F JUMPI PUSH2 0x62E PUSH2 0x1FAF JUMP JUMPDEST JUMPDEST SWAP1 PUSH0 MSTORE PUSH1 0x20 PUSH0 KECCAK256 ADD SWAP1 DUP2 PUSH2 0x643 SWAP2 SWAP1 PUSH2 0x1EE0 JUMP JUMPDEST POP PUSH2 0x656 JUMP JUMPDEST DUP1 DUP1 PUSH1 0x1 ADD SWAP2 POP POP PUSH2 0x5D2 JUMP JUMPDEST POP PUSH0 PUSH0 SWAP1 POP JUMPDEST PUSH1 0x1 DUP1 SLOAD SWAP1 POP DUP2 LT ISZERO PUSH2 0x6E3 JUMPI DUP5 DUP1 MLOAD SWAP1 PUSH1 0x20 ADD KECCAK256 PUSH1 0x1 DUP3 DUP2 SLOAD DUP2 LT PUSH2 0x685 JUMPI PUSH2 0x684 PUSH2 0x1FAF JUMP JUMPDEST JUMPDEST SWAP1 PUSH0 MSTORE PUSH1 0x20 PUSH0 KECCAK256 ADD PUSH1 0x40 MLOAD PUSH2 0x69A SWAP2 SWAP1 PUSH2 0x2078 JUMP JUMPDEST PUSH1 0x40 MLOAD DUP1 SWAP2 SUB SWAP1 KECCAK256 SUB PUSH2 0x6D6 JUMPI DUP4 PUSH1 0x1 DUP3 DUP2 SLOAD DUP2 LT PUSH2 0x6BC JUMPI PUSH2 0x6BB PUSH2 0x1FAF JUMP JUMPDEST JUMPDEST SWAP1 PUSH0 MSTORE PUSH1 0x20 PUSH0 KECCAK256 ADD SWAP1 DUP2 PUSH2 0x6D0 SWAP2 SWAP1 PUSH2 0x1EE0 JUMP JUMPDEST POP PUSH2 0x6E3 JUMP JUMPDEST DUP1 DUP1 PUSH1 0x1 ADD SWAP2 POP POP PUSH2 0x65C JUMP JUMPDEST POP PUSH1 0x2 DUP5 PUSH1 0x40 MLOAD PUSH2 0x6F4 SWAP2 SWAP1 PUSH2 0x1B2D JUMP JUMPDEST SWAP1 DUP2 MSTORE PUSH1 0x20 ADD PUSH1 0x40 MLOAD DUP1 SWAP2 SUB SWAP1 KECCAK256 PUSH0 PUSH0 DUP3 ADD PUSH0 PUSH2 0x711 SWAP2 SWAP1 PUSH2 0x142F JUMP JUMPDEST PUSH1 0x1 DUP3 ADD PUSH0 PUSH2 0x100 EXP DUP2 SLOAD SWAP1 PUSH20 0xFFFFFFFFFFFFFFFFFFFFFFFFFFFFFFFFFFFFFFFF MUL NOT AND SWAP1 SSTORE PUSH1 0x2 DUP3 ADD PUSH0 SWAP1 SSTORE PUSH1 0x3 DUP3 ADD PUSH0 PUSH2 0x100 EXP DUP2 SLOAD SWAP1 PUSH1 0xFF MUL NOT AND SWAP1 SSTORE POP POP CALLER PUSH20 0xFFFFFFFFFFFFFFFFFFFFFFFFFFFFFFFFFFFFFFFF AND PUSH32 0xEF00928980186F4BB721A4AD1F430BC929DCA3546EDA363FEC3E083F81AD88F7 DUP6 DUP6 TIMESTAMP PUSH1 0x40 MLOAD PUSH2 0x79D SWAP4 SWAP3 SWAP2 SWAP1 PUSH2 0x208E JUMP JUMPDEST PUSH1 0x40 MLOAD DUP1 SWAP2 SUB SWAP1 LOG2 POP POP POP POP JUMP JUMPDEST PUSH1 0x60 PUSH1 0x1 DUP1 SLOAD DUP1 PUSH1 0x20 MUL PUSH1 0x20 ADD PUSH1 0x40 MLOAD SWAP1 DUP2 ADD PUSH1 0x40 MSTORE DUP1 SWAP3 SWAP2 SWAP1 DUP2 DUP2 MSTORE PUSH1 0x20 ADD PUSH0 SWAP1 JUMPDEST DUP3 DUP3 LT ISZERO PUSH2 0x876 JUMPI DUP4 DUP3 SWAP1 PUSH0 MSTORE PUSH1 0x20 PUSH0 KECCAK256 ADD DUP1 SLOAD PUSH2 0x7EB SWAP1 PUSH2 0x1D10 JUMP JUMPDEST DUP1 PUSH1 0x1F ADD PUSH1 0x20 DUP1 SWAP2 DIV MUL PUSH1 0x20 ADD PUSH1 0x40 MLOAD SWAP1 DUP2 ADD PUSH1 0x40 MSTORE DUP1 SWAP3 SWAP2 SWAP1 DUP2 DUP2 MSTORE PUSH1 0x20 ADD DUP3 DUP1 SLOAD PUSH2 0x817 SWAP1 PUSH2 0x1D10 JUMP JUMPDEST DUP1 ISZERO PUSH2 0x862 JUMPI DUP1 PUSH1 0x1F LT PUSH2 0x839 JUMPI PUSH2 0x100 DUP1 DUP4 SLOAD DIV MUL DUP4 MSTORE SWAP2 PUSH1 0x20 ADD SWAP2 PUSH2 0x862 JUMP JUMPDEST DUP3 ADD SWAP2 SWAP1 PUSH0 MSTORE PUSH1 0x20 PUSH0 KECCAK256 SWAP1 JUMPDEST DUP2 SLOAD DUP2 MSTORE SWAP1 PUSH1 0x1 ADD SWAP1 PUSH1 0x20 ADD DUP1 DUP4 GT PUSH2 0x845 JUMPI DUP3 SWAP1 SUB PUSH1 0x1F AND DUP3 ADD SWAP2 JUMPDEST POP POP POP POP POP DUP2 MSTORE PUSH1 0x20 ADD SWAP1 PUSH1 0x1 ADD SWAP1 PUSH2 0x7CE JUMP JUMPDEST POP POP POP POP SWAP1 POP SWAP1 JUMP JUMPDEST PUSH1 0x2 DUP2 PUSH1 0x40 MLOAD PUSH2 0x88F SWAP2 SWAP1 PUSH2 0x1B2D JUMP JUMPDEST SWAP1 DUP2 MSTORE PUSH1 0x20 ADD PUSH1 0x40 MLOAD DUP1 SWAP2 SUB SWAP1 KECCAK256 PUSH1 0x3 ADD PUSH0 SWAP1 SLOAD SWAP1 PUSH2 0x100 EXP SWAP1 DIV PUSH1 0xFF AND PUSH2 0x8EC JUMPI PUSH1 0x40 MLOAD PUSH32 0x8C379A000000000000000000000000000000000000000000000000000000000 DUP2 MSTORE PUSH1 0x4 ADD PUSH2 0x8E3 SWAP1 PUSH2 0x211B JUMP JUMPDEST PUSH1 0x40 MLOAD DUP1 SWAP2 SUB SWAP1 REVERT JUMPDEST CALLER PUSH20 0xFFFFFFFFFFFFFFFFFFFFFFFFFFFFFFFFFFFFFFFF AND PUSH1 0x2 DUP3 PUSH1 0x40 MLOAD PUSH2 0x913 SWAP2 SWAP1 PUSH2 0x1B2D JUMP JUMPDEST SWAP1 DUP2 MSTORE PUSH1 0x20 ADD PUSH1 0x40 MLOAD DUP1 SWAP2 SUB SWAP1 KECCAK256 PUSH1 0x1 ADD PUSH0 SWAP1 SLOAD SWAP1 PUSH2 0x100 EXP SWAP1 DIV PUSH20 0xFFFFFFFFFFFFFFFFFFFFFFFFFFFFFFFFFFFFFFFF AND PUSH20 0xFFFFFFFFFFFFFFFFFFFFFFFFFFFFFFFFFFFFFFFF AND EQ PUSH2 0x99A JUMPI PUSH1 0x40 MLOAD PUSH32 0x8C379A000000000000000000000000000000000000000000000000000000000 DUP2 MSTORE PUSH1 0x4 ADD PUSH2 0x991 SWAP1 PUSH2 0x2183 JUMP JUMPDEST PUSH1 0x40 MLOAD DUP1 SWAP2 SUB SWAP1 REVERT JUMPDEST PUSH1 0x2 DUP2 PUSH1 0x40 MLOAD PUSH2 0x9AA SWAP2 SWAP1 PUSH2 0x1B2D JUMP JUMPDEST SWAP1 DUP2 MSTORE PUSH1 0x20 ADD PUSH1 0x40 MLOAD DUP1 SWAP2 SUB SWAP1 KECCAK256 PUSH0 PUSH0 DUP3 ADD PUSH0 PUSH2 0x9C7 SWAP2 SWAP1 PUSH2 0x142F JUMP JUMPDEST PUSH1 0x1 DUP3 ADD PUSH0 PUSH2 0x100 EXP DUP2 SLOAD SWAP1 PUSH20 0xFFFFFFFFFFFFFFFFFFFFFFFFFFFFFFFFFFFFFFFF MUL NOT AND SWAP1 SSTORE PUSH1 0x2 DUP3 ADD PUSH0 SWAP1 SSTORE PUSH1 0x3 DUP3 ADD PUSH0 PUSH2 0x100 EXP DUP2 SLOAD SWAP1 PUSH1 0xFF MUL NOT AND SWAP1 SSTORE POP POP PUSH0 PUSH0 PUSH0 CALLER PUSH20 0xFFFFFFFFFFFFFFFFFFFFFFFFFFFFFFFFFFFFFFFF AND PUSH20 0xFFFFFFFFFFFFFFFFFFFFFFFFFFFFFFFFFFFFFFFF AND DUP2 MSTORE PUSH1 0x20 ADD SWAP1 DUP2 MSTORE PUSH1 0x20 ADD PUSH0 KECCAK256 SWAP1 POP PUSH0 PUSH0 SWAP1 POP JUMPDEST DUP2 DUP1 SLOAD SWAP1 POP DUP2 LT ISZERO PUSH2 0xB27 JUMPI DUP3 DUP1 MLOAD SWAP1 PUSH1 0x20 ADD KECCAK256 DUP3 DUP3 DUP2 SLOAD DUP2 LT PUSH2 0xA74 JUMPI PUSH2 0xA73 PUSH2 0x1FAF JUMP JUMPDEST JUMPDEST SWAP1 PUSH0 MSTORE PUSH1 0x20 PUSH0 KECCAK256 ADD PUSH1 0x40 MLOAD PUSH2 0xA89 SWAP2 SWAP1 PUSH2 0x2078 JUMP JUMPDEST PUSH1 0x40 MLOAD DUP1 SWAP2 SUB SWAP1 KECCAK256 SUB PUSH2 0xB1A JUMPI DUP2 PUSH1 0x1 DUP4 DUP1 SLOAD SWAP1 POP PUSH2 0xAA8 SWAP2 SWAP1 PUSH2 0x21CE JUMP JUMPDEST DUP2 SLOAD DUP2 LT PUSH2 0xAB9 JUMPI PUSH2 0xAB8 PUSH2 0x1FAF JUMP JUMPDEST JUMPDEST SWAP1 PUSH0 MSTORE PUSH1 0x20 PUSH0 KECCAK256 ADD DUP3 DUP3 DUP2 SLOAD DUP2 LT PUSH2 0xAD4 JUMPI PUSH2 0xAD3 PUSH2 0x1FAF JUMP JUMPDEST JUMPDEST SWAP1 PUSH0 MSTORE PUSH1 0x20 PUSH0 KECCAK256 ADD SWAP1 DUP2 PUSH2 0xAE8 SWAP2 SWAP1 PUSH2 0x2228 JUMP JUMPDEST POP DUP2 DUP1 SLOAD DUP1 PUSH2 0xAFA JUMPI PUSH2 0xAF9 PUSH2 0x230D JUMP JUMPDEST JUMPDEST PUSH1 0x1 SWAP1 SUB DUP2 DUP2 SWAP1 PUSH0 MSTORE PUSH1 0x20 PUSH0 KECCAK256 ADD PUSH0 PUSH2 0xB13 SWAP2 SWAP1 PUSH2 0x142F JUMP JUMPDEST SWAP1 SSTORE PUSH2 0xB27 JUMP JUMPDEST DUP1 DUP1 PUSH1 0x1 ADD SWAP2 POP POP PUSH2 0xA4D JUMP JUMPDEST POP PUSH0 PUSH0 SWAP1 POP JUMPDEST PUSH1 0x1 DUP1 SLOAD SWAP1 POP DUP2 LT ISZERO PUSH2 0xC0B JUMPI DUP3 DUP1 MLOAD SWAP1 PUSH1 0x20 ADD KECCAK256 PUSH1 0x1 DUP3 DUP2 SLOAD DUP2 LT PUSH2 0xB56 JUMPI PUSH2 0xB55 PUSH2 0x1FAF JUMP JUMPDEST JUMPDEST SWAP1 PUSH0 MSTORE PUSH1 0x20 PUSH0 KECCAK256 ADD PUSH1 0x40 MLOAD PUSH2 0xB6B SWAP2 SWAP1 PUSH2 0x2078 JUMP JUMPDEST PUSH1 0x40 MLOAD DUP1 SWAP2 SUB SWAP1 KECCAK256 SUB PUSH2 0xBFE JUMPI PUSH1 0x1 DUP1 DUP1 DUP1 SLOAD SWAP1 POP PUSH2 0xB8A SWAP2 SWAP1 PUSH2 0x21CE JUMP JUMPDEST DUP2 SLOAD DUP2 LT PUSH2 0xB9B JUMPI PUSH2 0xB9A PUSH2 0x1FAF JUMP JUMPDEST JUMPDEST SWAP1 PUSH0 MSTORE PUSH1 0x20 PUSH0 KECCAK256 ADD PUSH1 0x1 DUP3 DUP2 SLOAD DUP2 LT PUSH2 0xBB7 JUMPI PUSH2 0xBB6 PUSH2 0x1FAF JUMP JUMPDEST JUMPDEST SWAP1 PUSH0 MSTORE PUSH1 0x20 PUSH0 KECCAK256 ADD SWAP1 DUP2 PUSH2 0xBCB SWAP2 SWAP1 PUSH2 0x2228 JUMP JUMPDEST POP PUSH1 0x1 DUP1 SLOAD DUP1 PUSH2 0xBDE JUMPI PUSH2 0xBDD PUSH2 0x230D JUMP JUMPDEST JUMPDEST PUSH1 0x1 SWAP1 SUB DUP2 DUP2 SWAP1 PUSH0 MSTORE PUSH1 0x20 PUSH0 KECCAK256 ADD PUSH0 PUSH2 0xBF7 SWAP2 SWAP1 PUSH2 0x142F JUMP JUMPDEST SWAP1 SSTORE PUSH2 0xC0B JUMP JUMPDEST DUP1 DUP1 PUSH1 0x1 ADD SWAP2 POP POP PUSH2 0xB2D JUMP JUMPDEST POP CALLER PUSH20 0xFFFFFFFFFFFFFFFFFFFFFFFFFFFFFFFFFFFFFFFF AND PUSH32 0x52F5A9D08669BE24CAF9D9A03CE03FD5D8C3E44FFE7A4635AFC8C90857B1D51A DUP4 TIMESTAMP PUSH1 0x40 MLOAD PUSH2 0xC54 SWAP3 SWAP2 SWAP1 PUSH2 0x233A JUMP JUMPDEST PUSH1 0x40 MLOAD DUP1 SWAP2 SUB SWAP1 LOG2 POP POP JUMP JUMPDEST PUSH2 0xC68 PUSH2 0x146C JUMP JUMPDEST PUSH1 0x2 DUP3 PUSH1 0x40 MLOAD PUSH2 0xC78 SWAP2 SWAP1 PUSH2 0x1B2D JUMP JUMPDEST SWAP1 DUP2 MSTORE PUSH1 0x20 ADD PUSH1 0x40 MLOAD DUP1 SWAP2 SUB SWAP1 KECCAK256 PUSH1 0x3 ADD PUSH0 SWAP1 SLOAD SWAP1 PUSH2 0x100 EXP SWAP1 DIV PUSH1 0xFF AND PUSH2 0xCD5 JUMPI PUSH1 0x40 MLOAD PUSH32 0x8C379A000000000000000000000000000000000000000000000000000000000 DUP2 MSTORE PUSH1 0x4 ADD PUSH2 0xCCC SWAP1 PUSH2 0x211B JUMP JUMPDEST PUSH1 0x40 MLOAD DUP1 SWAP2 SUB SWAP1 REVERT JUMPDEST PUSH1 0x2 DUP3 PUSH1 0x40 MLOAD PUSH2 0xCE5 SWAP2 SWAP1 PUSH2 0x1B2D JUMP JUMPDEST SWAP1 DUP2 MSTORE PUSH1 0x20 ADD PUSH1 0x40 MLOAD DUP1 SWAP2 SUB SWAP1 KECCAK256 PUSH1 0x40 MLOAD DUP1 PUSH1 0x80 ADD PUSH1 0x40 MSTORE SWAP1 DUP2 PUSH0 DUP3 ADD DUP1 SLOAD PUSH2 0xD0D SWAP1 PUSH2 0x1D10 JUMP JUMPDEST DUP1 PUSH1 0x1F ADD PUSH1 0x20 DUP1 SWAP2 DIV MUL PUSH1 0x20 ADD PUSH1 0x40 MLOAD SWAP1 DUP2 ADD PUSH1 0x40 MSTORE DUP1 SWAP3 SWAP2 SWAP1 DUP2 DUP2 MSTORE PUSH1 0x20 ADD DUP3 DUP1 SLOAD PUSH2 0xD39 SWAP1 PUSH2 0x1D10 JUMP JUMPDEST DUP1 ISZERO PUSH2 0xD84 JUMPI DUP1 PUSH1 0x1F LT PUSH2 0xD5B JUMPI PUSH2 0x100 DUP1 DUP4 SLOAD DIV MUL DUP4 MSTORE SWAP2 PUSH1 0x20 ADD SWAP2 PUSH2 0xD84 JUMP JUMPDEST DUP3 ADD SWAP2 SWAP1 PUSH0 MSTORE PUSH1 0x20 PUSH0 KECCAK256 SWAP1 JUMPDEST DUP2 SLOAD DUP2 MSTORE SWAP1 PUSH1 0x1 ADD SWAP1 PUSH1 0x20 ADD DUP1 DUP4 GT PUSH2 0xD67 JUMPI DUP3 SWAP1 SUB PUSH1 0x1F AND DUP3 ADD SWAP2 JUMPDEST POP POP POP POP POP DUP2 MSTORE PUSH1 0x20 ADD PUSH1 0x1 DUP3 ADD PUSH0 SWAP1 SLOAD SWAP1 PUSH2 0x100 EXP SWAP1 DIV PUSH20 0xFFFFFFFFFFFFFFFFFFFFFFFFFFFFFFFFFFFFFFFF AND PUSH20 0xFFFFFFFFFFFFFFFFFFFFFFFFFFFFFFFFFFFFFFFF AND PUSH20 0xFFFFFFFFFFFFFFFFFFFFFFFFFFFFFFFFFFFFFFFF AND DUP2 MSTORE PUSH1 0x20 ADD PUSH1 0x2 DUP3 ADD SLOAD DUP2 MSTORE PUSH1 0x20 ADD PUSH1 0x3 DUP3 ADD PUSH0 SWAP1 SLOAD SWAP1 PUSH2 0x100 EXP SWAP1 DIV PUSH1 0xFF AND ISZERO ISZERO ISZERO ISZERO DUP2 MSTORE POP POP SWAP1 POP SWAP2 SWAP1 POP JUMP JUMPDEST PUSH1 0x1 DUP2 DUP2 SLOAD DUP2 LT PUSH2 0xE1C JUMPI PUSH0 DUP1 REVERT JUMPDEST SWAP1 PUSH0 MSTORE PUSH1 0x20 PUSH0 KECCAK256 ADD PUSH0 SWAP2 POP SWAP1 POP DUP1 SLOAD PUSH2 0xE34 SWAP1 PUSH2 0x1D10 JUMP JUMPDEST DUP1 PUSH1 0x1F ADD PUSH1 0x20 DUP1 SWAP2 DIV MUL PUSH1 0x20 ADD PUSH1 0x40 MLOAD SWAP1 DUP2 ADD PUSH1 0x40 MSTORE DUP1 SWAP3 SWAP2 SWAP1 DUP2 DUP2 MSTORE PUSH1 0x20 ADD DUP3 DUP1 SLOAD PUSH2 0xE60 SWAP1 PUSH2 0x1D10 JUMP JUMPDEST DUP1 ISZERO PUSH2 0xEAB JUMPI DUP1 PUSH1 0x1F LT PUSH2 0xE82 JUMPI PUSH2 0x100 DUP1 DUP4 SLOAD DIV MUL DUP4 MSTORE SWAP2 PUSH1 0x20 ADD SWAP2 PUSH2 0xEAB JUMP JUMPDEST DUP3 ADD SWAP2 SWAP1 PUSH0 MSTORE PUSH1 0x20 PUSH0 KECCAK256 SWAP1 JUMPDEST DUP2 SLOAD DUP2 MSTORE SWAP1 PUSH1 0x1 ADD SWAP1 PUSH1 0x20 ADD DUP1 DUP4 GT PUSH2 0xE8E JUMPI DUP3 SWAP1 SUB PUSH1 0x1F AND DUP3 ADD SWAP2 JUMPDEST POP POP POP POP POP DUP2 JUMP JUMPDEST PUSH0 PUSH1 0x20 MSTORE DUP2 PUSH0 MSTORE PUSH1 0x40 PUSH0 KECCAK256 DUP2 DUP2 SLOAD DUP2 LT PUSH2 0xECB JUMPI PUSH0 DUP1 REVERT JUMPDEST SWAP1 PUSH0 MSTORE PUSH1 0x20 PUSH0 KECCAK256 ADD PUSH0 SWAP2 POP SWAP2 POP POP DUP1 SLOAD PUSH2 0xEE4 SWAP1 PUSH2 0x1D10 JUMP JUMPDEST DUP1 PUSH1 0x1F ADD PUSH1 0x20 DUP1 SWAP2 DIV MUL PUSH1 0x20 ADD PUSH1 0x40 MLOAD SWAP1 DUP2 ADD PUSH1 0x40 MSTORE DUP1 SWAP3 SWAP2 SWAP1 DUP2 DUP2 MSTORE PUSH1 0x20 ADD DUP3 DUP1 SLOAD PUSH2 0xF10 SWAP1 PUSH2 0x1D10 JUMP JUMPDEST DUP1 ISZERO PUSH2 0xF5B JUMPI DUP1 PUSH1 0x1F LT PUSH2 0xF32 JUMPI PUSH2 0x100 DUP1 DUP4 SLOAD DIV MUL DUP4 MSTORE SWAP2 PUSH1 0x20 ADD SWAP2 PUSH2 0xF5B JUMP JUMPDEST DUP3 ADD SWAP2 SWAP1 PUSH0 MSTORE PUSH1 0x20 PUSH0 KECCAK256 SWAP1 JUMPDEST DUP2 SLOAD DUP2 MSTORE SWAP1 PUSH1 0x1 ADD SWAP1 PUSH1 0x20 ADD DUP1 DUP4 GT PUSH2 0xF3E JUMPI DUP3 SWAP1 SUB PUSH1 0x1F AND DUP3 ADD SWAP2 JUMPDEST POP POP POP POP POP DUP2 JUMP JUMPDEST PUSH0 DUP2 MLOAD GT PUSH2 0xFA6 JUMPI PUSH1 0x40 MLOAD PUSH32 0x8C379A000000000000000000000000000000000000000000000000000000000 DUP2 MSTORE PUSH1 0x4 ADD PUSH2 0xF9D SWAP1 PUSH2 0x23B2 JUMP JUMPDEST PUSH1 0x40 MLOAD DUP1 SWAP2 SUB SWAP1 REVERT JUMPDEST PUSH1 0x2 DUP2 PUSH1 0x40 MLOAD PUSH2 0xFB6 SWAP2 SWAP1 PUSH2 0x1B2D JUMP JUMPDEST SWAP1 DUP2 MSTORE PUSH1 0x20 ADD PUSH1 0x40 MLOAD DUP1 SWAP2 SUB SWAP1 KECCAK256 PUSH1 0x3 ADD PUSH0 SWAP1 SLOAD SWAP1 PUSH2 0x100 EXP SWAP1 DIV PUSH1 0xFF AND ISZERO PUSH2 0x1014 JUMPI PUSH1 0x40 MLOAD PUSH32 0x8C379A000000000000000000000000000000000000000000000000000000000 DUP2 MSTORE PUSH1 0x4 ADD PUSH2 0x100B SWAP1 PUSH2 0x241A JUMP JUMPDEST PUSH1 0x40 MLOAD DUP1 SWAP2 SUB SWAP1 REVERT JUMPDEST PUSH0 PUSH1 0x40 MLOAD DUP1 PUSH1 0x80 ADD PUSH1 0x40 MSTORE DUP1 DUP4 DUP2 MSTORE PUSH1 0x20 ADD CALLER PUSH20 0xFFFFFFFFFFFFFFFFFFFFFFFFFFFFFFFFFFFFFFFF AND DUP2 MSTORE PUSH1 0x20 ADD TIMESTAMP DUP2 MSTORE PUSH1 0x20 ADD PUSH1 0x1 ISZERO ISZERO DUP2 MSTORE POP SWAP1 POP DUP1 PUSH1 0x2 DUP4 PUSH1 0x40 MLOAD PUSH2 0x1062 SWAP2 SWAP1 PUSH2 0x1B2D JUMP JUMPDEST SWAP1 DUP2 MSTORE PUSH1 0x20 ADD PUSH1 0x40 MLOAD DUP1 SWAP2 SUB SWAP1 KECCAK256 PUSH0 DUP3 ADD MLOAD DUP2 PUSH0 ADD SWAP1 DUP2 PUSH2 0x1083 SWAP2 SWAP1 PUSH2 0x1EE0 JUMP JUMPDEST POP PUSH1 0x20 DUP3 ADD MLOAD DUP2 PUSH1 0x1 ADD PUSH0 PUSH2 0x100 EXP DUP2 SLOAD DUP2 PUSH20 0xFFFFFFFFFFFFFFFFFFFFFFFFFFFFFFFFFFFFFFFF MUL NOT AND SWAP1 DUP4 PUSH20 0xFFFFFFFFFFFFFFFFFFFFFFFFFFFFFFFFFFFFFFFF AND MUL OR SWAP1 SSTORE POP PUSH1 0x40 DUP3 ADD MLOAD DUP2 PUSH1 0x2 ADD SSTORE PUSH1 0x60 DUP3 ADD MLOAD DUP2 PUSH1 0x3 ADD PUSH0 PUSH2 0x100 EXP DUP2 SLOAD DUP2 PUSH1 0xFF MUL NOT AND SWAP1 DUP4 ISZERO ISZERO MUL OR SWAP1 SSTORE POP SWAP1 POP POP PUSH0 PUSH0 CALLER PUSH20 0xFFFFFFFFFFFFFFFFFFFFFFFFFFFFFFFFFFFFFFFF AND PUSH20 0xFFFFFFFFFFFFFFFFFFFFFFFFFFFFFFFFFFFFFFFF AND DUP2 MSTORE PUSH1 0x20 ADD SWAP1 DUP2 MSTORE PUSH1 0x20 ADD PUSH0 KECCAK256 DUP3 SWAP1 DUP1 PUSH1 0x1 DUP2 SLOAD ADD DUP1 DUP3 SSTORE DUP1 SWAP2 POP POP PUSH1 0x1 SWAP1 SUB SWAP1 PUSH0 MSTORE PUSH1 0x20 PUSH0 KECCAK256 ADD PUSH0 SWAP1 SWAP2 SWAP1 SWAP2 SWAP1 SWAP2 POP SWAP1 DUP2 PUSH2 0x1161 SWAP2 SWAP1 PUSH2 0x1EE0 JUMP JUMPDEST POP PUSH1 0x1 DUP3 SWAP1 DUP1 PUSH1 0x1 DUP2 SLOAD ADD DUP1 DUP3 SSTORE DUP1 SWAP2 POP POP PUSH1 0x1 SWAP1 SUB SWAP1 PUSH0 MSTORE PUSH1 0x20 PUSH0 KECCAK256 ADD PUSH0 SWAP1 SWAP2 SWAP1 SWAP2 SWAP1 SWAP2 POP SWAP1 DUP2 PUSH2 0x1193 SWAP2 SWAP1 PUSH2 0x1EE0 JUMP JUMPDEST POP CALLER PUSH20 0xFFFFFFFFFFFFFFFFFFFFFFFFFFFFFFFFFFFFFFFF AND PUSH32 0xA4C9691AF7ED58EB17243A52187F05A4173D9DD4BD79A27043A740A43B932713 DUP4 TIMESTAMP PUSH1 0x40 MLOAD PUSH2 0x11DC SWAP3 SWAP2 SWAP1 PUSH2 0x233A JUMP JUMPDEST PUSH1 0x40 MLOAD DUP1 SWAP2 SUB SWAP1 LOG2 POP POP JUMP JUMPDEST PUSH1 0x60 PUSH0 PUSH0 DUP4 PUSH20 0xFFFFFFFFFFFFFFFFFFFFFFFFFFFFFFFFFFFFFFFF AND PUSH20 0xFFFFFFFFFFFFFFFFFFFFFFFFFFFFFFFFFFFFFFFF AND DUP2 MSTORE PUSH1 0x20 ADD SWAP1 DUP2 MSTORE PUSH1 0x20 ADD PUSH0 KECCAK256 DUP1 SLOAD DUP1 PUSH1 0x20 MUL PUSH1 0x20 ADD PUSH1 0x40 MLOAD SWAP1 DUP2 ADD PUSH1 0x40 MSTORE DUP1 SWAP3 SWAP2 SWAP1 DUP2 DUP2 MSTORE PUSH1 0x20 ADD PUSH0 SWAP1 JUMPDEST DUP3 DUP3 LT ISZERO PUSH2 0x12ED JUMPI DUP4 DUP3 SWAP1 PUSH0 MSTORE PUSH1 0x20 PUSH0 KECCAK256 ADD DUP1 SLOAD PUSH2 0x1262 SWAP1 PUSH2 0x1D10 JUMP JUMPDEST DUP1 PUSH1 0x1F ADD PUSH1 0x20 DUP1 SWAP2 DIV MUL PUSH1 0x20 ADD PUSH1 0x40 MLOAD SWAP1 DUP2 ADD PUSH1 0x40 MSTORE DUP1 SWAP3 SWAP2 SWAP1 DUP2 DUP2 MSTORE PUSH1 0x20 ADD DUP3 DUP1 SLOAD PUSH2 0x128E SWAP1 PUSH2 0x1D10 JUMP JUMPDEST DUP1 ISZERO PUSH2 0x12D9 JUMPI DUP1 PUSH1 0x1F LT PUSH2 0x12B0 JUMPI PUSH2 0x100 DUP1 DUP4 SLOAD DIV MUL DUP4 MSTORE SWAP2 PUSH1 0x20 ADD SWAP2 PUSH2 0x12D9 JUMP JUMPDEST DUP3 ADD SWAP2 SWAP1 PUSH0 MSTORE PUSH1 0x20 PUSH0 KECCAK256 SWAP1 JUMPDEST DUP2 SLOAD DUP2 MSTORE SWAP1 PUSH1 0x1 ADD SWAP1 PUSH1 0x20 ADD DUP1 DUP4 GT PUSH2 0x12BC JUMPI DUP3 SWAP1 SUB PUSH1 0x1F AND DUP3 ADD SWAP2 JUMPDEST POP POP POP POP POP DUP2 MSTORE PUSH1 0x20 ADD SWAP1 PUSH1 0x1 ADD SWAP1 PUSH2 0x1245 JUMP JUMPDEST POP POP POP POP SWAP1 POP SWAP2 SWAP1 POP JUMP JUMPDEST PUSH0 PUSH1 0x1 DUP1 SLOAD SWAP1 POP SWAP1 POP SWAP1 JUMP JUMPDEST PUSH0 PUSH1 0x2 DUP3 PUSH1 0x40 MLOAD PUSH2 0x1315 SWAP2 SWAP1 PUSH2 0x1B2D JUMP JUMPDEST SWAP1 DUP2 MSTORE PUSH1 0x20 ADD PUSH1 0x40 MLOAD DUP1 SWAP2 SUB SWAP1 KECCAK256 PUSH1 0x3 ADD PUSH0 SWAP1 SLOAD SWAP1 PUSH2 0x100 EXP SWAP1 DIV PUSH1 0xFF AND SWAP1 POP SWAP2 SWAP1 POP JUMP JUMPDEST PUSH1 0x2 DUP2 DUP1 MLOAD PUSH1 0x20 DUP2 ADD DUP3 ADD DUP1 MLOAD DUP5 DUP3 MSTORE PUSH1 0x20 DUP4 ADD PUSH1 0x20 DUP6 ADD KECCAK256 DUP2 DUP4 MSTORE DUP1 SWAP6 POP POP POP POP POP POP PUSH0 SWAP2 POP SWAP1 POP DUP1 PUSH0 ADD DUP1 SLOAD PUSH2 0x1371 SWAP1 PUSH2 0x1D10 JUMP JUMPDEST DUP1 PUSH1 0x1F ADD PUSH1 0x20 DUP1 SWAP2 DIV MUL PUSH1 0x20 ADD PUSH1 0x40 MLOAD SWAP1 DUP2 ADD PUSH1 0x40 MSTORE DUP1 SWAP3 SWAP2 SWAP1 DUP2 DUP2 MSTORE PUSH1 0x20 ADD DUP3 DUP1 SLOAD PUSH2 0x139D SWAP1 PUSH2 0x1D10 JUMP JUMPDEST DUP1 ISZERO PUSH2 0x13E8 JUMPI DUP1 PUSH1 0x1F LT PUSH2 0x13BF JUMPI PUSH2 0x100 DUP1 DUP4 SLOAD DIV MUL DUP4 MSTORE SWAP2 PUSH1 0x20 ADD SWAP2 PUSH2 0x13E8 JUMP JUMPDEST DUP3 ADD SWAP2 SWAP1 PUSH0 MSTORE PUSH1 0x20 PUSH0 KECCAK256 SWAP1 JUMPDEST DUP2 SLOAD DUP2 MSTORE SWAP1 PUSH1 0x1 ADD SWAP1 PUSH1 0x20 ADD DUP1 DUP4 GT PUSH2 0x13CB JUMPI DUP3 SWAP1 SUB PUSH1 0x1F AND DUP3 ADD SWAP2 JUMPDEST POP POP POP POP POP SWAP1 DUP1 PUSH1 0x1 ADD PUSH0 SWAP1 SLOAD SWAP1 PUSH2 0x100 EXP SWAP1 DIV PUSH20 0xFFFFFFFFFFFFFFFFFFFFFFFFFFFFFFFFFFFFFFFF AND SWAP1 DUP1 PUSH1 0x2 ADD SLOAD SWAP1 DUP1 PUSH1 0x3 ADD PUSH0 SWAP1 SLOAD SWAP1 PUSH2 0x100 EXP SWAP1 DIV PUSH1 0xFF AND SWAP1 POP DUP5 JUMP JUMPDEST POP DUP1 SLOAD PUSH2 0x143B SWAP1 PUSH2 0x1D10 JUMP JUMPDEST PUSH0 DUP3 SSTORE DUP1 PUSH1 0x1F LT PUSH2 0x144C JUMPI POP PUSH2 0x1469 JUMP JUMPDEST PUSH1 0x1F ADD PUSH1 0x20 SWAP1 DIV SWAP1 PUSH0 MSTORE PUSH1 0x20 PUSH0 KECCAK256 SWAP1 DUP2 ADD SWAP1 PUSH2 0x1468 SWAP2 SWAP1 PUSH2 0x14A9 JUMP JUMPDEST JUMPDEST POP JUMP JUMPDEST PUSH1 0x40 MLOAD DUP1 PUSH1 0x80 ADD PUSH1 0x40 MSTORE DUP1 PUSH1 0x60 DUP2 MSTORE PUSH1 0x20 ADD PUSH0 PUSH20 0xFFFFFFFFFFFFFFFFFFFFFFFFFFFFFFFFFFFFFFFF AND DUP2 MSTORE PUSH1 0x20 ADD PUSH0 DUP2 MSTORE PUSH1 0x20 ADD PUSH0 ISZERO ISZERO DUP2 MSTORE POP SWAP1 JUMP JUMPDEST JUMPDEST DUP1 DUP3 GT ISZERO PUSH2 0x14C0 JUMPI PUSH0 DUP2 PUSH0 SWAP1 SSTORE POP PUSH1 0x1 ADD PUSH2 0x14AA JUMP JUMPDEST POP SWAP1 JUMP JUMPDEST PUSH0 PUSH1 0x40 MLOAD SWAP1 POP SWAP1 JUMP JUMPDEST PUSH0 PUSH0 REVERT JUMPDEST PUSH0 PUSH0 REVERT JUMPDEST PUSH0 PUSH20 0xFFFFFFFFFFFFFFFFFFFFFFFFFFFFFFFFFFFFFFFF DUP3 AND SWAP1 POP SWAP2 SWAP1 POP JUMP JUMPDEST PUSH0 PUSH2 0x14FE DUP3 PUSH2 0x14D5 JUMP JUMPDEST SWAP1 POP SWAP2 SWAP1 POP JUMP JUMPDEST PUSH2 0x150E DUP2 PUSH2 0x14F4 JUMP JUMPDEST DUP2 EQ PUSH2 0x1518 JUMPI PUSH0 PUSH0 REVERT JUMPDEST POP JUMP JUMPDEST PUSH0 DUP2 CALLDATALOAD SWAP1 POP PUSH2 0x1529 DUP2 PUSH2 0x1505 JUMP JUMPDEST SWAP3 SWAP2 POP POP JUMP JUMPDEST PUSH0 PUSH1 0x20 DUP3 DUP5 SUB SLT ISZERO PUSH2 0x1544 JUMPI PUSH2 0x1543 PUSH2 0x14CD JUMP JUMPDEST JUMPDEST PUSH0 PUSH2 0x1551 DUP5 DUP3 DUP6 ADD PUSH2 0x151B JUMP JUMPDEST SWAP2 POP POP SWAP3 SWAP2 POP POP JUMP JUMPDEST PUSH0 DUP2 SWAP1 POP SWAP2 SWAP1 POP JUMP JUMPDEST PUSH2 0x156C DUP2 PUSH2 0x155A JUMP JUMPDEST DUP3 MSTORE POP POP JUMP JUMPDEST PUSH0 PUSH1 0x20 DUP3 ADD SWAP1 POP PUSH2 0x1585 PUSH0 DUP4 ADD DUP5 PUSH2 0x1563 JUMP JUMPDEST SWAP3 SWAP2 POP POP JUMP JUMPDEST PUSH0 PUSH0 REVERT JUMPDEST PUSH0 PUSH0 REVERT JUMPDEST PUSH0 PUSH1 0x1F NOT PUSH1 0x1F DUP4 ADD AND SWAP1 POP SWAP2 SWAP1 POP JUMP JUMPDEST PUSH32 0x4E487B7100000000000000000000000000000000000000000000000000000000 PUSH0 MSTORE PUSH1 0x41 PUSH1 0x4 MSTORE PUSH1 0x24 PUSH0 REVERT JUMPDEST PUSH2 0x15D9 DUP3 PUSH2 0x1593 JUMP JUMPDEST DUP2 ADD DUP2 DUP2 LT PUSH8 0xFFFFFFFFFFFFFFFF DUP3 GT OR ISZERO PUSH2 0x15F8 JUMPI PUSH2 0x15F7 PUSH2 0x15A3 JUMP JUMPDEST JUMPDEST DUP1 PUSH1 0x40 MSTORE POP POP POP JUMP JUMPDEST PUSH0 PUSH2 0x160A PUSH2 0x14C4 JUMP JUMPDEST SWAP1 POP PUSH2 0x1616 DUP3 DUP3 PUSH2 0x15D0 JUMP JUMPDEST SWAP2 SWAP1 POP JUMP JUMPDEST PUSH0 PUSH8 0xFFFFFFFFFFFFFFFF DUP3 GT ISZERO PUSH2 0x1635 JUMPI PUSH2 0x1634 PUSH2 0x15A3 JUMP JUMPDEST JUMPDEST PUSH2 0x163E DUP3 PUSH2 0x1593 JUMP JUMPDEST SWAP1 POP PUSH1 0x20 DUP2 ADD SWAP1 POP SWAP2 SWAP1 POP JUMP JUMPDEST DUP3 DUP2 DUP4 CALLDATACOPY PUSH0 DUP4 DUP4 ADD MSTORE POP POP POP JUMP JUMPDEST PUSH0 PUSH2 0x166B PUSH2 0x1666 DUP5 PUSH2 0x161B JUMP JUMPDEST PUSH2 0x1601 JUMP JUMPDEST SWAP1 POP DUP3 DUP2 MSTORE PUSH1 0x20 DUP2 ADD DUP5 DUP5 DUP5 ADD GT ISZERO PUSH2 0x1687 JUMPI PUSH2 0x1686 PUSH2 0x158F JUMP JUMPDEST JUMPDEST PUSH2 0x1692 DUP5 DUP3 DUP6 PUSH2 0x164B JUMP JUMPDEST POP SWAP4 SWAP3 POP POP POP JUMP JUMPDEST PUSH0 DUP3 PUSH1 0x1F DUP4 ADD SLT PUSH2 0x16AE JUMPI PUSH2 0x16AD PUSH2 0x158B JUMP JUMPDEST JUMPDEST DUP2 CALLDATALOAD PUSH2 0x16BE DUP5 DUP3 PUSH1 0x20 DUP7 ADD PUSH2 0x1659 JUMP JUMPDEST SWAP2 POP POP SWAP3 SWAP2 POP POP JUMP JUMPDEST PUSH0 PUSH0 PUSH1 0x40 DUP4 DUP6 SUB SLT ISZERO PUSH2 0x16DD JUMPI PUSH2 0x16DC PUSH2 0x14CD JUMP JUMPDEST JUMPDEST PUSH0 DUP4 ADD CALLDATALOAD PUSH8 0xFFFFFFFFFFFFFFFF DUP2 GT ISZERO PUSH2 0x16FA JUMPI PUSH2 0x16F9 PUSH2 0x14D1 JUMP JUMPDEST JUMPDEST PUSH2 0x1706 DUP6 DUP3 DUP7 ADD PUSH2 0x169A JUMP JUMPDEST SWAP3 POP POP PUSH1 0x20 DUP4 ADD CALLDATALOAD PUSH8 0xFFFFFFFFFFFFFFFF DUP2 GT ISZERO PUSH2 0x1727 JUMPI PUSH2 0x1726 PUSH2 0x14D1 JUMP JUMPDEST JUMPDEST PUSH2 0x1733 DUP6 DUP3 DUP7 ADD PUSH2 0x169A JUMP JUMPDEST SWAP2 POP POP SWAP3 POP SWAP3 SWAP1 POP JUMP JUMPDEST PUSH0 DUP2 MLOAD SWAP1 POP SWAP2 SWAP1 POP JUMP JUMPDEST PUSH0 DUP3 DUP3 MSTORE PUSH1 0x20 DUP3 ADD SWAP1 POP SWAP3 SWAP2 POP POP JUMP JUMPDEST PUSH0 DUP2 SWAP1 POP PUSH1 0x20 DUP3 ADD SWAP1 POP SWAP2 SWAP1 POP JUMP JUMPDEST PUSH0 DUP2 MLOAD SWAP1 POP SWAP2 SWAP1 POP JUMP JUMPDEST PUSH0 DUP3 DUP3 MSTORE PUSH1 0x20 DUP3 ADD SWAP1 POP SWAP3 SWAP2 POP POP JUMP JUMPDEST DUP3 DUP2 DUP4 MCOPY PUSH0 DUP4 DUP4 ADD MSTORE POP POP POP JUMP JUMPDEST PUSH0 PUSH2 0x1798 DUP3 PUSH2 0x1766 JUMP JUMPDEST PUSH2 0x17A2 DUP2 DUP6 PUSH2 0x1770 JUMP JUMPDEST SWAP4 POP PUSH2 0x17B2 DUP2 DUP6 PUSH1 0x20 DUP7 ADD PUSH2 0x1780 JUMP JUMPDEST PUSH2 0x17BB DUP2 PUSH2 0x1593 JUMP JUMPDEST DUP5 ADD SWAP2 POP POP SWAP3 SWAP2 POP POP JUMP JUMPDEST PUSH0 PUSH2 0x17D1 DUP4 DUP4 PUSH2 0x178E JUMP JUMPDEST SWAP1 POP SWAP3 SWAP2 POP POP JUMP JUMPDEST PUSH0 PUSH1 0x20 DUP3 ADD SWAP1 POP SWAP2 SWAP1 POP JUMP JUMPDEST PUSH0 PUSH2 0x17EF DUP3 PUSH2 0x173D JUMP JUMPDEST PUSH2 0x17F9 DUP2 DUP6 PUSH2 0x1747 JUMP JUMPDEST SWAP4 POP DUP4 PUSH1 0x20 DUP3 MUL DUP6 ADD PUSH2 0x180B DUP6 PUSH2 0x1757 JUMP JUMPDEST DUP1 PUSH0 JUMPDEST DUP6 DUP2 LT ISZERO PUSH2 0x1846 JUMPI DUP5 DUP5 SUB DUP10 MSTORE DUP2 MLOAD PUSH2 0x1827 DUP6 DUP3 PUSH2 0x17C6 JUMP JUMPDEST SWAP5 POP PUSH2 0x1832 DUP4 PUSH2 0x17D9 JUMP JUMPDEST SWAP3 POP PUSH1 0x20 DUP11 ADD SWAP10 POP POP PUSH1 0x1 DUP2 ADD SWAP1 POP PUSH2 0x180E JUMP JUMPDEST POP DUP3 SWAP8 POP DUP8 SWAP6 POP POP POP POP POP POP SWAP3 SWAP2 POP POP JUMP JUMPDEST PUSH0 PUSH1 0x20 DUP3 ADD SWAP1 POP DUP2 DUP2 SUB PUSH0 DUP4 ADD MSTORE PUSH2 0x1870 DUP2 DUP5 PUSH2 0x17E5 JUMP JUMPDEST SWAP1 POP SWAP3 SWAP2 POP POP JUMP JUMPDEST PUSH0 PUSH1 0x20 DUP3 DUP5 SUB SLT ISZERO PUSH2 0x188D JUMPI PUSH2 0x188C PUSH2 0x14CD JUMP JUMPDEST JUMPDEST PUSH0 DUP3 ADD CALLDATALOAD PUSH8 0xFFFFFFFFFFFFFFFF DUP2 GT ISZERO PUSH2 0x18AA JUMPI PUSH2 0x18A9 PUSH2 0x14D1 JUMP JUMPDEST JUMPDEST PUSH2 0x18B6 DUP5 DUP3 DUP6 ADD PUSH2 0x169A JUMP JUMPDEST SWAP2 POP POP SWAP3 SWAP2 POP POP JUMP JUMPDEST PUSH2 0x18C8 DUP2 PUSH2 0x14F4 JUMP JUMPDEST DUP3 MSTORE POP POP JUMP JUMPDEST PUSH2 0x18D7 DUP2 PUSH2 0x155A JUMP JUMPDEST DUP3 MSTORE POP POP JUMP JUMPDEST PUSH0 DUP2 ISZERO ISZERO SWAP1 POP SWAP2 SWAP1 POP JUMP JUMPDEST PUSH2 0x18F1 DUP2 PUSH2 0x18DD JUMP JUMPDEST DUP3 MSTORE POP POP JUMP JUMPDEST PUSH0 PUSH1 0x80 DUP4 ADD PUSH0 DUP4 ADD MLOAD DUP5 DUP3 SUB PUSH0 DUP7 ADD MSTORE PUSH2 0x1911 DUP3 DUP3 PUSH2 0x178E JUMP JUMPDEST SWAP2 POP POP PUSH1 0x20 DUP4 ADD MLOAD PUSH2 0x1926 PUSH1 0x20 DUP7 ADD DUP3 PUSH2 0x18BF JUMP JUMPDEST POP PUSH1 0x40 DUP4 ADD MLOAD PUSH2 0x1939 PUSH1 0x40 DUP7 ADD DUP3 PUSH2 0x18CE JUMP JUMPDEST POP PUSH1 0x60 DUP4 ADD MLOAD PUSH2 0x194C PUSH1 0x60 DUP7 ADD DUP3 PUSH2 0x18E8 JUMP JUMPDEST POP DUP1 SWAP2 POP POP SWAP3 SWAP2 POP POP JUMP JUMPDEST PUSH0 PUSH1 0x20 DUP3 ADD SWAP1 POP DUP2 DUP2 SUB PUSH0 DUP4 ADD MSTORE PUSH2 0x196F DUP2 DUP5 PUSH2 0x18F7 JUMP JUMPDEST SWAP1 POP SWAP3 SWAP2 POP POP JUMP JUMPDEST PUSH2 0x1980 DUP2 PUSH2 0x155A JUMP JUMPDEST DUP2 EQ PUSH2 0x198A JUMPI PUSH0 PUSH0 REVERT JUMPDEST POP JUMP JUMPDEST PUSH0 DUP2 CALLDATALOAD SWAP1 POP PUSH2 0x199B DUP2 PUSH2 0x1977 JUMP JUMPDEST SWAP3 SWAP2 POP POP JUMP JUMPDEST PUSH0 PUSH1 0x20 DUP3 DUP5 SUB SLT ISZERO PUSH2 0x19B6 JUMPI PUSH2 0x19B5 PUSH2 0x14CD JUMP JUMPDEST JUMPDEST PUSH0 PUSH2 0x19C3 DUP5 DUP3 DUP6 ADD PUSH2 0x198D JUMP JUMPDEST SWAP2 POP POP SWAP3 SWAP2 POP POP JUMP JUMPDEST PUSH0 DUP3 DUP3 MSTORE PUSH1 0x20 DUP3 ADD SWAP1 POP SWAP3 SWAP2 POP POP JUMP JUMPDEST PUSH0 PUSH2 0x19E6 DUP3 PUSH2 0x1766 JUMP JUMPDEST PUSH2 0x19F0 DUP2 DUP6 PUSH2 0x19CC JUMP JUMPDEST SWAP4 POP PUSH2 0x1A00 DUP2 DUP6 PUSH1 0x20 DUP7 ADD PUSH2 0x1780 JUMP JUMPDEST PUSH2 0x1A09 DUP2 PUSH2 0x1593 JUMP JUMPDEST DUP5 ADD SWAP2 POP POP SWAP3 SWAP2 POP POP JUMP JUMPDEST PUSH0 PUSH1 0x20 DUP3 ADD SWAP1 POP DUP2 DUP2 SUB PUSH0 DUP4 ADD MSTORE PUSH2 0x1A2C DUP2 DUP5 PUSH2 0x19DC JUMP JUMPDEST SWAP1 POP SWAP3 SWAP2 POP POP JUMP JUMPDEST PUSH0 PUSH0 PUSH1 0x40 DUP4 DUP6 SUB SLT ISZERO PUSH2 0x1A4A JUMPI PUSH2 0x1A49 PUSH2 0x14CD JUMP JUMPDEST JUMPDEST PUSH0 PUSH2 0x1A57 DUP6 DUP3 DUP7 ADD PUSH2 0x151B JUMP JUMPDEST SWAP3 POP POP PUSH1 0x20 PUSH2 0x1A68 DUP6 DUP3 DUP7 ADD PUSH2 0x198D JUMP JUMPDEST SWAP2 POP POP SWAP3 POP SWAP3 SWAP1 POP JUMP JUMPDEST PUSH2 0x1A7B DUP2 PUSH2 0x18DD JUMP JUMPDEST DUP3 MSTORE POP POP JUMP JUMPDEST PUSH0 PUSH1 0x20 DUP3 ADD SWAP1 POP PUSH2 0x1A94 PUSH0 DUP4 ADD DUP5 PUSH2 0x1A72 JUMP JUMPDEST SWAP3 SWAP2 POP POP JUMP JUMPDEST PUSH2 0x1AA3 DUP2 PUSH2 0x14F4 JUMP JUMPDEST DUP3 MSTORE POP POP JUMP JUMPDEST PUSH0 PUSH1 0x80 DUP3 ADD SWAP1 POP DUP2 DUP2 SUB PUSH0 DUP4 ADD MSTORE PUSH2 0x1AC1 DUP2 DUP8 PUSH2 0x19DC JUMP JUMPDEST SWAP1 POP PUSH2 0x1AD0 PUSH1 0x20 DUP4 ADD DUP7 PUSH2 0x1A9A JUMP JUMPDEST PUSH2 0x1ADD PUSH1 0x40 DUP4 ADD DUP6 PUSH2 0x1563 JUMP JUMPDEST PUSH2 0x1AEA PUSH1 0x60 DUP4 ADD DUP5 PUSH2 0x1A72 JUMP JUMPDEST SWAP6 SWAP5 POP POP POP POP POP JUMP JUMPDEST PUSH0 DUP2 SWAP1 POP SWAP3 SWAP2 POP POP JUMP JUMPDEST PUSH0 PUSH2 0x1B07 DUP3 PUSH2 0x1766 JUMP JUMPDEST PUSH2 0x1B11 DUP2 DUP6 PUSH2 0x1AF3 JUMP JUMPDEST SWAP4 POP PUSH2 0x1B21 DUP2 DUP6 PUSH1 0x20 DUP7 ADD PUSH2 0x1780 JUMP JUMPDEST DUP1 DUP5 ADD SWAP2 POP POP SWAP3 SWAP2 POP POP JUMP JUMPDEST PUSH0 PUSH2 0x1B38 DUP3 DUP5 PUSH2 0x1AFD JUMP JUMPDEST SWAP2 POP DUP2 SWAP1 POP SWAP3 SWAP2 POP POP JUMP JUMPDEST PUSH32 0x4F6C6420706F737420646F6573206E6F74206578697374000000000000000000 PUSH0 DUP3 ADD MSTORE POP JUMP JUMPDEST PUSH0 PUSH2 0x1B77 PUSH1 0x17 DUP4 PUSH2 0x19CC JUMP JUMPDEST SWAP2 POP PUSH2 0x1B82 DUP3 PUSH2 0x1B43 JUMP JUMPDEST PUSH1 0x20 DUP3 ADD SWAP1 POP SWAP2 SWAP1 POP JUMP JUMPDEST PUSH0 PUSH1 0x20 DUP3 ADD SWAP1 POP DUP2 DUP2 SUB PUSH0 DUP4 ADD MSTORE PUSH2 0x1BA4 DUP2 PUSH2 0x1B6B JUMP JUMPDEST SWAP1 POP SWAP2 SWAP1 POP JUMP JUMPDEST PUSH32 0x4F6E6C7920617574686F722063616E2075706461746520706F73740000000000 PUSH0 DUP3 ADD MSTORE POP JUMP JUMPDEST PUSH0 PUSH2 0x1BDF PUSH1 0x1B DUP4 PUSH2 0x19CC JUMP JUMPDEST SWAP2 POP PUSH2 0x1BEA DUP3 PUSH2 0x1BAB JUMP JUMPDEST PUSH1 0x20 DUP3 ADD SWAP1 POP SWAP2 SWAP1 POP JUMP JUMPDEST PUSH0 PUSH1 0x20 DUP3 ADD SWAP1 POP DUP2 DUP2 SUB PUSH0 DUP4 ADD MSTORE PUSH2 0x1C0C DUP2 PUSH2 0x1BD3 JUMP JUMPDEST SWAP1 POP SWAP2 SWAP1 POP JUMP JUMPDEST PUSH32 0x4E6577204349442063616E6E6F7420626520656D707479000000000000000000 PUSH0 DUP3 ADD MSTORE POP JUMP JUMPDEST PUSH0 PUSH2 0x1C47 PUSH1 0x17 DUP4 PUSH2 0x19CC JUMP JUMPDEST SWAP2 POP PUSH2 0x1C52 DUP3 PUSH2 0x1C13 JUMP JUMPDEST PUSH1 0x20 DUP3 ADD SWAP1 POP SWAP2 SWAP1 POP JUMP JUMPDEST PUSH0 PUSH1 0x20 DUP3 ADD SWAP1 POP DUP2 DUP2 SUB PUSH0 DUP4 ADD MSTORE PUSH2 0x1C74 DUP2 PUSH2 0x1C3B JUMP JUMPDEST SWAP1 POP SWAP2 SWAP1 POP JUMP JUMPDEST PUSH32 0x4E65772043494420616C72656164792065786973747300000000000000000000 PUSH0 DUP3 ADD MSTORE POP JUMP JUMPDEST PUSH0 PUSH2 0x1CAF PUSH1 0x16 DUP4 PUSH2 0x19CC JUMP JUMPDEST SWAP2 POP PUSH2 0x1CBA DUP3 PUSH2 0x1C7B JUMP JUMPDEST PUSH1 0x20 DUP3 ADD SWAP1 POP SWAP2 SWAP1 POP JUMP JUMPDEST PUSH0 PUSH1 0x20 DUP3 ADD SWAP1 POP DUP2 DUP2 SUB PUSH0 DUP4 ADD MSTORE PUSH2 0x1CDC DUP2 PUSH2 0x1CA3 JUMP JUMPDEST SWAP1 POP SWAP2 SWAP1 POP JUMP JUMPDEST PUSH32 0x4E487B7100000000000000000000000000000000000000000000000000000000 PUSH0 MSTORE PUSH1 0x22 PUSH1 0x4 MSTORE PUSH1 0x24 PUSH0 REVERT JUMPDEST PUSH0 PUSH1 0x2 DUP3 DIV SWAP1 POP PUSH1 0x1 DUP3 AND DUP1 PUSH2 0x1D27 JUMPI PUSH1 0x7F DUP3 AND SWAP2 POP JUMPDEST PUSH1 0x20 DUP3 LT DUP2 SUB PUSH2 0x1D3A JUMPI PUSH2 0x1D39 PUSH2 0x1CE3 JUMP JUMPDEST JUMPDEST POP SWAP2 SWAP1 POP JUMP JUMPDEST PUSH0 DUP2 SWAP1 POP DUP2 PUSH0 MSTORE PUSH1 0x20 PUSH0 KECCAK256 SWAP1 POP SWAP2 SWAP1 POP JUMP JUMPDEST PUSH0 PUSH1 0x20 PUSH1 0x1F DUP4 ADD DIV SWAP1 POP SWAP2 SWAP1 POP JUMP JUMPDEST PUSH0 DUP3 DUP3 SHL SWAP1 POP SWAP3 SWAP2 POP POP JUMP JUMPDEST PUSH0 PUSH1 0x8 DUP4 MUL PUSH2 0x1D9C PUSH32 0xFFFFFFFFFFFFFFFFFFFFFFFFFFFFFFFFFFFFFFFFFFFFFFFFFFFFFFFFFFFFFFFF DUP3 PUSH2 0x1D61 JUMP JUMPDEST PUSH2 0x1DA6 DUP7 DUP4 PUSH2 0x1D61 JUMP JUMPDEST SWAP6 POP DUP1 NOT DUP5 AND SWAP4 POP DUP1 DUP7 AND DUP5 OR SWAP3 POP POP POP SWAP4 SWAP3 POP POP POP JUMP JUMPDEST PUSH0 DUP2 SWAP1 POP SWAP2 SWAP1 POP JUMP JUMPDEST PUSH0 PUSH2 0x1DE1 PUSH2 0x1DDC PUSH2 0x1DD7 DUP5 PUSH2 0x155A JUMP JUMPDEST PUSH2 0x1DBE JUMP JUMPDEST PUSH2 0x155A JUMP JUMPDEST SWAP1 POP SWAP2 SWAP1 POP JUMP JUMPDEST PUSH0 DUP2 SWAP1 POP SWAP2 SWAP1 POP JUMP JUMPDEST PUSH2 0x1DFA DUP4 PUSH2 0x1DC7 JUMP JUMPDEST PUSH2 0x1E0E PUSH2 0x1E06 DUP3 PUSH2 0x1DE8 JUMP JUMPDEST DUP5 DUP5 SLOAD PUSH2 0x1D6D JUMP JUMPDEST DUP3 SSTORE POP POP POP POP JUMP JUMPDEST PUSH0 PUSH0 SWAP1 POP SWAP1 JUMP JUMPDEST PUSH2 0x1E25 PUSH2 0x1E16 JUMP JUMPDEST PUSH2 0x1E30 DUP2 DUP5 DUP5 PUSH2 0x1DF1 JUMP JUMPDEST POP POP POP JUMP JUMPDEST JUMPDEST DUP2 DUP2 LT ISZERO PUSH2 0x1E53 JUMPI PUSH2 0x1E48 PUSH0 DUP3 PUSH2 0x1E1D JUMP JUMPDEST PUSH1 0x1 DUP2 ADD SWAP1 POP PUSH2 0x1E36 JUMP JUMPDEST POP POP JUMP JUMPDEST PUSH1 0x1F DUP3 GT ISZERO PUSH2 0x1E98 JUMPI PUSH2 0x1E69 DUP2 PUSH2 0x1D40 JUMP JUMPDEST PUSH2 0x1E72 DUP5 PUSH2 0x1D52 JUMP JUMPDEST DUP2 ADD PUSH1 0x20 DUP6 LT ISZERO PUSH2 0x1E81 JUMPI DUP2 SWAP1 POP JUMPDEST PUSH2 0x1E95 PUSH2 0x1E8D DUP6 PUSH2 0x1D52 JUMP JUMPDEST DUP4 ADD DUP3 PUSH2 0x1E35 JUMP JUMPDEST POP POP JUMPDEST POP POP POP JUMP JUMPDEST PUSH0 DUP3 DUP3 SHR SWAP1 POP SWAP3 SWAP2 POP POP JUMP JUMPDEST PUSH0 PUSH2 0x1EB8 PUSH0 NOT DUP5 PUSH1 0x8 MUL PUSH2 0x1E9D JUMP JUMPDEST NOT DUP1 DUP4 AND SWAP2 POP POP SWAP3 SWAP2 POP POP JUMP JUMPDEST PUSH0 PUSH2 0x1ED0 DUP4 DUP4 PUSH2 0x1EA9 JUMP JUMPDEST SWAP2 POP DUP3 PUSH1 0x2 MUL DUP3 OR SWAP1 POP SWAP3 SWAP2 POP POP JUMP JUMPDEST PUSH2 0x1EE9 DUP3 PUSH2 0x1766 JUMP JUMPDEST PUSH8 0xFFFFFFFFFFFFFFFF DUP2 GT ISZERO PUSH2 0x1F02 JUMPI PUSH2 0x1F01 PUSH2 0x15A3 JUMP JUMPDEST JUMPDEST PUSH2 0x1F0C DUP3 SLOAD PUSH2 0x1D10 JUMP JUMPDEST PUSH2 0x1F17 DUP3 DUP3 DUP6 PUSH2 0x1E57 JUMP JUMPDEST PUSH0 PUSH1 0x20 SWAP1 POP PUSH1 0x1F DUP4 GT PUSH1 0x1 DUP2 EQ PUSH2 0x1F48 JUMPI PUSH0 DUP5 ISZERO PUSH2 0x1F36 JUMPI DUP3 DUP8 ADD MLOAD SWAP1 POP JUMPDEST PUSH2 0x1F40 DUP6 DUP3 PUSH2 0x1EC5 JUMP JUMPDEST DUP7 SSTORE POP PUSH2 0x1FA7 JUMP JUMPDEST PUSH1 0x1F NOT DUP5 AND PUSH2 0x1F56 DUP7 PUSH2 0x1D40 JUMP JUMPDEST PUSH0 JUMPDEST DUP3 DUP2 LT ISZERO PUSH2 0x1F7D JUMPI DUP5 DUP10 ADD MLOAD DUP3 SSTORE PUSH1 0x1 DUP3 ADD SWAP2 POP PUSH1 0x20 DUP6 ADD SWAP5 POP PUSH1 0x20 DUP2 ADD SWAP1 POP PUSH2 0x1F58 JUMP JUMPDEST DUP7 DUP4 LT ISZERO PUSH2 0x1F9A JUMPI DUP5 DUP10 ADD MLOAD PUSH2 0x1F96 PUSH1 0x1F DUP10 AND DUP3 PUSH2 0x1EA9 JUMP JUMPDEST DUP4 SSTORE POP JUMPDEST PUSH1 0x1 PUSH1 0x2 DUP9 MUL ADD DUP9 SSTORE POP POP POP JUMPDEST POP POP POP POP POP POP JUMP JUMPDEST PUSH32 0x4E487B7100000000000000000000000000000000000000000000000000000000 PUSH0 MSTORE PUSH1 0x32 PUSH1 0x4 MSTORE PUSH1 0x24 PUSH0 REVERT JUMPDEST PUSH0 DUP2 SWAP1 POP SWAP3 SWAP2 POP POP JUMP JUMPDEST PUSH0 DUP2 SWAP1 POP DUP2 PUSH0 MSTORE PUSH1 0x20 PUSH0 KECCAK256 SWAP1 POP SWAP2 SWAP1 POP JUMP JUMPDEST PUSH0 DUP2 SLOAD PUSH2 0x2004 DUP2 PUSH2 0x1D10 JUMP JUMPDEST PUSH2 0x200E DUP2 DUP7 PUSH2 0x1FDC JUMP JUMPDEST SWAP5 POP PUSH1 0x1 DUP3 AND PUSH0 DUP2 EQ PUSH2 0x2028 JUMPI PUSH1 0x1 DUP2 EQ PUSH2 0x203D JUMPI PUSH2 0x206F JUMP JUMPDEST PUSH1 0xFF NOT DUP4 AND DUP7 MSTORE DUP2 ISZERO ISZERO DUP3 MUL DUP7 ADD SWAP4 POP PUSH2 0x206F JUMP JUMPDEST PUSH2 0x2046 DUP6 PUSH2 0x1FE6 JUMP JUMPDEST PUSH0 JUMPDEST DUP4 DUP2 LT ISZERO PUSH2 0x2067 JUMPI DUP2 SLOAD DUP2 DUP10 ADD MSTORE PUSH1 0x1 DUP3 ADD SWAP2 POP PUSH1 0x20 DUP2 ADD SWAP1 POP PUSH2 0x2048 JUMP JUMPDEST DUP4 DUP9 ADD SWAP6 POP POP POP JUMPDEST POP POP POP SWAP3 SWAP2 POP POP JUMP JUMPDEST PUSH0 PUSH2 0x2083 DUP3 DUP5 PUSH2 0x1FF8 JUMP JUMPDEST SWAP2 POP DUP2 SWAP1 POP SWAP3 SWAP2 POP POP JUMP JUMPDEST PUSH0 PUSH1 0x60 DUP3 ADD SWAP1 POP DUP2 DUP2 SUB PUSH0 DUP4 ADD MSTORE PUSH2 0x20A6 DUP2 DUP7 PUSH2 0x19DC JUMP JUMPDEST SWAP1 POP DUP2 DUP2 SUB PUSH1 0x20 DUP4 ADD MSTORE PUSH2 0x20BA DUP2 DUP6 PUSH2 0x19DC JUMP JUMPDEST SWAP1 POP PUSH2 0x20C9 PUSH1 0x40 DUP4 ADD DUP5 PUSH2 0x1563 JUMP JUMPDEST SWAP5 SWAP4 POP POP POP POP JUMP JUMPDEST PUSH32 0x506F737420646F6573206E6F7420657869737400000000000000000000000000 PUSH0 DUP3 ADD MSTORE POP JUMP JUMPDEST PUSH0 PUSH2 0x2105 PUSH1 0x13 DUP4 PUSH2 0x19CC JUMP JUMPDEST SWAP2 POP PUSH2 0x2110 DUP3 PUSH2 0x20D1 JUMP JUMPDEST PUSH1 0x20 DUP3 ADD SWAP1 POP SWAP2 SWAP1 POP JUMP JUMPDEST PUSH0 PUSH1 0x20 DUP3 ADD SWAP1 POP DUP2 DUP2 SUB PUSH0 DUP4 ADD MSTORE PUSH2 0x2132 DUP2 PUSH2 0x20F9 JUMP JUMPDEST SWAP1 POP SWAP2 SWAP1 POP JUMP JUMPDEST PUSH32 0x4F6E6C7920617574686F722063616E2064656C65746520706F73740000000000 PUSH0 DUP3 ADD MSTORE POP JUMP JUMPDEST PUSH0 PUSH2 0x216D PUSH1 0x1B DUP4 PUSH2 0x19CC JUMP JUMPDEST SWAP2 POP PUSH2 0x2178 DUP3 PUSH2 0x2139 JUMP JUMPDEST PUSH1 0x20 DUP3 ADD SWAP1 POP SWAP2 SWAP1 POP JUMP JUMPDEST PUSH0 PUSH1 0x20 DUP3 ADD SWAP1 POP DUP2 DUP2 SUB PUSH0 DUP4 ADD MSTORE PUSH2 0x219A DUP2 PUSH2 0x2161 JUMP JUMPDEST SWAP1 POP SWAP2 SWAP1 POP JUMP JUMPDEST PUSH32 0x4E487B7100000000000000000000000000000000000000000000000000000000 PUSH0 MSTORE PUSH1 0x11 PUSH1 0x4 MSTORE PUSH1 0x24 PUSH0 REVERT JUMPDEST PUSH0 PUSH2 0x21D8 DUP3 PUSH2 0x155A JUMP JUMPDEST SWAP2 POP PUSH2 0x21E3 DUP4 PUSH2 0x155A JUMP JUMPDEST SWAP3 POP DUP3 DUP3 SUB SWAP1 POP DUP2 DUP2 GT ISZERO PUSH2 0x21FB JUMPI PUSH2 0x21FA PUSH2 0x21A1 JUMP JUMPDEST JUMPDEST SWAP3 SWAP2 POP POP JUMP JUMPDEST PUSH0 DUP2 SLOAD SWAP1 POP PUSH2 0x220F DUP2 PUSH2 0x1D10 JUMP JUMPDEST SWAP1 POP SWAP2 SWAP1 POP JUMP JUMPDEST PUSH0 DUP2 SWAP1 POP DUP2 PUSH0 MSTORE PUSH1 0x20 PUSH0 KECCAK256 SWAP1 POP SWAP2 SWAP1 POP JUMP JUMPDEST DUP2 DUP2 SUB PUSH2 0x2236 JUMPI POP POP PUSH2 0x230B JUMP JUMPDEST PUSH2 0x223F DUP3 PUSH2 0x2201 JUMP JUMPDEST PUSH8 0xFFFFFFFFFFFFFFFF DUP2 GT ISZERO PUSH2 0x2258 JUMPI PUSH2 0x2257 PUSH2 0x15A3 JUMP JUMPDEST JUMPDEST PUSH2 0x2262 DUP3 SLOAD PUSH2 0x1D10 JUMP JUMPDEST PUSH2 0x226D DUP3 DUP3 DUP6 PUSH2 0x1E57 JUMP JUMPDEST PUSH0 PUSH1 0x1F DUP4 GT PUSH1 0x1 DUP2 EQ PUSH2 0x229A JUMPI PUSH0 DUP5 ISZERO PUSH2 0x2288 JUMPI DUP3 DUP8 ADD SLOAD SWAP1 POP JUMPDEST PUSH2 0x2292 DUP6 DUP3 PUSH2 0x1EC5 JUMP JUMPDEST DUP7 SSTORE POP PUSH2 0x2304 JUMP JUMPDEST PUSH1 0x1F NOT DUP5 AND PUSH2 0x22A8 DUP8 PUSH2 0x2216 JUMP JUMPDEST SWAP7 POP PUSH2 0x22B3 DUP7 PUSH2 0x1D40 JUMP JUMPDEST PUSH0 JUMPDEST DUP3 DUP2 LT ISZERO PUSH2 0x22DA JUMPI DUP5 DUP10 ADD SLOAD DUP3 SSTORE PUSH1 0x1 DUP3 ADD SWAP2 POP PUSH1 0x1 DUP6 ADD SWAP5 POP PUSH1 0x20 DUP2 ADD SWAP1 POP PUSH2 0x22B5 JUMP JUMPDEST DUP7 DUP4 LT ISZERO PUSH2 0x22F7 JUMPI DUP5 DUP10 ADD SLOAD PUSH2 0x22F3 PUSH1 0x1F DUP10 AND DUP3 PUSH2 0x1EA9 JUMP JUMPDEST DUP4 SSTORE POP JUMPDEST PUSH1 0x1 PUSH1 0x2 DUP9 MUL ADD DUP9 SSTORE POP POP POP JUMPDEST POP POP POP POP POP POP JUMPDEST JUMP JUMPDEST PUSH32 0x4E487B7100000000000000000000000000000000000000000000000000000000 PUSH0 MSTORE PUSH1 0x31 PUSH1 0x4 MSTORE PUSH1 0x24 PUSH0 REVERT JUMPDEST PUSH0 PUSH1 0x40 DUP3 ADD SWAP1 POP DUP2 DUP2 SUB PUSH0 DUP4 ADD MSTORE PUSH2 0x2352 DUP2 DUP6 PUSH2 0x19DC JUMP JUMPDEST SWAP1 POP PUSH2 0x2361 PUSH1 0x20 DUP4 ADD DUP5 PUSH2 0x1563 JUMP JUMPDEST SWAP4 SWAP3 POP POP POP JUMP JUMPDEST PUSH32 0x4349442063616E6E6F7420626520656D70747900000000000000000000000000 PUSH0 DUP3 ADD MSTORE POP JUMP JUMPDEST PUSH0 PUSH2 0x239C PUSH1 0x13 DUP4 PUSH2 0x19CC JUMP JUMPDEST SWAP2 POP PUSH2 0x23A7 DUP3 PUSH2 0x2368 JUMP JUMPDEST PUSH1 0x20 DUP3 ADD SWAP1 POP SWAP2 SWAP1 POP JUMP JUMPDEST PUSH0 PUSH1 0x20 DUP3 ADD SWAP1 POP DUP2 DUP2 SUB PUSH0 DUP4 ADD MSTORE PUSH2 0x23C9 DUP2 PUSH2 0x2390 JUMP JUMPDEST SWAP1 POP SWAP2 SWAP1 POP JUMP JUMPDEST PUSH32 0x506F737420616C72656164792065786973747300000000000000000000000000 PUSH0 DUP3 ADD MSTORE POP JUMP JUMPDEST PUSH0 PUSH2 0x2404 PUSH1 0x13 DUP4 PUSH2 0x19CC JUMP JUMPDEST SWAP2 POP PUSH2 0x240F DUP3 PUSH2 0x23D0 JUMP JUMPDEST PUSH1 0x20 DUP3 ADD SWAP1 POP SWAP2 SWAP1 POP JUMP JUMPDEST PUSH0 PUSH1 0x20 DUP3 ADD SWAP1 POP DUP2 DUP2 SUB PUSH0 DUP4 ADD MSTORE PUSH2 0x2431 DUP2 PUSH2 0x23F8 JUMP JUMPDEST SWAP1 POP SWAP2 SWAP1 POP JUMP INVALID LOG2 PUSH5 0x6970667358 0x22 SLT KECCAK256 0x1E MSTORE 0xEA CODESIZE DUP3 0xB9 DUP5 ADDRESS LOG3 SAR PUSH5 0x1D31F144BF DUP15 DIV 0xB5 0xBD MSIZE PUSH8 0xB1267886A92C9F92 0xD6 PUSH28 0x64736F6C634300081E00330000000000000000000000000000000000 "
				},
				"gasEstimates": {
					"creation": {
						"codeDepositCost": "1865200",
						"executionCost": "1967",
						"totalCost": "1867167"
					},
					"external": {
						"allPosts(uint256)": "infinite",
						"deletePost(string)": "infinite",
						"getAllPosts()": "infinite",
						"getPostCount()": "2506",
						"getPostInfo(string)": "infinite",
						"getUserPostCount(address)": "2837",
						"getUserPosts(address)": "infinite",
						"postDetails(string)": "infinite",
						"postExists(string)": "infinite",
						"registerPost(string)": "infinite",
						"updatePost(string,string)": "infinite",
						"userPosts(address,uint256)": "infinite"
					}
				},
				"methodIdentifiers": {
					"allPosts(uint256)": "718ce2bc",
					"deletePost(string)": "30fdab50",
					"getAllPosts()": "30561100",
					"getPostCount()": "bcc95407",
					"getPostInfo(string)": "41ce7617",
					"getUserPostCount(address)": "00a09832",
					"getUserPosts(address)": "9a2194a9",
					"postDetails(string)": "f0321b71",
					"postExists(string)": "d74a14bd",
					"registerPost(string)": "8afec4c0",
					"updatePost(string,string)": "084d5372",
					"userPosts(address,uint256)": "8064d149"
				}
			},
			"storageLayout": {
				"storage": [
					{
						"astId": 6,
						"contract": "contracts/BlogRegistry.sol:BlogRegistry",
						"label": "userPosts",
						"offset": 0,
						"slot": "0",
						"type": "t_mapping(t_address,t_array(t_string_storage)dyn_storage)"
					},
					{
						"astId": 9,
						"contract": "contracts/BlogRegistry.sol:BlogRegistry",
						"label": "allPosts",
						"offset": 0,
						"slot": "1",
						"type": "t_array(t_string_storage)dyn_storage"
					},
					{
						"astId": 23,
						"contract": "contracts/BlogRegistry.sol:BlogRegistry",
						"label": "postDetails",
						"offset": 0,
						"slot": "2",
						"type": "t_mapping(t_string_memory_ptr,t_struct(PostInfo)18_storage)"
					}
				],
				"types": {
					"t_address": {
						"encoding": "inplace",
						"label": "address",
						"numberOfBytes": "20"
					},
					"t_array(t_string_storage)dyn_storage": {
						"base": "t_string_storage",
						"encoding": "dynamic_array",
						"label": "string[]",
						"numberOfBytes": "32"
					},
					"t_bool": {
						"encoding": "inplace",
						"label": "bool",
						"numberOfBytes": "1"
					},
					"t_mapping(t_address,t_array(t_string_storage)dyn_storage)": {
						"encoding": "mapping",
						"key": "t_address",
						"label": "mapping(address => string[])",
						"numberOfBytes": "32",
						"value": "t_array(t_string_storage)dyn_storage"
					},
					"t_mapping(t_string_memory_ptr,t_struct(PostInfo)18_storage)": {
						"encoding": "mapping",
						"key": "t_string_memory_ptr",
						"label": "mapping(string => struct BlogRegistry.PostInfo)",
						"numberOfBytes": "32",
						"value": "t_struct(PostInfo)18_storage"
					},
					"t_string_memory_ptr": {
						"encoding": "bytes",
						"label": "string",
						"numberOfBytes": "32"
					},
					"t_string_storage": {
						"encoding": "bytes",
						"label": "string",
						"numberOfBytes": "32"
					},
					"t_struct(PostInfo)18_storage": {
						"encoding": "inplace",
						"label": "struct BlogRegistry.PostInfo",
						"members": [
							{
								"astId": 11,
								"contract": "contracts/BlogRegistry.sol:BlogRegistry",
								"label": "cid",
								"offset": 0,
								"slot": "0",
								"type": "t_string_storage"
							},
							{
								"astId": 13,
								"contract": "contracts/BlogRegistry.sol:BlogRegistry",
								"label": "author",
								"offset": 0,
								"slot": "1",
								"type": "t_address"
							},
							{
								"astId": 15,
								"contract": "contracts/BlogRegistry.sol:BlogRegistry",
								"label": "timestamp",
								"offset": 0,
								"slot": "2",
								"type": "t_uint256"
							},
							{
								"astId": 17,
								"contract": "contracts/BlogRegistry.sol:BlogRegistry",
								"label": "exists",
								"offset": 0,
								"slot": "3",
								"type": "t_bool"
							}
						],
						"numberOfBytes": "128"
					},
					"t_uint256": {
						"encoding": "inplace",
						"label": "uint256",
						"numberOfBytes": "32"
					}
				}
			},
			"userdoc": {
				"kind": "user",
				"methods": {},
				"version": 1
			}
		}
	}
}